{
  "transactions": [
    {
      "hash": "0x334d12b8e52a02fb73f1d9a6c2c56ffbc8a968068f91515412443c0b4a34fa24",
      "transactionType": "CALL",
      "contractName": "TWAPOracle",
      "contractAddress": "0xa18f7bd8be9611fd8499c15e0bc6aa9c4c0ef268",
      "function": "update(address)",
      "arguments": [
        "0x817caF2f184D7FAf6F68963dBB02810633966546"
      ],
      "transaction": {
        "from": "0x97bf134cdf8a620aa0f10e140b89a2adaac2bbbf",
        "to": "0xa18f7bd8be9611fd8499c15e0bc6aa9c4c0ef268",
        "gas": "0xd454",
        "value": "0x0",
        "input": "0x1c1b8772000000000000000000000000817caf2f184d7faf6f68963dbb02810633966546",
        "nonce": "0x55",
        "chainId": "0x66eee"
      },
      "additionalContracts": [],
      "isFixedGasLimit": false
    },
    {
      "hash": "0x938c22af0ec7e52b06551794b05de2fa24b2ebfff02695ae76c44a6902fe86ac",
      "transactionType": "CALL",
      "contractName": "TWAPOracle",
      "contractAddress": "0xa18f7bd8be9611fd8499c15e0bc6aa9c4c0ef268",
      "function": "update(address)",
      "arguments": [
        "0xFAD8e1b15B224aCD16295B3F909F5Cc0eD39E2D0"
      ],
      "transaction": {
        "from": "0x97bf134cdf8a620aa0f10e140b89a2adaac2bbbf",
        "to": "0xa18f7bd8be9611fd8499c15e0bc6aa9c4c0ef268",
        "gas": "0xd454",
        "value": "0x0",
        "input": "0x1c1b8772000000000000000000000000fad8e1b15b224acd16295b3f909f5cc0ed39e2d0",
        "nonce": "0x56",
        "chainId": "0x66eee"
      },
      "additionalContracts": [],
      "isFixedGasLimit": false
    },
    {
      "hash": "0x6d100b7ef3142825022130f4c1291645c6cd6e4077362d55e711c71e49f4cc59",
      "transactionType": "CALL",
      "contractName": "TWAPOracle",
      "contractAddress": "0xa18f7bd8be9611fd8499c15e0bc6aa9c4c0ef268",
      "function": "update(address)",
      "arguments": [
        "0xed31F9e699f23420B3426f1e42bA9eaD4E7CDE57"
      ],
      "transaction": {
        "from": "0x97bf134cdf8a620aa0f10e140b89a2adaac2bbbf",
        "to": "0xa18f7bd8be9611fd8499c15e0bc6aa9c4c0ef268",
        "gas": "0xd454",
        "value": "0x0",
        "input": "0x1c1b8772000000000000000000000000ed31f9e699f23420b3426f1e42ba9ead4e7cde57",
        "nonce": "0x57",
        "chainId": "0x66eee"
      },
      "additionalContracts": [],
      "isFixedGasLimit": false
    },
    {
      "hash": "0x609c02267adfbf7f5e8afc0d326e686af38d4de7f0a108f882a35a13cc90fbad",
      "transactionType": "CALL",
      "contractName": "TWAPOracle",
      "contractAddress": "0xa18f7bd8be9611fd8499c15e0bc6aa9c4c0ef268",
      "function": "update(address)",
      "arguments": [
        "0x72576851A0a7955b3361Fe1e59EaaF0EeE931216"
      ],
      "transaction": {
        "from": "0x97bf134cdf8a620aa0f10e140b89a2adaac2bbbf",
        "to": "0xa18f7bd8be9611fd8499c15e0bc6aa9c4c0ef268",
        "gas": "0xd454",
        "value": "0x0",
        "input": "0x1c1b877200000000000000000000000072576851a0a7955b3361fe1e59eaaf0eee931216",
        "nonce": "0x58",
        "chainId": "0x66eee"
      },
      "additionalContracts": [],
      "isFixedGasLimit": false
    },
    {
      "hash": "0x94094f85645263c017f3812efae8ba2bea66bdc027b2b6c30984d7ae15ac8f38",
      "transactionType": "CALL",
      "contractName": "TWAPOracle",
      "contractAddress": "0xa18f7bd8be9611fd8499c15e0bc6aa9c4c0ef268",
      "function": "update(address)",
      "arguments": [
        "0x94c6014175b464Ab11D1Ad64a3F13C01130A6811"
      ],
      "transaction": {
        "from": "0x97bf134cdf8a620aa0f10e140b89a2adaac2bbbf",
        "to": "0xa18f7bd8be9611fd8499c15e0bc6aa9c4c0ef268",
        "gas": "0xd454",
        "value": "0x0",
        "input": "0x1c1b877200000000000000000000000094c6014175b464ab11d1ad64a3f13c01130a6811",
        "nonce": "0x59",
        "chainId": "0x66eee"
      },
      "additionalContracts": [],
      "isFixedGasLimit": false
    }
  ],
  "receipts": [
    {
      "status": "0x1",
      "cumulativeGasUsed": "0xa1e0",
      "logs": [
        {
          "address": "0xa18f7bd8be9611fd8499c15e0bc6aa9c4c0ef268",
          "topics": [
            "0x84c7969632fd1575d3bbe1bef77c68cc56cd9b903a72576f5cc0004e28769328",
            "0x000000000000000000000000817caf2f184d7faf6f68963dbb02810633966546",
            "0x00000000000000000000000097bf134cdf8a620aa0f10e140b89a2adaac2bbbf"
          ],
          "data": "0x0000000000000000000000000000000000000000000000000000000069c687ce",
          "blockHash": "0x123de79f952ee62e677edba6d4fce7c253e3f7ac54c1be295ca26454ef190b4e",
          "blockNumber": "0xf253a2f",
          "blockTimestamp": "0x69c687ce",
          "transactionHash": "0x334d12b8e52a02fb73f1d9a6c2c56ffbc8a968068f91515412443c0b4a34fa24",
          "transactionIndex": "0x1",
          "logIndex": "0x0",
          "removed": false
        }
      ],
      "logsBloom": "0x00000000000000000000000040000000000000008000000000000000000000000000000000000000000000000000000000120001000000000000000000000000200000000000000000000000000000000004000000000000000000000000000000000000000000000000000000000000000000000000000000000000000000000000000000000000000000000000000000000200008000000000000000008000000000000000000000000000000000000000000000000000000000000000000000000000000010000000000000000000000000000000000000000000000000000000000000000000000000000000000000000000000000004000000000000000",
      "type": "0x2",
      "transactionHash": "0x334d12b8e52a02fb73f1d9a6c2c56ffbc8a968068f91515412443c0b4a34fa24",
      "transactionIndex": "0x1",
      "blockHash": "0x123de79f952ee62e677edba6d4fce7c253e3f7ac54c1be295ca26454ef190b4e",
      "blockNumber": "0xf253a2f",
      "gasUsed": "0xa1e0",
      "effectiveGasPrice": "0x1312d00",
      "from": "0x97bf134cdf8a620aa0f10e140b89a2adaac2bbbf",
      "to": "0xa18f7bd8be9611fd8499c15e0bc6aa9c4c0ef268",
      "contractAddress": null,
      "gasUsedForL1": "0x0",
      "l1BlockNumber": "0xa0b849",
      "timeboosted": false
    },
    {
      "status": "0x1",
      "cumulativeGasUsed": "0x4a63f",
      "logs": [
        {
          "address": "0xa18f7bd8be9611fd8499c15e0bc6aa9c4c0ef268",
          "topics": [
            "0x84c7969632fd1575d3bbe1bef77c68cc56cd9b903a72576f5cc0004e28769328",
            "0x000000000000000000000000fad8e1b15b224acd16295b3f909f5cc0ed39e2d0",
            "0x00000000000000000000000097bf134cdf8a620aa0f10e140b89a2adaac2bbbf"
          ],
          "data": "0x0000000000000000000000000000000000000000000000000000000069c687d0",
          "blockHash": "0xa2d793dab21b7f255e5f1b644a69edfb4d6551b1f715199f6679eb6c60556ce4",
          "blockNumber": "0xf253a36",
          "blockTimestamp": "0x69c687d0",
          "transactionHash": "0x938c22af0ec7e52b06551794b05de2fa24b2ebfff02695ae76c44a6902fe86ac",
          "transactionIndex": "0x3",
          "logIndex": "0x6",
          "removed": false
        }
      ],
      "logsBloom": "0x00000000000000000000000000000000000000008000000000000000000000000000000000000000000100000000000000100001000000000200000000000000200000000000000000000000000000000004000000000000000000000000000000000000000000000000000020000000000000000000000000000000000000000000000000000000000000000000000000000000008000000000000000008000000000000000000000000000000000000000000000000000000000000000000000000000000010000000000000000000000000000000000000000000000000000000000000000000000000000000000000000000000000004000000000000000",
      "type": "0x2",
      "transactionHash": "0x938c22af0ec7e52b06551794b05de2fa24b2ebfff02695ae76c44a6902fe86ac",
      "transactionIndex": "0x3",
      "blockHash": "0xa2d793dab21b7f255e5f1b644a69edfb4d6551b1f715199f6679eb6c60556ce4",
      "blockNumber": "0xf253a36",
      "gasUsed": "0xa1e0",
      "effectiveGasPrice": "0x131b9a0",
      "from": "0x97bf134cdf8a620aa0f10e140b89a2adaac2bbbf",
      "to": "0xa18f7bd8be9611fd8499c15e0bc6aa9c4c0ef268",
      "contractAddress": null,
      "gasUsedForL1": "0x0",
      "l1BlockNumber": "0xa0b849",
      "timeboosted": false
    },
    {
      "status": "0x1",
      "cumulativeGasUsed": "0xa1e0",
      "logs": [
        {
          "address": "0xa18f7bd8be9611fd8499c15e0bc6aa9c4c0ef268",
          "topics": [
            "0x84c7969632fd1575d3bbe1bef77c68cc56cd9b903a72576f5cc0004e28769328",
            "0x000000000000000000000000ed31f9e699f23420b3426f1e42ba9ead4e7cde57",
            "0x00000000000000000000000097bf134cdf8a620aa0f10e140b89a2adaac2bbbf"
          ],
          "data": "0x0000000000000000000000000000000000000000000000000000000069c687d1",
          "blockHash": "0xd9076f9025d47286dfe3c58b05eb1f17fb80015e758c0165010bfff040a4b96c",
          "blockNumber": "0xf253a3c",
          "blockTimestamp": "0x69c687d1",
          "transactionHash": "0x6d100b7ef3142825022130f4c1291645c6cd6e4077362d55e711c71e49f4cc59",
          "transactionIndex": "0x1",
          "logIndex": "0x0",
          "removed": false
        }
      ],
      "logsBloom": "0x00000000000000000000000000000000000000008000000000000000000000000000000000000000000000000000000000100001000000000000000000000000200000000040000000000000000000000004000000000000020000000000000000000000000000000000000000000000000000000000000000000400000000000000000000000000000000000000000000000000008000000000000000008000000000000000000000000000000000000000000000000000000000000000000000000000000010000000000000000000000000000000000000000000000000000000000000000000000000000000000000000000000000004000000000000000",
      "type": "0x2",
      "transactionHash": "0x6d100b7ef3142825022130f4c1291645c6cd6e4077362d55e711c71e49f4cc59",
      "transactionIndex": "0x1",
      "blockHash": "0xd9076f9025d47286dfe3c58b05eb1f17fb80015e758c0165010bfff040a4b96c",
      "blockNumber": "0xf253a3c",
      "gasUsed": "0xa1e0",
      "effectiveGasPrice": "0x1318ac0",
      "from": "0x97bf134cdf8a620aa0f10e140b89a2adaac2bbbf",
      "to": "0xa18f7bd8be9611fd8499c15e0bc6aa9c4c0ef268",
      "contractAddress": null,
      "gasUsedForL1": "0x0",
      "l1BlockNumber": "0xa0b84a",
      "timeboosted": false
    },
    {
      "status": "0x1",
      "cumulativeGasUsed": "0xa1e0",
      "logs": [
        {
          "address": "0xa18f7bd8be9611fd8499c15e0bc6aa9c4c0ef268",
          "topics": [
            "0x84c7969632fd1575d3bbe1bef77c68cc56cd9b903a72576f5cc0004e28769328",
            "0x00000000000000000000000072576851a0a7955b3361fe1e59eaaf0eee931216",
            "0x00000000000000000000000097bf134cdf8a620aa0f10e140b89a2adaac2bbbf"
          ],
          "data": "0x0000000000000000000000000000000000000000000000000000000069c687d3",
          "blockHash": "0x47b3f9294a095f0674d6b9298b96656ed0d577c7eed74f29ecfe3d246d7ba51c",
          "blockNumber": "0xf253a42",
          "blockTimestamp": "0x69c687d3",
          "transactionHash": "0x609c02267adfbf7f5e8afc0d326e686af38d4de7f0a108f882a35a13cc90fbad",
          "transactionIndex": "0x1",
          "logIndex": "0x0",
          "removed": false
        }
      ],
      "logsBloom": "0x00000000000000000000000000000000000000008000000000000000000000000000000000000000000000000000000000100001000000000000000000000000200000000000000000000000000000000004000000000000000000000000000000000000000000000000000000000000004000000000000000000000000000000000000000000000000000000000400000000000008000000000000200008000000000000000000000000000000000000000000000000000000000000000000000000000000010000000000000000000000000000000000000000000000000000000000000000000000000000000000000000000000000004000000000000000",
      "type": "0x2",
      "transactionHash": "0x609c02267adfbf7f5e8afc0d326e686af38d4de7f0a108f882a35a13cc90fbad",
      "transactionIndex": "0x1",
      "blockHash": "0x47b3f9294a095f0674d6b9298b96656ed0d577c7eed74f29ecfe3d246d7ba51c",
      "blockNumber": "0xf253a42",
      "gasUsed": "0xa1e0",
      "effectiveGasPrice": "0x1312d00",
      "from": "0x97bf134cdf8a620aa0f10e140b89a2adaac2bbbf",
      "to": "0xa18f7bd8be9611fd8499c15e0bc6aa9c4c0ef268",
      "contractAddress": null,
      "gasUsedForL1": "0x0",
      "l1BlockNumber": "0xa0b84a",
      "timeboosted": false
    },
    {
      "status": "0x1",
      "cumulativeGasUsed": "0xa1e0",
      "logs": [
        {
          "address": "0xa18f7bd8be9611fd8499c15e0bc6aa9c4c0ef268",
          "topics": [
            "0x84c7969632fd1575d3bbe1bef77c68cc56cd9b903a72576f5cc0004e28769328",
            "0x00000000000000000000000094c6014175b464ab11d1ad64a3f13c01130a6811",
            "0x00000000000000000000000097bf134cdf8a620aa0f10e140b89a2adaac2bbbf"
          ],
          "data": "0x0000000000000000000000000000000000000000000000000000000069c687d6",
          "blockHash": "0x19cff7ac7434aa78d4c69e559dcb35926517c7f97aff134c8356fafbc47940e8",
          "blockNumber": "0xf253a4e",
          "blockTimestamp": "0x69c687d6",
          "transactionHash": "0x94094f85645263c017f3812efae8ba2bea66bdc027b2b6c30984d7ae15ac8f38",
          "transactionIndex": "0x1",
          "logIndex": "0x0",
          "removed": false
        }
      ],
      "logsBloom": "0x00000400000000000000000000000000000000008000000000000000000000000000000000000000000000000000000000100001000008000000000000000000200000000000000000000000000000000004000000000000000000000000000000000000000000000000000000000000000000000000000000000000000000000000000000000000000000000000000000000000008000000000000000008000000000000000000000000000000000000000000000000000000000000000000000000000000010000000000000000000000000000000000000000000000000000000000000000000000000000000000000000000000000004100000000000000",
      "type": "0x2",
      "transactionHash": "0x94094f85645263c017f3812efae8ba2bea66bdc027b2b6c30984d7ae15ac8f38",
      "transactionIndex": "0x1",
      "blockHash": "0x19cff7ac7434aa78d4c69e559dcb35926517c7f97aff134c8356fafbc47940e8",
      "blockNumber": "0xf253a4e",
      "gasUsed": "0xa1e0",
      "effectiveGasPrice": "0x1314470",
      "from": "0x97bf134cdf8a620aa0f10e140b89a2adaac2bbbf",
      "to": "0xa18f7bd8be9611fd8499c15e0bc6aa9c4c0ef268",
      "contractAddress": null,
      "gasUsedForL1": "0x0",
      "l1BlockNumber": "0xa0b84a",
      "timeboosted": false
    }
  ],
  "libraries": [],
  "pending": [],
  "returns": {},
  "timestamp": 1774618580737,
  "chain": 421614,
  "commit": "5e8965c"
}