{
  "transactions": [
    {
      "hash": "0xbfc986c31915a7c0b4932d0c2e8616e115f8729f9c199daa6755304fc0e7a53e",
      "transactionType": "CALL",
      "contractName": null,
      "contractAddress": "0x9a1edfdca16212683e45fb3c285115a2668f3d10",
      "function": "mint(address,uint256)",
      "arguments": [
        "0x97BF134cDf8A620aa0F10E140b89a2aDAAC2bBbF",
        "1000000000000000000000"
      ],
      "transaction": {
        "from": "0x97bf134cdf8a620aa0f10e140b89a2adaac2bbbf",
        "to": "0x9a1edfdca16212683e45fb3c285115a2668f3d10",
        "gas": "0x15e32",
        "value": "0x0",
        "input": "0x40c10f1900000000000000000000000097bf134cdf8a620aa0f10e140b89a2adaac2bbbf00000000000000000000000000000000000000000000003635c9adc5dea00000",
        "nonce": "0x8",
        "chainId": "0x66eee"
      },
      "additionalContracts": [],
      "isFixedGasLimit": false
    },
    {
      "hash": "0x0cc0a3688fee0d3538ace7ee1d89b770f7e6f390355e5ad1eee321a806c91fde",
      "transactionType": "CALL",
      "contractName": null,
      "contractAddress": "0x5c55e9075386bb76d77bed821e209fe6cac350b6",
      "function": "mint(address,uint256)",
      "arguments": [
        "0x97BF134cDf8A620aa0F10E140b89a2aDAAC2bBbF",
        "4000000000000000000000000"
      ],
      "transaction": {
        "from": "0x97bf134cdf8a620aa0f10e140b89a2adaac2bbbf",
        "to": "0x5c55e9075386bb76d77bed821e209fe6cac350b6",
        "gas": "0x15e42",
        "value": "0x0",
        "input": "0x40c10f1900000000000000000000000097bf134cdf8a620aa0f10e140b89a2adaac2bbbf000000000000000000000000000000000000000000034f086f3b33b684000000",
        "nonce": "0x9",
        "chainId": "0x66eee"
      },
      "additionalContracts": [],
      "isFixedGasLimit": false
    },
    {
      "hash": "0xf500bc145f4cf180cc0ba1b94885333c49be4e65ebb94ac26b2d1ff88a57658d",
      "transactionType": "CALL",
      "contractName": null,
      "contractAddress": "0x280f784ff03772fbc82e20052bb0247d042a5b07",
      "function": "mint(address,uint256)",
      "arguments": [
        "0x97BF134cDf8A620aa0F10E140b89a2aDAAC2bBbF",
        "2000000000000000000000000"
      ],
      "transaction": {
        "from": "0x97bf134cdf8a620aa0f10e140b89a2adaac2bbbf",
        "to": "0x280f784ff03772fbc82e20052bb0247d042a5b07",
        "gas": "0x15e42",
        "value": "0x0",
        "input": "0x40c10f1900000000000000000000000097bf134cdf8a620aa0f10e140b89a2adaac2bbbf00000000000000000000000000000000000000000001a784379d99db42000000",
        "nonce": "0xa",
        "chainId": "0x66eee"
      },
      "additionalContracts": [],
      "isFixedGasLimit": false
    },
    {
      "hash": "0x0edaa2600a437c98561a4e6bfc8372a23c4952ee1d6c231457a646fc2b1d45b1",
      "transactionType": "CALL",
      "contractName": null,
      "contractAddress": "0x5140a037a1cd818a17ebfbf812d6fef60e8dc5a8",
      "function": "mint(address,uint256)",
      "arguments": [
        "0x97BF134cDf8A620aa0F10E140b89a2aDAAC2bBbF",
        "50000000000000000000"
      ],
      "transaction": {
        "from": "0x97bf134cdf8a620aa0f10e140b89a2adaac2bbbf",
        "to": "0x5140a037a1cd818a17ebfbf812d6fef60e8dc5a8",
        "gas": "0x15e32",
        "value": "0x0",
        "input": "0x40c10f1900000000000000000000000097bf134cdf8a620aa0f10e140b89a2adaac2bbbf000000000000000000000000000000000000000000000002b5e3af16b1880000",
        "nonce": "0xb",
        "chainId": "0x66eee"
      },
      "additionalContracts": [],
      "isFixedGasLimit": false
    },
    {
      "hash": "0xa1c49e3d4cb67bd8b325c621006bce3bbc946bdf2961746e98784671707fa5f5",
      "transactionType": "CALL",
      "contractName": null,
      "contractAddress": "0xa52079ee2000c801a1d355d51f276b0a03f86d39",
      "function": "mint(address,uint256)",
      "arguments": [
        "0x97BF134cDf8A620aa0F10E140b89a2aDAAC2bBbF",
        "1000000000000000000000000"
      ],
      "transaction": {
        "from": "0x97bf134cdf8a620aa0f10e140b89a2adaac2bbbf",
        "to": "0xa52079ee2000c801a1d355d51f276b0a03f86d39",
        "gas": "0x15e32",
        "value": "0x0",
        "input": "0x40c10f1900000000000000000000000097bf134cdf8a620aa0f10e140b89a2adaac2bbbf00000000000000000000000000000000000000000000d3c21bcecceda1000000",
        "nonce": "0xc",
        "chainId": "0x66eee"
      },
      "additionalContracts": [],
      "isFixedGasLimit": false
    },
    {
      "hash": "0x7b7cc4f6f6e7d8f5cc7d2269571ef2c9893f2a0dd5fa915667dc73832aaa55ca",
      "transactionType": "CALL",
      "contractName": null,
      "contractAddress": "0x9a1edfdca16212683e45fb3c285115a2668f3d10",
      "function": "approve(address,uint256)",
      "arguments": [
        "0xc00416cbdC7268A5Cb599382F05dE9adeE5A2EC1",
        "115792089237316195423570985008687907853269984665640564039457584007913129639935"
      ],
      "transaction": {
        "from": "0x97bf134cdf8a620aa0f10e140b89a2adaac2bbbf",
        "to": "0x9a1edfdca16212683e45fb3c285115a2668f3d10",
        "gas": "0xece6",
        "value": "0x0",
        "input": "0x095ea7b3000000000000000000000000c00416cbdc7268a5cb599382f05de9adee5a2ec1ffffffffffffffffffffffffffffffffffffffffffffffffffffffffffffffff",
        "nonce": "0xd",
        "chainId": "0x66eee"
      },
      "additionalContracts": [],
      "isFixedGasLimit": false
    },
    {
      "hash": "0x66a073698d44e4440720987bfb1503088d988acbdcedb6a709fb5f27d3aa5222",
      "transactionType": "CALL",
      "contractName": null,
      "contractAddress": "0x5c55e9075386bb76d77bed821e209fe6cac350b6",
      "function": "approve(address,uint256)",
      "arguments": [
        "0xc00416cbdC7268A5Cb599382F05dE9adeE5A2EC1",
        "115792089237316195423570985008687907853269984665640564039457584007913129639935"
      ],
      "transaction": {
        "from": "0x97bf134cdf8a620aa0f10e140b89a2adaac2bbbf",
        "to": "0x5c55e9075386bb76d77bed821e209fe6cac350b6",
        "gas": "0xece6",
        "value": "0x0",
        "input": "0x095ea7b3000000000000000000000000c00416cbdc7268a5cb599382f05de9adee5a2ec1ffffffffffffffffffffffffffffffffffffffffffffffffffffffffffffffff",
        "nonce": "0xe",
        "chainId": "0x66eee"
      },
      "additionalContracts": [],
      "isFixedGasLimit": false
    },
    {
      "hash": "0x5d4a0dc18d5600996a6c701dac9ca71b2dff6b603821ed7bb353ded7d170811b",
      "transactionType": "CALL",
      "contractName": null,
      "contractAddress": "0x280f784ff03772fbc82e20052bb0247d042a5b07",
      "function": "approve(address,uint256)",
      "arguments": [
        "0xc00416cbdC7268A5Cb599382F05dE9adeE5A2EC1",
        "115792089237316195423570985008687907853269984665640564039457584007913129639935"
      ],
      "transaction": {
        "from": "0x97bf134cdf8a620aa0f10e140b89a2adaac2bbbf",
        "to": "0x280f784ff03772fbc82e20052bb0247d042a5b07",
        "gas": "0xece6",
        "value": "0x0",
        "input": "0x095ea7b3000000000000000000000000c00416cbdc7268a5cb599382f05de9adee5a2ec1ffffffffffffffffffffffffffffffffffffffffffffffffffffffffffffffff",
        "nonce": "0xf",
        "chainId": "0x66eee"
      },
      "additionalContracts": [],
      "isFixedGasLimit": false
    },
    {
      "hash": "0xf2f39fb6c70b5f77a74a80ec2719a26556b30243deb234079f6d484bebc495d8",
      "transactionType": "CALL",
      "contractName": null,
      "contractAddress": "0x5140a037a1cd818a17ebfbf812d6fef60e8dc5a8",
      "function": "approve(address,uint256)",
      "arguments": [
        "0xc00416cbdC7268A5Cb599382F05dE9adeE5A2EC1",
        "115792089237316195423570985008687907853269984665640564039457584007913129639935"
      ],
      "transaction": {
        "from": "0x97bf134cdf8a620aa0f10e140b89a2adaac2bbbf",
        "to": "0x5140a037a1cd818a17ebfbf812d6fef60e8dc5a8",
        "gas": "0xece6",
        "value": "0x0",
        "input": "0x095ea7b3000000000000000000000000c00416cbdc7268a5cb599382f05de9adee5a2ec1ffffffffffffffffffffffffffffffffffffffffffffffffffffffffffffffff",
        "nonce": "0x10",
        "chainId": "0x66eee"
      },
      "additionalContracts": [],
      "isFixedGasLimit": false
    },
    {
      "hash": "0x3f3ff97f8f8bbe6cf51a4ee41af7bd684e7a3e40a5772c545077251d188b338f",
      "transactionType": "CALL",
      "contractName": null,
      "contractAddress": "0xa52079ee2000c801a1d355d51f276b0a03f86d39",
      "function": "approve(address,uint256)",
      "arguments": [
        "0xc00416cbdC7268A5Cb599382F05dE9adeE5A2EC1",
        "115792089237316195423570985008687907853269984665640564039457584007913129639935"
      ],
      "transaction": {
        "from": "0x97bf134cdf8a620aa0f10e140b89a2adaac2bbbf",
        "to": "0xa52079ee2000c801a1d355d51f276b0a03f86d39",
        "gas": "0xece6",
        "value": "0x0",
        "input": "0x095ea7b3000000000000000000000000c00416cbdc7268a5cb599382f05de9adee5a2ec1ffffffffffffffffffffffffffffffffffffffffffffffffffffffffffffffff",
        "nonce": "0x11",
        "chainId": "0x66eee"
      },
      "additionalContracts": [],
      "isFixedGasLimit": false
    },
    {
      "hash": "0x661ba82649a038e68e9988e1e93192b6ee74cde18942f07af9ab53112c0ac2f4",
      "transactionType": "CALL",
      "contractName": null,
      "contractAddress": "0xc00416cbdc7268a5cb599382f05de9adee5a2ec1",
      "function": "addLiquidity(address,address,uint256,uint256,uint256,uint256,address,uint256)",
      "arguments": [
        "0x9a1eDFdcA16212683E45Fb3C285115a2668F3d10",
        "0x5c55e9075386Bb76d77bed821E209fE6cac350b6",
        "100000000000000000000",
        "200000000000000000000000",
        "0",
        "0",
        "0x97BF134cDf8A620aa0F10E140b89a2aDAAC2bBbF",
        "115792089237316195423570985008687907853269984665640564039457584007913129639935"
      ],
      "transaction": {
        "from": "0x97bf134cdf8a620aa0f10e140b89a2adaac2bbbf",
        "to": "0xc00416cbdc7268a5cb599382f05de9adee5a2ec1",
        "gas": "0x2909d5",
        "value": "0x0",
        "input": "0xe8e337000000000000000000000000009a1edfdca16212683e45fb3c285115a2668f3d100000000000000000000000005c55e9075386bb76d77bed821e209fe6cac350b60000000000000000000000000000000000000000000000056bc75e2d63100000000000000000000000000000000000000000000000002a5a058fc295ed0000000000000000000000000000000000000000000000000000000000000000000000000000000000000000000000000000000000000000000000000000000000000000000000000000000000000097bf134cdf8a620aa0f10e140b89a2adaac2bbbfffffffffffffffffffffffffffffffffffffffffffffffffffffffffffffffff",
        "nonce": "0x12",
        "chainId": "0x66eee"
      },
      "additionalContracts": [
        {
          "transactionType": "CREATE",
          "contractName": "Pair",
          "address": "0x8970b9b29cd7c3d898eedfc5736541da88aab74f",
          "initCode": "0x60806040523461033d57604080519081016001600160401b038111828210176102455760409081526008825267262816aa27a5a2a760c11b602083015280519081016001600160401b0381118282101761024557604052600281526104c560f41b602082015281516001600160401b03811161024557600354600181811c91168015610333575b602082101461022757601f81116102c5575b50602092601f821160011461026457928192935f92610259575b50508160011b915f199060031b1c1916176003555b80516001600160401b03811161024557600454600181811c9116801561023b575b602082101461022757601f81116101b9575b50602091601f8211600114610159579181925f9261014e575b50508160011b915f199060031b1c1916176004555b6001600d55600580546001600160a01b03191633179055604051611a3b90816103428239f35b015190505f80610113565b601f1982169260045f52805f20915f5b8581106101a157508360019510610189575b505050811b01600455610128565b01515f1960f88460031b161c191690555f808061017b565b91926020600181928685015181550194019201610169565b818111156100fa5760045f52601f820160051c7f8a35acfbc15ff81a39ae7d344fd709f28e8600b4aa8c65c6b64bfe7fe36bd19b6020841061021f575b81601f9101920160051c03905f5b8281106102125750506100fa565b5f82820155600101610204565b5f91506101f6565b634e487b7160e01b5f52602260045260245ffd5b90607f16906100e8565b634e487b7160e01b5f52604160045260245ffd5b015190505f806100b2565b601f1982169360035f52805f20915f5b8681106102ad5750836001959610610295575b505050811b016003556100c7565b01515f1960f88460031b161c191690555f8080610287565b91926020600181928685015181550194019201610274565b818111156100985760035f52601f820160051c7fc2575a0e9e593c00f959f8c92f12db2869c3395a3b0502d05e2516446f71f85b6020841061032b575b81601f9101920160051c03905f5b82811061031e575050610098565b5f82820155600101610310565b5f9150610302565b90607f1690610086565b5f80fdfe6080806040526004361015610012575f80fd5b5f3560e01c90816306fdde0314610eaf575080630902f1ac14610e6e578063095ea7b314610dec5780630dfe168114610dc457806318160ddd14610da757806323b872dd14610cc8578063313ce56714610cad578063485cc95514610c015780635909c0d514610be45780635a3d549314610bc75780636a6278421461088c5780636d9a640a1461052a57806370a08231146104f35780637464fc3d146104d657806389afcb441461049357806395d89b411461038f578063a9059cbb1461035e578063ba9a7a5614610342578063bc25cf77146101f9578063c45a0155146101d1578063d21220a7146101a9578063dd62ed3e146101595763fff6cae914610119575f80fd5b34610155575f366003190112610155576001600d5403610146575f600d5561013f611624565b6001600d55005b63e6b179a360e01b5f5260045ffd5b5f80fd5b3461015557604036600319011261015557610172610f91565b61017a610fa7565b6001600160a01b039182165f908152600160209081526040808320949093168252928352819020549051908152f35b34610155575f366003190112610155576007546040516001600160a01b039091168152602090f35b34610155575f366003190112610155576005546040516001600160a01b039091168152602090f35b3461015557602036600319011261015557610212610f91565b6001600d5403610146575f600d556006546007546040516370a0823160e01b81523060048201526001600160a01b0391821692909116602082602481845afa9182156102ff5784905f9361030a575b5061027b610281936001600160701b036008541690610ff3565b916118c1565b6040516370a0823160e01b815230600482015291602083602481855afa9283156102ff575f936102c9575b5061027b61013f936001600160701b0360085460701c1690610ff3565b92506020833d6020116102f7575b816102e460209383610fbd565b810103126101555791519161027b6102ac565b3d91506102d7565b6040513d5f823e3d90fd5b9250506020823d60201161033a575b8161032660209383610fbd565b81010312610155579051908361027b610261565b3d9150610319565b34610155575f3660031901126101555760206040516103e88152f35b346101555760403660031901126101555761038461037a610f91565b602435903361131c565b602060405160018152f35b34610155575f366003190112610155576040515f6004548060011c90600181168015610489575b6020831081146104755782855290811561045157506001146103f3575b6103ef836103e381850382610fbd565b60405191829182610f67565b0390f35b91905060045f527f8a35acfbc15ff81a39ae7d344fd709f28e8600b4aa8c65c6b64bfe7fe36bd19b915f905b808210610437575090915081016020016103e36103d3565b91926001816020925483858801015201910190929161041f565b60ff191660208086019190915291151560051b840190910191506103e390506103d3565b634e487b7160e01b5f52602260045260245ffd5b91607f16916103b6565b34610155576020366003190112610155576104ac610f91565b6001600d5403610146576104c56040915f600d55611050565b6001600d5582519182526020820152f35b34610155575f366003190112610155576020600b54604051908152f35b34610155576020366003190112610155576001600160a01b03610514610f91565b165f525f602052602060405f2054604051908152f35b34610155576060366003190112610155576044356001600160a01b03811690602435600435838303610155576001600d5403610146575f600d556008546006546007546001600160701b03607084901c8116969316916001600160a01b03918216911684158080610884575b610875571590818061086c575b61083c578089148015610863575b61085457838611801561084b575b61083c5760249460209261082c575b878061081b575b50506040516370a0823160e01b815230600482015294859182905afa9283156102ff575f936107e6575b506020602491604051928380926370a0823160e01b82523060048301525afa9081156102ff575f916107b4575b506106378483610ff3565b8311156107ad5761065161064b8584610ff3565b84610ff3565b955b61065d8682610ff3565b8211156107a6576106776106718783610ff3565b83610ff3565b935b8715808061079e575b61078f576103e88202918083046103e8149015171561077b576003890290898204600314171561077b576106b591610ff3565b6103e88302928084046103e8149015171561077b5760038502908582046003148615171561077b576106ed6106f3926106f995610ff3565b90611000565b92611000565b906103e88202918083046103e8148115171561077b57620f424002918083046103e8149015171561077b571061076c576040519384526020840152604083015260608201527fd78ad95fa46c994b6551d0da85fc275fe613ce37657fb8d5e3d130840159d82260803392a361013f611624565b63702a418560e01b5f5260045ffd5b634e487b7160e01b5f52601160045260245ffd5b634a08a4a360e11b5f5260045ffd5b508515610682565b5f93610679565b5f95610653565b90506020813d6020116107de575b816107cf60209383610fbd565b8101031261015557518761062c565b3d91506107c2565b9092506020813d602011610813575b8161080260209383610fbd565b8101031261015557519160206105ff565b3d91506107f5565b61082591856118c1565b89876105d5565b6108378782846118c1565b6105ce565b6337d93ae160e21b5f5260045ffd5b508787116105bf565b6387db131160e01b5f5260045ffd5b508289146105b1565b508615156105a3565b63c6941f8960e01b5f5260045ffd5b508615610596565b34610155576020366003190112610155576108a5610f91565b6001600d5403610146575f600d556006546040516370a0823160e01b81523060048201529190602090839060249082906001600160a01b03165afa9182156102ff575f92610b93575b506007546040516370a0823160e01b815230600482015290602090829060249082906001600160a01b03165afa9081156102ff575f91610b61575b506001600160701b038311610b52576001600160701b038111610b52576001600160701b039261097b6008549161097586841696879460701c1693849261097084836113d3565b610ff3565b93610ff3565b9382158015610b4a575b610b3b576002549182610ac0575050506109a76109a28483611000565b6114ff565b926103e8841115610ab1576103e719840193841161077b576109d984600495946109d46103e86001611998565b6114e4565b60405191825260208201527f4c209b5fc8ad50758f13e2e1088ba56a560dff690a1c6fef26394f4c03821c4f60403392a2610a12611624565b600554604051622fcfcb60e31b81529260209184919082906001600160a01b03165afa80156102ff576020925f91610a84575b506001600160a01b0316610a61575b6001600d55604051908152f35b610a7c6008546001600160701b03808260701c169116611000565b600b55610a54565b610aa49150833d8511610aaa575b610a9c8183610fbd565b810190611031565b83610a45565b503d610a92565b632aa60fef60e11b5f5260045ffd5b8195929495158015610b33575b610b2457610ae5610aea610af193610ae58888611000565b611013565b9584611000565b928380821091180280841893145f14610b1357632aa60fef60e11b5f5260045ffd5b610b1f836004956114e4565b6109d9565b631b61bd4760e21b5f5260045ffd5b508015610acd565b6308abd71960e41b5f5260045ffd5b508415610985565b6301549ec560e21b5f5260045ffd5b90506020813d602011610b8b575b81610b7c60209383610fbd565b81010312610155575183610929565b3d9150610b6f565b9091506020813d602011610bbf575b81610baf60209383610fbd565b81010312610155575190826108ee565b3d9150610ba2565b34610155575f366003190112610155576020600a54604051908152f35b34610155575f366003190112610155576020600954604051908152f35b3461015557604036600319011261015557610c1a610f91565b610c22610fa7565b6005546001600160a01b0316330361083c57600c5491600160ff8416151514610c9e57600680546001600160a01b039283166001600160a01b031991821681179092556007805494909316931683179091558181146108545715908115610c95575b506108545760ff1916600117600c55005b90501582610c84565b63f669b6bd60e01b5f5260045ffd5b34610155575f36600319011261015557602060405160128152f35b3461015557606036600319011261015557610ce1610f91565b610ce9610fa7565b6001600160a01b0382165f818152600160209081526040808320338452909152902054909260443592915f198110610d27575b50610384935061131c565b838110610d8c578415610d79573315610d6657610384945f52600160205260405f2060018060a01b0333165f526020528360405f209103905584610d1c565b634a1406b160e11b5f525f60045260245ffd5b63e602df0560e01b5f525f60045260245ffd5b8390637dc7a0d960e11b5f523360045260245260445260645ffd5b34610155575f366003190112610155576020600254604051908152f35b34610155575f366003190112610155576006546040516001600160a01b039091168152602090f35b3461015557604036600319011261015557610e05610f91565b602435903315610d79576001600160a01b0316908115610d6657335f52600160205260405f20825f526020528060405f20556040519081527f8c5be1e5ebec7d5bd14f71427d1e84f3dd0314c0f7b2291e5b200ac8c7c3b92560203392a3602060405160018152f35b34610155575f366003190112610155576060600854604051906001600160701b03811682526001600160701b038160701c16602083015260e01c6040820152f35b34610155575f366003190112610155575f6003548060011c90600181168015610f5d575b602083108114610475578285529081156104515750600114610eff576103ef836103e381850382610fbd565b91905060035f527fc2575a0e9e593c00f959f8c92f12db2869c3395a3b0502d05e2516446f71f85b915f905b808210610f43575090915081016020016103e36103d3565b919260018160209254838588010152019101909291610f2b565b91607f1691610ed3565b602060409281835280519182918282860152018484015e5f828201840152601f01601f1916010190565b600435906001600160a01b038216820361015557565b602435906001600160a01b038216820361015557565b90601f8019910116810190811067ffffffffffffffff821117610fdf57604052565b634e487b7160e01b5f52604160045260245ffd5b9190820391821161077b57565b8181029291811591840414171561077b57565b811561101d570490565b634e487b7160e01b5f52601260045260245ffd5b9081602091031261015557516001600160a01b03811681036101555790565b90305f525f60205260405f205491821561078f5760018060a01b03600654169060018060a01b03600754166110966008546001600160701b03808260701c1691166113d3565b6040516370a0823160e01b815230600482015292602084602481845afa9384156102ff575f946112e8575b506040516370a0823160e01b815230600482015293602085602481865afa9485156102ff575f956112b4575b5060025480156112a557610ae561110b82610ae5611112958c611000565b9689611000565b958415801561129d575b1561113057634a08a4a360e11b5f5260045ffd5b301561128a57305f525f60205260405f2054818110611271579261119f86868a955f8683976111a49a3084528360205203604083205580600254036002556040519081527fddf252ad1be2c89b69c2b068fc378daa952ba7f163c4a11628f55a4df523b3ef60203092a36118c1565b6118c1565b60408051838152602081018690526001600160a01b039092169133917fdccd412f0b1252819cb1fd330b93224ca42612892bb3f4f789976e6d8193649691a36111eb611624565b600554604051622fcfcb60e31b815290602090829060049082906001600160a01b03165afa9081156102ff575f91611252575b506001600160a01b0316611230579190565b61124b6008546001600160701b03808260701c169116611000565b600b559190565b61126b915060203d602011610aaa57610a9c8183610fbd565b5f61121e565b63391434e360e21b5f523060045260245260445260645ffd5b634b637e8f60e11b5f525f60045260245ffd5b50861561111c565b63074700eb60e31b5f5260045ffd5b9094506020813d6020116112e0575b816112d060209383610fbd565b810103126101555751935f6110ed565b3d91506112c3565b9093506020813d602011611314575b8161130460209383610fbd565b810103126101555751925f6110c1565b3d91506112f7565b6001600160a01b031690811561128a576001600160a01b03169182156113b357815f525f60205260405f205481811061139a57817fddf252ad1be2c89b69c2b068fc378daa952ba7f163c4a11628f55a4df523b3ef92602092855f525f84520360405f2055845f525f825260405f20818154019055604051908152a3565b8263391434e360e21b5f5260045260245260445260645ffd5b63ec442f0560e01b5f525f60045260245ffd5b9190820180921161077b57565b600254600554604051622fcfcb60e31b81529391929190602090859060049082906001600160a01b03165afa9384156102ff575f946114c3575b506001600160a01b03841661142f5750505050600b5461142957565b5f600b55565b600b549182611440575b5050505050565b6109a261145c916001600160701b038061146295169116611000565b916114ff565b91828211611471575b80611439565b61147f906106ed8484610ff3565b9060058102908082046005149015171561077b576114a6926114a0916113c6565b90611013565b806114b3575b808061146b565b6114bc916114e4565b5f806114ac565b6114dd91945060203d602011610aaa57610a9c8183610fbd565b925f61140d565b906001600160a01b038216156113b3576114fd91611998565b565b600181111561162157806001600160801b821015611610575b600482600160401b6115c2941015611603575b6401000000008110156115f6575b620100008110156115e9575b6101008110156115dd575b60108110156115d1575b10156115c9575b60030260011c6115718184611013565b0160011c61157f8184611013565b0160011c61158d8184611013565b0160011c61159b8184611013565b0160011c6115a98184611013565b0160011c6115b78184611013565b0160011c8092611013565b8111900390565b60011b611561565b811c9160021b9161155a565b60081c91811b91611550565b60101c9160081b91611545565b60201c9160101b91611539565b60401c9160201b9161152b565b5050608081901c600160401b611518565b90565b6006546040516370a0823160e01b815230600482015290602090829060249082906001600160a01b03165afa9081156102ff575f9161188f575b506007546040516370a0823160e01b815230600482015290602090829060249082906001600160a01b03165afa9081156102ff575f9161185d575b506001600160701b038211610b52576001600160701b038111610b52576008548060e01c63ffffffff42160363ffffffff811161077b5763ffffffff168015158061184b575b80611836575b61175c575b5050607090811b6dffffffffffffffffffffffffffff60701b166001600160701b039283169081174260e01b6001600160e01b03191617600881905560408051928352921c90921660208301527f1c411e9a96e071241c2f21f7726b17ae89e3cab4c78be50e062b03a9fffbbad191a1565b6001600160701b038260709493941c1693670de0b6b3a7640000850293858504670de0b6b3a7640000148615171561077b576001600160701b036117a291168095611013565b90670de0b6b3a7640000850294808604670de0b6b3a7640000149015171561077b57611828611820846001600160701b039594611818611810889761180a7f1c411e9a96e071241c2f21f7726b17ae89e3cab4c78be50e062b03a9fffbbad19d60409d611013565b93611000565b6009546113c6565b600955611000565b600a546113c6565b600a559450508192506116ea565b506001600160701b038260701c1615156116e5565b506001600160701b03821615156116df565b90506020813d602011611887575b8161187860209383610fbd565b8101031261015557515f611699565b3d915061186b565b90506020813d6020116118b9575b816118aa60209383610fbd565b8101031261015557515f61165e565b3d915061189d565b5f929183809360405190602082019363a9059cbb60e01b855260018060a01b031660248301526044820152604481526118fb606482610fbd565b51925af13d15611990573d9067ffffffffffffffff8211610fdf576040519161192e601f8201601f191660200184610fbd565b82523d5f602084013e5b15908115611957575b5061194857565b630df759e760e31b5f5260045ffd5b805180151592508261196c575b50505f611941565b81925090602091810103126101555760200151801590811503610155575f80611964565b606090611938565b7fddf252ad1be2c89b69c2b068fc378daa952ba7f163c4a11628f55a4df523b3ef60205f926119c9856002546113c6565b6002556001600160a01b031693841584146119f05780600254036002555b604051908152a3565b848452838252604084208181540190556119e756fea26469706673582212201c74248d3a6b2bb806459ff72333fd72d500bc06a3f8a5ab2ea083c25af0898a64736f6c63430008210033"
        }
      ],
      "isFixedGasLimit": false
    },
    {
      "hash": "0x9e7c1afb2552a8483b8056610c5ffa48140234e9c3db3d7d82fa1ea00ef8838d",
      "transactionType": "CALL",
      "contractName": null,
      "contractAddress": "0xc00416cbdc7268a5cb599382f05de9adee5a2ec1",
      "function": "addLiquidity(address,address,uint256,uint256,uint256,uint256,address,uint256)",
      "arguments": [
        "0x9a1eDFdcA16212683E45Fb3C285115a2668F3d10",
        "0x280F784ff03772fBc82E20052bb0247d042a5b07",
        "100000000000000000000",
        "200000000000000000000000",
        "0",
        "0",
        "0x97BF134cDf8A620aa0F10E140b89a2aDAAC2bBbF",
        "115792089237316195423570985008687907853269984665640564039457584007913129639935"
      ],
      "transaction": {
        "from": "0x97bf134cdf8a620aa0f10e140b89a2adaac2bbbf",
        "to": "0xc00416cbdc7268a5cb599382f05de9adee5a2ec1",
        "gas": "0x2665e8",
        "value": "0x0",
        "input": "0xe8e337000000000000000000000000009a1edfdca16212683e45fb3c285115a2668f3d10000000000000000000000000280f784ff03772fbc82e20052bb0247d042a5b070000000000000000000000000000000000000000000000056bc75e2d63100000000000000000000000000000000000000000000000002a5a058fc295ed0000000000000000000000000000000000000000000000000000000000000000000000000000000000000000000000000000000000000000000000000000000000000000000000000000000000000097bf134cdf8a620aa0f10e140b89a2adaac2bbbfffffffffffffffffffffffffffffffffffffffffffffffffffffffffffffffff",
        "nonce": "0x13",
        "chainId": "0x66eee"
      },
      "additionalContracts": [
        {
          "transactionType": "CREATE",
          "contractName": "Pair",
          "address": "0x7bb090b690ce5b4cb5e6ebcbb98fc5d77124082f",
          "initCode": "0x60806040523461033d57604080519081016001600160401b038111828210176102455760409081526008825267262816aa27a5a2a760c11b602083015280519081016001600160401b0381118282101761024557604052600281526104c560f41b602082015281516001600160401b03811161024557600354600181811c91168015610333575b602082101461022757601f81116102c5575b50602092601f821160011461026457928192935f92610259575b50508160011b915f199060031b1c1916176003555b80516001600160401b03811161024557600454600181811c9116801561023b575b602082101461022757601f81116101b9575b50602091601f8211600114610159579181925f9261014e575b50508160011b915f199060031b1c1916176004555b6001600d55600580546001600160a01b03191633179055604051611a3b90816103428239f35b015190505f80610113565b601f1982169260045f52805f20915f5b8581106101a157508360019510610189575b505050811b01600455610128565b01515f1960f88460031b161c191690555f808061017b565b91926020600181928685015181550194019201610169565b818111156100fa5760045f52601f820160051c7f8a35acfbc15ff81a39ae7d344fd709f28e8600b4aa8c65c6b64bfe7fe36bd19b6020841061021f575b81601f9101920160051c03905f5b8281106102125750506100fa565b5f82820155600101610204565b5f91506101f6565b634e487b7160e01b5f52602260045260245ffd5b90607f16906100e8565b634e487b7160e01b5f52604160045260245ffd5b015190505f806100b2565b601f1982169360035f52805f20915f5b8681106102ad5750836001959610610295575b505050811b016003556100c7565b01515f1960f88460031b161c191690555f8080610287565b91926020600181928685015181550194019201610274565b818111156100985760035f52601f820160051c7fc2575a0e9e593c00f959f8c92f12db2869c3395a3b0502d05e2516446f71f85b6020841061032b575b81601f9101920160051c03905f5b82811061031e575050610098565b5f82820155600101610310565b5f9150610302565b90607f1690610086565b5f80fdfe6080806040526004361015610012575f80fd5b5f3560e01c90816306fdde0314610eaf575080630902f1ac14610e6e578063095ea7b314610dec5780630dfe168114610dc457806318160ddd14610da757806323b872dd14610cc8578063313ce56714610cad578063485cc95514610c015780635909c0d514610be45780635a3d549314610bc75780636a6278421461088c5780636d9a640a1461052a57806370a08231146104f35780637464fc3d146104d657806389afcb441461049357806395d89b411461038f578063a9059cbb1461035e578063ba9a7a5614610342578063bc25cf77146101f9578063c45a0155146101d1578063d21220a7146101a9578063dd62ed3e146101595763fff6cae914610119575f80fd5b34610155575f366003190112610155576001600d5403610146575f600d5561013f611624565b6001600d55005b63e6b179a360e01b5f5260045ffd5b5f80fd5b3461015557604036600319011261015557610172610f91565b61017a610fa7565b6001600160a01b039182165f908152600160209081526040808320949093168252928352819020549051908152f35b34610155575f366003190112610155576007546040516001600160a01b039091168152602090f35b34610155575f366003190112610155576005546040516001600160a01b039091168152602090f35b3461015557602036600319011261015557610212610f91565b6001600d5403610146575f600d556006546007546040516370a0823160e01b81523060048201526001600160a01b0391821692909116602082602481845afa9182156102ff5784905f9361030a575b5061027b610281936001600160701b036008541690610ff3565b916118c1565b6040516370a0823160e01b815230600482015291602083602481855afa9283156102ff575f936102c9575b5061027b61013f936001600160701b0360085460701c1690610ff3565b92506020833d6020116102f7575b816102e460209383610fbd565b810103126101555791519161027b6102ac565b3d91506102d7565b6040513d5f823e3d90fd5b9250506020823d60201161033a575b8161032660209383610fbd565b81010312610155579051908361027b610261565b3d9150610319565b34610155575f3660031901126101555760206040516103e88152f35b346101555760403660031901126101555761038461037a610f91565b602435903361131c565b602060405160018152f35b34610155575f366003190112610155576040515f6004548060011c90600181168015610489575b6020831081146104755782855290811561045157506001146103f3575b6103ef836103e381850382610fbd565b60405191829182610f67565b0390f35b91905060045f527f8a35acfbc15ff81a39ae7d344fd709f28e8600b4aa8c65c6b64bfe7fe36bd19b915f905b808210610437575090915081016020016103e36103d3565b91926001816020925483858801015201910190929161041f565b60ff191660208086019190915291151560051b840190910191506103e390506103d3565b634e487b7160e01b5f52602260045260245ffd5b91607f16916103b6565b34610155576020366003190112610155576104ac610f91565b6001600d5403610146576104c56040915f600d55611050565b6001600d5582519182526020820152f35b34610155575f366003190112610155576020600b54604051908152f35b34610155576020366003190112610155576001600160a01b03610514610f91565b165f525f602052602060405f2054604051908152f35b34610155576060366003190112610155576044356001600160a01b03811690602435600435838303610155576001600d5403610146575f600d556008546006546007546001600160701b03607084901c8116969316916001600160a01b03918216911684158080610884575b610875571590818061086c575b61083c578089148015610863575b61085457838611801561084b575b61083c5760249460209261082c575b878061081b575b50506040516370a0823160e01b815230600482015294859182905afa9283156102ff575f936107e6575b506020602491604051928380926370a0823160e01b82523060048301525afa9081156102ff575f916107b4575b506106378483610ff3565b8311156107ad5761065161064b8584610ff3565b84610ff3565b955b61065d8682610ff3565b8211156107a6576106776106718783610ff3565b83610ff3565b935b8715808061079e575b61078f576103e88202918083046103e8149015171561077b576003890290898204600314171561077b576106b591610ff3565b6103e88302928084046103e8149015171561077b5760038502908582046003148615171561077b576106ed6106f3926106f995610ff3565b90611000565b92611000565b906103e88202918083046103e8148115171561077b57620f424002918083046103e8149015171561077b571061076c576040519384526020840152604083015260608201527fd78ad95fa46c994b6551d0da85fc275fe613ce37657fb8d5e3d130840159d82260803392a361013f611624565b63702a418560e01b5f5260045ffd5b634e487b7160e01b5f52601160045260245ffd5b634a08a4a360e11b5f5260045ffd5b508515610682565b5f93610679565b5f95610653565b90506020813d6020116107de575b816107cf60209383610fbd565b8101031261015557518761062c565b3d91506107c2565b9092506020813d602011610813575b8161080260209383610fbd565b8101031261015557519160206105ff565b3d91506107f5565b61082591856118c1565b89876105d5565b6108378782846118c1565b6105ce565b6337d93ae160e21b5f5260045ffd5b508787116105bf565b6387db131160e01b5f5260045ffd5b508289146105b1565b508615156105a3565b63c6941f8960e01b5f5260045ffd5b508615610596565b34610155576020366003190112610155576108a5610f91565b6001600d5403610146575f600d556006546040516370a0823160e01b81523060048201529190602090839060249082906001600160a01b03165afa9182156102ff575f92610b93575b506007546040516370a0823160e01b815230600482015290602090829060249082906001600160a01b03165afa9081156102ff575f91610b61575b506001600160701b038311610b52576001600160701b038111610b52576001600160701b039261097b6008549161097586841696879460701c1693849261097084836113d3565b610ff3565b93610ff3565b9382158015610b4a575b610b3b576002549182610ac0575050506109a76109a28483611000565b6114ff565b926103e8841115610ab1576103e719840193841161077b576109d984600495946109d46103e86001611998565b6114e4565b60405191825260208201527f4c209b5fc8ad50758f13e2e1088ba56a560dff690a1c6fef26394f4c03821c4f60403392a2610a12611624565b600554604051622fcfcb60e31b81529260209184919082906001600160a01b03165afa80156102ff576020925f91610a84575b506001600160a01b0316610a61575b6001600d55604051908152f35b610a7c6008546001600160701b03808260701c169116611000565b600b55610a54565b610aa49150833d8511610aaa575b610a9c8183610fbd565b810190611031565b83610a45565b503d610a92565b632aa60fef60e11b5f5260045ffd5b8195929495158015610b33575b610b2457610ae5610aea610af193610ae58888611000565b611013565b9584611000565b928380821091180280841893145f14610b1357632aa60fef60e11b5f5260045ffd5b610b1f836004956114e4565b6109d9565b631b61bd4760e21b5f5260045ffd5b508015610acd565b6308abd71960e41b5f5260045ffd5b508415610985565b6301549ec560e21b5f5260045ffd5b90506020813d602011610b8b575b81610b7c60209383610fbd565b81010312610155575183610929565b3d9150610b6f565b9091506020813d602011610bbf575b81610baf60209383610fbd565b81010312610155575190826108ee565b3d9150610ba2565b34610155575f366003190112610155576020600a54604051908152f35b34610155575f366003190112610155576020600954604051908152f35b3461015557604036600319011261015557610c1a610f91565b610c22610fa7565b6005546001600160a01b0316330361083c57600c5491600160ff8416151514610c9e57600680546001600160a01b039283166001600160a01b031991821681179092556007805494909316931683179091558181146108545715908115610c95575b506108545760ff1916600117600c55005b90501582610c84565b63f669b6bd60e01b5f5260045ffd5b34610155575f36600319011261015557602060405160128152f35b3461015557606036600319011261015557610ce1610f91565b610ce9610fa7565b6001600160a01b0382165f818152600160209081526040808320338452909152902054909260443592915f198110610d27575b50610384935061131c565b838110610d8c578415610d79573315610d6657610384945f52600160205260405f2060018060a01b0333165f526020528360405f209103905584610d1c565b634a1406b160e11b5f525f60045260245ffd5b63e602df0560e01b5f525f60045260245ffd5b8390637dc7a0d960e11b5f523360045260245260445260645ffd5b34610155575f366003190112610155576020600254604051908152f35b34610155575f366003190112610155576006546040516001600160a01b039091168152602090f35b3461015557604036600319011261015557610e05610f91565b602435903315610d79576001600160a01b0316908115610d6657335f52600160205260405f20825f526020528060405f20556040519081527f8c5be1e5ebec7d5bd14f71427d1e84f3dd0314c0f7b2291e5b200ac8c7c3b92560203392a3602060405160018152f35b34610155575f366003190112610155576060600854604051906001600160701b03811682526001600160701b038160701c16602083015260e01c6040820152f35b34610155575f366003190112610155575f6003548060011c90600181168015610f5d575b602083108114610475578285529081156104515750600114610eff576103ef836103e381850382610fbd565b91905060035f527fc2575a0e9e593c00f959f8c92f12db2869c3395a3b0502d05e2516446f71f85b915f905b808210610f43575090915081016020016103e36103d3565b919260018160209254838588010152019101909291610f2b565b91607f1691610ed3565b602060409281835280519182918282860152018484015e5f828201840152601f01601f1916010190565b600435906001600160a01b038216820361015557565b602435906001600160a01b038216820361015557565b90601f8019910116810190811067ffffffffffffffff821117610fdf57604052565b634e487b7160e01b5f52604160045260245ffd5b9190820391821161077b57565b8181029291811591840414171561077b57565b811561101d570490565b634e487b7160e01b5f52601260045260245ffd5b9081602091031261015557516001600160a01b03811681036101555790565b90305f525f60205260405f205491821561078f5760018060a01b03600654169060018060a01b03600754166110966008546001600160701b03808260701c1691166113d3565b6040516370a0823160e01b815230600482015292602084602481845afa9384156102ff575f946112e8575b506040516370a0823160e01b815230600482015293602085602481865afa9485156102ff575f956112b4575b5060025480156112a557610ae561110b82610ae5611112958c611000565b9689611000565b958415801561129d575b1561113057634a08a4a360e11b5f5260045ffd5b301561128a57305f525f60205260405f2054818110611271579261119f86868a955f8683976111a49a3084528360205203604083205580600254036002556040519081527fddf252ad1be2c89b69c2b068fc378daa952ba7f163c4a11628f55a4df523b3ef60203092a36118c1565b6118c1565b60408051838152602081018690526001600160a01b039092169133917fdccd412f0b1252819cb1fd330b93224ca42612892bb3f4f789976e6d8193649691a36111eb611624565b600554604051622fcfcb60e31b815290602090829060049082906001600160a01b03165afa9081156102ff575f91611252575b506001600160a01b0316611230579190565b61124b6008546001600160701b03808260701c169116611000565b600b559190565b61126b915060203d602011610aaa57610a9c8183610fbd565b5f61121e565b63391434e360e21b5f523060045260245260445260645ffd5b634b637e8f60e11b5f525f60045260245ffd5b50861561111c565b63074700eb60e31b5f5260045ffd5b9094506020813d6020116112e0575b816112d060209383610fbd565b810103126101555751935f6110ed565b3d91506112c3565b9093506020813d602011611314575b8161130460209383610fbd565b810103126101555751925f6110c1565b3d91506112f7565b6001600160a01b031690811561128a576001600160a01b03169182156113b357815f525f60205260405f205481811061139a57817fddf252ad1be2c89b69c2b068fc378daa952ba7f163c4a11628f55a4df523b3ef92602092855f525f84520360405f2055845f525f825260405f20818154019055604051908152a3565b8263391434e360e21b5f5260045260245260445260645ffd5b63ec442f0560e01b5f525f60045260245ffd5b9190820180921161077b57565b600254600554604051622fcfcb60e31b81529391929190602090859060049082906001600160a01b03165afa9384156102ff575f946114c3575b506001600160a01b03841661142f5750505050600b5461142957565b5f600b55565b600b549182611440575b5050505050565b6109a261145c916001600160701b038061146295169116611000565b916114ff565b91828211611471575b80611439565b61147f906106ed8484610ff3565b9060058102908082046005149015171561077b576114a6926114a0916113c6565b90611013565b806114b3575b808061146b565b6114bc916114e4565b5f806114ac565b6114dd91945060203d602011610aaa57610a9c8183610fbd565b925f61140d565b906001600160a01b038216156113b3576114fd91611998565b565b600181111561162157806001600160801b821015611610575b600482600160401b6115c2941015611603575b6401000000008110156115f6575b620100008110156115e9575b6101008110156115dd575b60108110156115d1575b10156115c9575b60030260011c6115718184611013565b0160011c61157f8184611013565b0160011c61158d8184611013565b0160011c61159b8184611013565b0160011c6115a98184611013565b0160011c6115b78184611013565b0160011c8092611013565b8111900390565b60011b611561565b811c9160021b9161155a565b60081c91811b91611550565b60101c9160081b91611545565b60201c9160101b91611539565b60401c9160201b9161152b565b5050608081901c600160401b611518565b90565b6006546040516370a0823160e01b815230600482015290602090829060249082906001600160a01b03165afa9081156102ff575f9161188f575b506007546040516370a0823160e01b815230600482015290602090829060249082906001600160a01b03165afa9081156102ff575f9161185d575b506001600160701b038211610b52576001600160701b038111610b52576008548060e01c63ffffffff42160363ffffffff811161077b5763ffffffff168015158061184b575b80611836575b61175c575b5050607090811b6dffffffffffffffffffffffffffff60701b166001600160701b039283169081174260e01b6001600160e01b03191617600881905560408051928352921c90921660208301527f1c411e9a96e071241c2f21f7726b17ae89e3cab4c78be50e062b03a9fffbbad191a1565b6001600160701b038260709493941c1693670de0b6b3a7640000850293858504670de0b6b3a7640000148615171561077b576001600160701b036117a291168095611013565b90670de0b6b3a7640000850294808604670de0b6b3a7640000149015171561077b57611828611820846001600160701b039594611818611810889761180a7f1c411e9a96e071241c2f21f7726b17ae89e3cab4c78be50e062b03a9fffbbad19d60409d611013565b93611000565b6009546113c6565b600955611000565b600a546113c6565b600a559450508192506116ea565b506001600160701b038260701c1615156116e5565b506001600160701b03821615156116df565b90506020813d602011611887575b8161187860209383610fbd565b8101031261015557515f611699565b3d915061186b565b90506020813d6020116118b9575b816118aa60209383610fbd565b8101031261015557515f61165e565b3d915061189d565b5f929183809360405190602082019363a9059cbb60e01b855260018060a01b031660248301526044820152604481526118fb606482610fbd565b51925af13d15611990573d9067ffffffffffffffff8211610fdf576040519161192e601f8201601f191660200184610fbd565b82523d5f602084013e5b15908115611957575b5061194857565b630df759e760e31b5f5260045ffd5b805180151592508261196c575b50505f611941565b81925090602091810103126101555760200151801590811503610155575f80611964565b606090611938565b7fddf252ad1be2c89b69c2b068fc378daa952ba7f163c4a11628f55a4df523b3ef60205f926119c9856002546113c6565b6002556001600160a01b031693841584146119f05780600254036002555b604051908152a3565b848452838252604084208181540190556119e756fea26469706673582212201c74248d3a6b2bb806459ff72333fd72d500bc06a3f8a5ab2ea083c25af0898a64736f6c63430008210033"
        }
      ],
      "isFixedGasLimit": false
    },
    {
      "hash": "0x15331768db5db19c14a1435eed831e2c383d32a02a9462ae90cdad1a63db7037",
      "transactionType": "CALL",
      "contractName": null,
      "contractAddress": "0xc00416cbdc7268a5cb599382f05de9adee5a2ec1",
      "function": "addLiquidity(address,address,uint256,uint256,uint256,uint256,address,uint256)",
      "arguments": [
        "0x5140a037A1cD818a17ebFbF812D6fEf60e8dc5a8",
        "0x5c55e9075386Bb76d77bed821E209fE6cac350b6",
        "10000000000000000000",
        "600000000000000000000000",
        "0",
        "0",
        "0x97BF134cDf8A620aa0F10E140b89a2aDAAC2bBbF",
        "115792089237316195423570985008687907853269984665640564039457584007913129639935"
      ],
      "transaction": {
        "from": "0x97bf134cdf8a620aa0f10e140b89a2adaac2bbbf",
        "to": "0xc00416cbdc7268a5cb599382f05de9adee5a2ec1",
        "gas": "0x2665af",
        "value": "0x0",
        "input": "0xe8e337000000000000000000000000005140a037a1cd818a17ebfbf812d6fef60e8dc5a80000000000000000000000005c55e9075386bb76d77bed821e209fe6cac350b60000000000000000000000000000000000000000000000008ac7230489e80000000000000000000000000000000000000000000000007f0e10af47c1c70000000000000000000000000000000000000000000000000000000000000000000000000000000000000000000000000000000000000000000000000000000000000000000000000000000000000097bf134cdf8a620aa0f10e140b89a2adaac2bbbfffffffffffffffffffffffffffffffffffffffffffffffffffffffffffffffff",
        "nonce": "0x14",
        "chainId": "0x66eee"
      },
      "additionalContracts": [
        {
          "transactionType": "CREATE",
          "contractName": "Pair",
          "address": "0xd8f7c5ceceebffc092928f0265a14f395f8b4f77",
          "initCode": "0x60806040523461033d57604080519081016001600160401b038111828210176102455760409081526008825267262816aa27a5a2a760c11b602083015280519081016001600160401b0381118282101761024557604052600281526104c560f41b602082015281516001600160401b03811161024557600354600181811c91168015610333575b602082101461022757601f81116102c5575b50602092601f821160011461026457928192935f92610259575b50508160011b915f199060031b1c1916176003555b80516001600160401b03811161024557600454600181811c9116801561023b575b602082101461022757601f81116101b9575b50602091601f8211600114610159579181925f9261014e575b50508160011b915f199060031b1c1916176004555b6001600d55600580546001600160a01b03191633179055604051611a3b90816103428239f35b015190505f80610113565b601f1982169260045f52805f20915f5b8581106101a157508360019510610189575b505050811b01600455610128565b01515f1960f88460031b161c191690555f808061017b565b91926020600181928685015181550194019201610169565b818111156100fa5760045f52601f820160051c7f8a35acfbc15ff81a39ae7d344fd709f28e8600b4aa8c65c6b64bfe7fe36bd19b6020841061021f575b81601f9101920160051c03905f5b8281106102125750506100fa565b5f82820155600101610204565b5f91506101f6565b634e487b7160e01b5f52602260045260245ffd5b90607f16906100e8565b634e487b7160e01b5f52604160045260245ffd5b015190505f806100b2565b601f1982169360035f52805f20915f5b8681106102ad5750836001959610610295575b505050811b016003556100c7565b01515f1960f88460031b161c191690555f8080610287565b91926020600181928685015181550194019201610274565b818111156100985760035f52601f820160051c7fc2575a0e9e593c00f959f8c92f12db2869c3395a3b0502d05e2516446f71f85b6020841061032b575b81601f9101920160051c03905f5b82811061031e575050610098565b5f82820155600101610310565b5f9150610302565b90607f1690610086565b5f80fdfe6080806040526004361015610012575f80fd5b5f3560e01c90816306fdde0314610eaf575080630902f1ac14610e6e578063095ea7b314610dec5780630dfe168114610dc457806318160ddd14610da757806323b872dd14610cc8578063313ce56714610cad578063485cc95514610c015780635909c0d514610be45780635a3d549314610bc75780636a6278421461088c5780636d9a640a1461052a57806370a08231146104f35780637464fc3d146104d657806389afcb441461049357806395d89b411461038f578063a9059cbb1461035e578063ba9a7a5614610342578063bc25cf77146101f9578063c45a0155146101d1578063d21220a7146101a9578063dd62ed3e146101595763fff6cae914610119575f80fd5b34610155575f366003190112610155576001600d5403610146575f600d5561013f611624565b6001600d55005b63e6b179a360e01b5f5260045ffd5b5f80fd5b3461015557604036600319011261015557610172610f91565b61017a610fa7565b6001600160a01b039182165f908152600160209081526040808320949093168252928352819020549051908152f35b34610155575f366003190112610155576007546040516001600160a01b039091168152602090f35b34610155575f366003190112610155576005546040516001600160a01b039091168152602090f35b3461015557602036600319011261015557610212610f91565b6001600d5403610146575f600d556006546007546040516370a0823160e01b81523060048201526001600160a01b0391821692909116602082602481845afa9182156102ff5784905f9361030a575b5061027b610281936001600160701b036008541690610ff3565b916118c1565b6040516370a0823160e01b815230600482015291602083602481855afa9283156102ff575f936102c9575b5061027b61013f936001600160701b0360085460701c1690610ff3565b92506020833d6020116102f7575b816102e460209383610fbd565b810103126101555791519161027b6102ac565b3d91506102d7565b6040513d5f823e3d90fd5b9250506020823d60201161033a575b8161032660209383610fbd565b81010312610155579051908361027b610261565b3d9150610319565b34610155575f3660031901126101555760206040516103e88152f35b346101555760403660031901126101555761038461037a610f91565b602435903361131c565b602060405160018152f35b34610155575f366003190112610155576040515f6004548060011c90600181168015610489575b6020831081146104755782855290811561045157506001146103f3575b6103ef836103e381850382610fbd565b60405191829182610f67565b0390f35b91905060045f527f8a35acfbc15ff81a39ae7d344fd709f28e8600b4aa8c65c6b64bfe7fe36bd19b915f905b808210610437575090915081016020016103e36103d3565b91926001816020925483858801015201910190929161041f565b60ff191660208086019190915291151560051b840190910191506103e390506103d3565b634e487b7160e01b5f52602260045260245ffd5b91607f16916103b6565b34610155576020366003190112610155576104ac610f91565b6001600d5403610146576104c56040915f600d55611050565b6001600d5582519182526020820152f35b34610155575f366003190112610155576020600b54604051908152f35b34610155576020366003190112610155576001600160a01b03610514610f91565b165f525f602052602060405f2054604051908152f35b34610155576060366003190112610155576044356001600160a01b03811690602435600435838303610155576001600d5403610146575f600d556008546006546007546001600160701b03607084901c8116969316916001600160a01b03918216911684158080610884575b610875571590818061086c575b61083c578089148015610863575b61085457838611801561084b575b61083c5760249460209261082c575b878061081b575b50506040516370a0823160e01b815230600482015294859182905afa9283156102ff575f936107e6575b506020602491604051928380926370a0823160e01b82523060048301525afa9081156102ff575f916107b4575b506106378483610ff3565b8311156107ad5761065161064b8584610ff3565b84610ff3565b955b61065d8682610ff3565b8211156107a6576106776106718783610ff3565b83610ff3565b935b8715808061079e575b61078f576103e88202918083046103e8149015171561077b576003890290898204600314171561077b576106b591610ff3565b6103e88302928084046103e8149015171561077b5760038502908582046003148615171561077b576106ed6106f3926106f995610ff3565b90611000565b92611000565b906103e88202918083046103e8148115171561077b57620f424002918083046103e8149015171561077b571061076c576040519384526020840152604083015260608201527fd78ad95fa46c994b6551d0da85fc275fe613ce37657fb8d5e3d130840159d82260803392a361013f611624565b63702a418560e01b5f5260045ffd5b634e487b7160e01b5f52601160045260245ffd5b634a08a4a360e11b5f5260045ffd5b508515610682565b5f93610679565b5f95610653565b90506020813d6020116107de575b816107cf60209383610fbd565b8101031261015557518761062c565b3d91506107c2565b9092506020813d602011610813575b8161080260209383610fbd565b8101031261015557519160206105ff565b3d91506107f5565b61082591856118c1565b89876105d5565b6108378782846118c1565b6105ce565b6337d93ae160e21b5f5260045ffd5b508787116105bf565b6387db131160e01b5f5260045ffd5b508289146105b1565b508615156105a3565b63c6941f8960e01b5f5260045ffd5b508615610596565b34610155576020366003190112610155576108a5610f91565b6001600d5403610146575f600d556006546040516370a0823160e01b81523060048201529190602090839060249082906001600160a01b03165afa9182156102ff575f92610b93575b506007546040516370a0823160e01b815230600482015290602090829060249082906001600160a01b03165afa9081156102ff575f91610b61575b506001600160701b038311610b52576001600160701b038111610b52576001600160701b039261097b6008549161097586841696879460701c1693849261097084836113d3565b610ff3565b93610ff3565b9382158015610b4a575b610b3b576002549182610ac0575050506109a76109a28483611000565b6114ff565b926103e8841115610ab1576103e719840193841161077b576109d984600495946109d46103e86001611998565b6114e4565b60405191825260208201527f4c209b5fc8ad50758f13e2e1088ba56a560dff690a1c6fef26394f4c03821c4f60403392a2610a12611624565b600554604051622fcfcb60e31b81529260209184919082906001600160a01b03165afa80156102ff576020925f91610a84575b506001600160a01b0316610a61575b6001600d55604051908152f35b610a7c6008546001600160701b03808260701c169116611000565b600b55610a54565b610aa49150833d8511610aaa575b610a9c8183610fbd565b810190611031565b83610a45565b503d610a92565b632aa60fef60e11b5f5260045ffd5b8195929495158015610b33575b610b2457610ae5610aea610af193610ae58888611000565b611013565b9584611000565b928380821091180280841893145f14610b1357632aa60fef60e11b5f5260045ffd5b610b1f836004956114e4565b6109d9565b631b61bd4760e21b5f5260045ffd5b508015610acd565b6308abd71960e41b5f5260045ffd5b508415610985565b6301549ec560e21b5f5260045ffd5b90506020813d602011610b8b575b81610b7c60209383610fbd565b81010312610155575183610929565b3d9150610b6f565b9091506020813d602011610bbf575b81610baf60209383610fbd565b81010312610155575190826108ee565b3d9150610ba2565b34610155575f366003190112610155576020600a54604051908152f35b34610155575f366003190112610155576020600954604051908152f35b3461015557604036600319011261015557610c1a610f91565b610c22610fa7565b6005546001600160a01b0316330361083c57600c5491600160ff8416151514610c9e57600680546001600160a01b039283166001600160a01b031991821681179092556007805494909316931683179091558181146108545715908115610c95575b506108545760ff1916600117600c55005b90501582610c84565b63f669b6bd60e01b5f5260045ffd5b34610155575f36600319011261015557602060405160128152f35b3461015557606036600319011261015557610ce1610f91565b610ce9610fa7565b6001600160a01b0382165f818152600160209081526040808320338452909152902054909260443592915f198110610d27575b50610384935061131c565b838110610d8c578415610d79573315610d6657610384945f52600160205260405f2060018060a01b0333165f526020528360405f209103905584610d1c565b634a1406b160e11b5f525f60045260245ffd5b63e602df0560e01b5f525f60045260245ffd5b8390637dc7a0d960e11b5f523360045260245260445260645ffd5b34610155575f366003190112610155576020600254604051908152f35b34610155575f366003190112610155576006546040516001600160a01b039091168152602090f35b3461015557604036600319011261015557610e05610f91565b602435903315610d79576001600160a01b0316908115610d6657335f52600160205260405f20825f526020528060405f20556040519081527f8c5be1e5ebec7d5bd14f71427d1e84f3dd0314c0f7b2291e5b200ac8c7c3b92560203392a3602060405160018152f35b34610155575f366003190112610155576060600854604051906001600160701b03811682526001600160701b038160701c16602083015260e01c6040820152f35b34610155575f366003190112610155575f6003548060011c90600181168015610f5d575b602083108114610475578285529081156104515750600114610eff576103ef836103e381850382610fbd565b91905060035f527fc2575a0e9e593c00f959f8c92f12db2869c3395a3b0502d05e2516446f71f85b915f905b808210610f43575090915081016020016103e36103d3565b919260018160209254838588010152019101909291610f2b565b91607f1691610ed3565b602060409281835280519182918282860152018484015e5f828201840152601f01601f1916010190565b600435906001600160a01b038216820361015557565b602435906001600160a01b038216820361015557565b90601f8019910116810190811067ffffffffffffffff821117610fdf57604052565b634e487b7160e01b5f52604160045260245ffd5b9190820391821161077b57565b8181029291811591840414171561077b57565b811561101d570490565b634e487b7160e01b5f52601260045260245ffd5b9081602091031261015557516001600160a01b03811681036101555790565b90305f525f60205260405f205491821561078f5760018060a01b03600654169060018060a01b03600754166110966008546001600160701b03808260701c1691166113d3565b6040516370a0823160e01b815230600482015292602084602481845afa9384156102ff575f946112e8575b506040516370a0823160e01b815230600482015293602085602481865afa9485156102ff575f956112b4575b5060025480156112a557610ae561110b82610ae5611112958c611000565b9689611000565b958415801561129d575b1561113057634a08a4a360e11b5f5260045ffd5b301561128a57305f525f60205260405f2054818110611271579261119f86868a955f8683976111a49a3084528360205203604083205580600254036002556040519081527fddf252ad1be2c89b69c2b068fc378daa952ba7f163c4a11628f55a4df523b3ef60203092a36118c1565b6118c1565b60408051838152602081018690526001600160a01b039092169133917fdccd412f0b1252819cb1fd330b93224ca42612892bb3f4f789976e6d8193649691a36111eb611624565b600554604051622fcfcb60e31b815290602090829060049082906001600160a01b03165afa9081156102ff575f91611252575b506001600160a01b0316611230579190565b61124b6008546001600160701b03808260701c169116611000565b600b559190565b61126b915060203d602011610aaa57610a9c8183610fbd565b5f61121e565b63391434e360e21b5f523060045260245260445260645ffd5b634b637e8f60e11b5f525f60045260245ffd5b50861561111c565b63074700eb60e31b5f5260045ffd5b9094506020813d6020116112e0575b816112d060209383610fbd565b810103126101555751935f6110ed565b3d91506112c3565b9093506020813d602011611314575b8161130460209383610fbd565b810103126101555751925f6110c1565b3d91506112f7565b6001600160a01b031690811561128a576001600160a01b03169182156113b357815f525f60205260405f205481811061139a57817fddf252ad1be2c89b69c2b068fc378daa952ba7f163c4a11628f55a4df523b3ef92602092855f525f84520360405f2055845f525f825260405f20818154019055604051908152a3565b8263391434e360e21b5f5260045260245260445260645ffd5b63ec442f0560e01b5f525f60045260245ffd5b9190820180921161077b57565b600254600554604051622fcfcb60e31b81529391929190602090859060049082906001600160a01b03165afa9384156102ff575f946114c3575b506001600160a01b03841661142f5750505050600b5461142957565b5f600b55565b600b549182611440575b5050505050565b6109a261145c916001600160701b038061146295169116611000565b916114ff565b91828211611471575b80611439565b61147f906106ed8484610ff3565b9060058102908082046005149015171561077b576114a6926114a0916113c6565b90611013565b806114b3575b808061146b565b6114bc916114e4565b5f806114ac565b6114dd91945060203d602011610aaa57610a9c8183610fbd565b925f61140d565b906001600160a01b038216156113b3576114fd91611998565b565b600181111561162157806001600160801b821015611610575b600482600160401b6115c2941015611603575b6401000000008110156115f6575b620100008110156115e9575b6101008110156115dd575b60108110156115d1575b10156115c9575b60030260011c6115718184611013565b0160011c61157f8184611013565b0160011c61158d8184611013565b0160011c61159b8184611013565b0160011c6115a98184611013565b0160011c6115b78184611013565b0160011c8092611013565b8111900390565b60011b611561565b811c9160021b9161155a565b60081c91811b91611550565b60101c9160081b91611545565b60201c9160101b91611539565b60401c9160201b9161152b565b5050608081901c600160401b611518565b90565b6006546040516370a0823160e01b815230600482015290602090829060249082906001600160a01b03165afa9081156102ff575f9161188f575b506007546040516370a0823160e01b815230600482015290602090829060249082906001600160a01b03165afa9081156102ff575f9161185d575b506001600160701b038211610b52576001600160701b038111610b52576008548060e01c63ffffffff42160363ffffffff811161077b5763ffffffff168015158061184b575b80611836575b61175c575b5050607090811b6dffffffffffffffffffffffffffff60701b166001600160701b039283169081174260e01b6001600160e01b03191617600881905560408051928352921c90921660208301527f1c411e9a96e071241c2f21f7726b17ae89e3cab4c78be50e062b03a9fffbbad191a1565b6001600160701b038260709493941c1693670de0b6b3a7640000850293858504670de0b6b3a7640000148615171561077b576001600160701b036117a291168095611013565b90670de0b6b3a7640000850294808604670de0b6b3a7640000149015171561077b57611828611820846001600160701b039594611818611810889761180a7f1c411e9a96e071241c2f21f7726b17ae89e3cab4c78be50e062b03a9fffbbad19d60409d611013565b93611000565b6009546113c6565b600955611000565b600a546113c6565b600a559450508192506116ea565b506001600160701b038260701c1615156116e5565b506001600160701b03821615156116df565b90506020813d602011611887575b8161187860209383610fbd565b8101031261015557515f611699565b3d915061186b565b90506020813d6020116118b9575b816118aa60209383610fbd565b8101031261015557515f61165e565b3d915061189d565b5f929183809360405190602082019363a9059cbb60e01b855260018060a01b031660248301526044820152604481526118fb606482610fbd565b51925af13d15611990573d9067ffffffffffffffff8211610fdf576040519161192e601f8201601f191660200184610fbd565b82523d5f602084013e5b15908115611957575b5061194857565b630df759e760e31b5f5260045ffd5b805180151592508261196c575b50505f611941565b81925090602091810103126101555760200151801590811503610155575f80611964565b606090611938565b7fddf252ad1be2c89b69c2b068fc378daa952ba7f163c4a11628f55a4df523b3ef60205f926119c9856002546113c6565b6002556001600160a01b031693841584146119f05780600254036002555b604051908152a3565b848452838252604084208181540190556119e756fea26469706673582212201c74248d3a6b2bb806459ff72333fd72d500bc06a3f8a5ab2ea083c25af0898a64736f6c63430008210033"
        }
      ],
      "isFixedGasLimit": false
    },
    {
      "hash": "0xf84a36afbc498aad4c8a97c470af66a8d50bf56017cbb74472e52c55e8e08d6e",
      "transactionType": "CALL",
      "contractName": null,
      "contractAddress": "0xc00416cbdc7268a5cb599382f05de9adee5a2ec1",
      "function": "addLiquidity(address,address,uint256,uint256,uint256,uint256,address,uint256)",
      "arguments": [
        "0xA52079EE2000c801A1d355d51f276b0A03F86D39",
        "0x5c55e9075386Bb76d77bed821E209fE6cac350b6",
        "500000000000000000000000",
        "500000000000000000000000",
        "0",
        "0",
        "0x97BF134cDf8A620aa0F10E140b89a2aDAAC2bBbF",
        "115792089237316195423570985008687907853269984665640564039457584007913129639935"
      ],
      "transaction": {
        "from": "0x97bf134cdf8a620aa0f10e140b89a2adaac2bbbf",
        "to": "0xc00416cbdc7268a5cb599382f05de9adee5a2ec1",
        "gas": "0x26660a",
        "value": "0x0",
        "input": "0xe8e33700000000000000000000000000a52079ee2000c801a1d355d51f276b0a03f86d390000000000000000000000005c55e9075386bb76d77bed821e209fe6cac350b60000000000000000000000000000000000000000000069e10de76676d08000000000000000000000000000000000000000000000000069e10de76676d08000000000000000000000000000000000000000000000000000000000000000000000000000000000000000000000000000000000000000000000000000000000000000000000000000000000000097bf134cdf8a620aa0f10e140b89a2adaac2bbbfffffffffffffffffffffffffffffffffffffffffffffffffffffffffffffffff",
        "nonce": "0x15",
        "chainId": "0x66eee"
      },
      "additionalContracts": [
        {
          "transactionType": "CREATE",
          "contractName": "Pair",
          "address": "0xf369dde349885389a3b75594862537f5c451c3f0",
          "initCode": "0x60806040523461033d57604080519081016001600160401b038111828210176102455760409081526008825267262816aa27a5a2a760c11b602083015280519081016001600160401b0381118282101761024557604052600281526104c560f41b602082015281516001600160401b03811161024557600354600181811c91168015610333575b602082101461022757601f81116102c5575b50602092601f821160011461026457928192935f92610259575b50508160011b915f199060031b1c1916176003555b80516001600160401b03811161024557600454600181811c9116801561023b575b602082101461022757601f81116101b9575b50602091601f8211600114610159579181925f9261014e575b50508160011b915f199060031b1c1916176004555b6001600d55600580546001600160a01b03191633179055604051611a3b90816103428239f35b015190505f80610113565b601f1982169260045f52805f20915f5b8581106101a157508360019510610189575b505050811b01600455610128565b01515f1960f88460031b161c191690555f808061017b565b91926020600181928685015181550194019201610169565b818111156100fa5760045f52601f820160051c7f8a35acfbc15ff81a39ae7d344fd709f28e8600b4aa8c65c6b64bfe7fe36bd19b6020841061021f575b81601f9101920160051c03905f5b8281106102125750506100fa565b5f82820155600101610204565b5f91506101f6565b634e487b7160e01b5f52602260045260245ffd5b90607f16906100e8565b634e487b7160e01b5f52604160045260245ffd5b015190505f806100b2565b601f1982169360035f52805f20915f5b8681106102ad5750836001959610610295575b505050811b016003556100c7565b01515f1960f88460031b161c191690555f8080610287565b91926020600181928685015181550194019201610274565b818111156100985760035f52601f820160051c7fc2575a0e9e593c00f959f8c92f12db2869c3395a3b0502d05e2516446f71f85b6020841061032b575b81601f9101920160051c03905f5b82811061031e575050610098565b5f82820155600101610310565b5f9150610302565b90607f1690610086565b5f80fdfe6080806040526004361015610012575f80fd5b5f3560e01c90816306fdde0314610eaf575080630902f1ac14610e6e578063095ea7b314610dec5780630dfe168114610dc457806318160ddd14610da757806323b872dd14610cc8578063313ce56714610cad578063485cc95514610c015780635909c0d514610be45780635a3d549314610bc75780636a6278421461088c5780636d9a640a1461052a57806370a08231146104f35780637464fc3d146104d657806389afcb441461049357806395d89b411461038f578063a9059cbb1461035e578063ba9a7a5614610342578063bc25cf77146101f9578063c45a0155146101d1578063d21220a7146101a9578063dd62ed3e146101595763fff6cae914610119575f80fd5b34610155575f366003190112610155576001600d5403610146575f600d5561013f611624565b6001600d55005b63e6b179a360e01b5f5260045ffd5b5f80fd5b3461015557604036600319011261015557610172610f91565b61017a610fa7565b6001600160a01b039182165f908152600160209081526040808320949093168252928352819020549051908152f35b34610155575f366003190112610155576007546040516001600160a01b039091168152602090f35b34610155575f366003190112610155576005546040516001600160a01b039091168152602090f35b3461015557602036600319011261015557610212610f91565b6001600d5403610146575f600d556006546007546040516370a0823160e01b81523060048201526001600160a01b0391821692909116602082602481845afa9182156102ff5784905f9361030a575b5061027b610281936001600160701b036008541690610ff3565b916118c1565b6040516370a0823160e01b815230600482015291602083602481855afa9283156102ff575f936102c9575b5061027b61013f936001600160701b0360085460701c1690610ff3565b92506020833d6020116102f7575b816102e460209383610fbd565b810103126101555791519161027b6102ac565b3d91506102d7565b6040513d5f823e3d90fd5b9250506020823d60201161033a575b8161032660209383610fbd565b81010312610155579051908361027b610261565b3d9150610319565b34610155575f3660031901126101555760206040516103e88152f35b346101555760403660031901126101555761038461037a610f91565b602435903361131c565b602060405160018152f35b34610155575f366003190112610155576040515f6004548060011c90600181168015610489575b6020831081146104755782855290811561045157506001146103f3575b6103ef836103e381850382610fbd565b60405191829182610f67565b0390f35b91905060045f527f8a35acfbc15ff81a39ae7d344fd709f28e8600b4aa8c65c6b64bfe7fe36bd19b915f905b808210610437575090915081016020016103e36103d3565b91926001816020925483858801015201910190929161041f565b60ff191660208086019190915291151560051b840190910191506103e390506103d3565b634e487b7160e01b5f52602260045260245ffd5b91607f16916103b6565b34610155576020366003190112610155576104ac610f91565b6001600d5403610146576104c56040915f600d55611050565b6001600d5582519182526020820152f35b34610155575f366003190112610155576020600b54604051908152f35b34610155576020366003190112610155576001600160a01b03610514610f91565b165f525f602052602060405f2054604051908152f35b34610155576060366003190112610155576044356001600160a01b03811690602435600435838303610155576001600d5403610146575f600d556008546006546007546001600160701b03607084901c8116969316916001600160a01b03918216911684158080610884575b610875571590818061086c575b61083c578089148015610863575b61085457838611801561084b575b61083c5760249460209261082c575b878061081b575b50506040516370a0823160e01b815230600482015294859182905afa9283156102ff575f936107e6575b506020602491604051928380926370a0823160e01b82523060048301525afa9081156102ff575f916107b4575b506106378483610ff3565b8311156107ad5761065161064b8584610ff3565b84610ff3565b955b61065d8682610ff3565b8211156107a6576106776106718783610ff3565b83610ff3565b935b8715808061079e575b61078f576103e88202918083046103e8149015171561077b576003890290898204600314171561077b576106b591610ff3565b6103e88302928084046103e8149015171561077b5760038502908582046003148615171561077b576106ed6106f3926106f995610ff3565b90611000565b92611000565b906103e88202918083046103e8148115171561077b57620f424002918083046103e8149015171561077b571061076c576040519384526020840152604083015260608201527fd78ad95fa46c994b6551d0da85fc275fe613ce37657fb8d5e3d130840159d82260803392a361013f611624565b63702a418560e01b5f5260045ffd5b634e487b7160e01b5f52601160045260245ffd5b634a08a4a360e11b5f5260045ffd5b508515610682565b5f93610679565b5f95610653565b90506020813d6020116107de575b816107cf60209383610fbd565b8101031261015557518761062c565b3d91506107c2565b9092506020813d602011610813575b8161080260209383610fbd565b8101031261015557519160206105ff565b3d91506107f5565b61082591856118c1565b89876105d5565b6108378782846118c1565b6105ce565b6337d93ae160e21b5f5260045ffd5b508787116105bf565b6387db131160e01b5f5260045ffd5b508289146105b1565b508615156105a3565b63c6941f8960e01b5f5260045ffd5b508615610596565b34610155576020366003190112610155576108a5610f91565b6001600d5403610146575f600d556006546040516370a0823160e01b81523060048201529190602090839060249082906001600160a01b03165afa9182156102ff575f92610b93575b506007546040516370a0823160e01b815230600482015290602090829060249082906001600160a01b03165afa9081156102ff575f91610b61575b506001600160701b038311610b52576001600160701b038111610b52576001600160701b039261097b6008549161097586841696879460701c1693849261097084836113d3565b610ff3565b93610ff3565b9382158015610b4a575b610b3b576002549182610ac0575050506109a76109a28483611000565b6114ff565b926103e8841115610ab1576103e719840193841161077b576109d984600495946109d46103e86001611998565b6114e4565b60405191825260208201527f4c209b5fc8ad50758f13e2e1088ba56a560dff690a1c6fef26394f4c03821c4f60403392a2610a12611624565b600554604051622fcfcb60e31b81529260209184919082906001600160a01b03165afa80156102ff576020925f91610a84575b506001600160a01b0316610a61575b6001600d55604051908152f35b610a7c6008546001600160701b03808260701c169116611000565b600b55610a54565b610aa49150833d8511610aaa575b610a9c8183610fbd565b810190611031565b83610a45565b503d610a92565b632aa60fef60e11b5f5260045ffd5b8195929495158015610b33575b610b2457610ae5610aea610af193610ae58888611000565b611013565b9584611000565b928380821091180280841893145f14610b1357632aa60fef60e11b5f5260045ffd5b610b1f836004956114e4565b6109d9565b631b61bd4760e21b5f5260045ffd5b508015610acd565b6308abd71960e41b5f5260045ffd5b508415610985565b6301549ec560e21b5f5260045ffd5b90506020813d602011610b8b575b81610b7c60209383610fbd565b81010312610155575183610929565b3d9150610b6f565b9091506020813d602011610bbf575b81610baf60209383610fbd565b81010312610155575190826108ee565b3d9150610ba2565b34610155575f366003190112610155576020600a54604051908152f35b34610155575f366003190112610155576020600954604051908152f35b3461015557604036600319011261015557610c1a610f91565b610c22610fa7565b6005546001600160a01b0316330361083c57600c5491600160ff8416151514610c9e57600680546001600160a01b039283166001600160a01b031991821681179092556007805494909316931683179091558181146108545715908115610c95575b506108545760ff1916600117600c55005b90501582610c84565b63f669b6bd60e01b5f5260045ffd5b34610155575f36600319011261015557602060405160128152f35b3461015557606036600319011261015557610ce1610f91565b610ce9610fa7565b6001600160a01b0382165f818152600160209081526040808320338452909152902054909260443592915f198110610d27575b50610384935061131c565b838110610d8c578415610d79573315610d6657610384945f52600160205260405f2060018060a01b0333165f526020528360405f209103905584610d1c565b634a1406b160e11b5f525f60045260245ffd5b63e602df0560e01b5f525f60045260245ffd5b8390637dc7a0d960e11b5f523360045260245260445260645ffd5b34610155575f366003190112610155576020600254604051908152f35b34610155575f366003190112610155576006546040516001600160a01b039091168152602090f35b3461015557604036600319011261015557610e05610f91565b602435903315610d79576001600160a01b0316908115610d6657335f52600160205260405f20825f526020528060405f20556040519081527f8c5be1e5ebec7d5bd14f71427d1e84f3dd0314c0f7b2291e5b200ac8c7c3b92560203392a3602060405160018152f35b34610155575f366003190112610155576060600854604051906001600160701b03811682526001600160701b038160701c16602083015260e01c6040820152f35b34610155575f366003190112610155575f6003548060011c90600181168015610f5d575b602083108114610475578285529081156104515750600114610eff576103ef836103e381850382610fbd565b91905060035f527fc2575a0e9e593c00f959f8c92f12db2869c3395a3b0502d05e2516446f71f85b915f905b808210610f43575090915081016020016103e36103d3565b919260018160209254838588010152019101909291610f2b565b91607f1691610ed3565b602060409281835280519182918282860152018484015e5f828201840152601f01601f1916010190565b600435906001600160a01b038216820361015557565b602435906001600160a01b038216820361015557565b90601f8019910116810190811067ffffffffffffffff821117610fdf57604052565b634e487b7160e01b5f52604160045260245ffd5b9190820391821161077b57565b8181029291811591840414171561077b57565b811561101d570490565b634e487b7160e01b5f52601260045260245ffd5b9081602091031261015557516001600160a01b03811681036101555790565b90305f525f60205260405f205491821561078f5760018060a01b03600654169060018060a01b03600754166110966008546001600160701b03808260701c1691166113d3565b6040516370a0823160e01b815230600482015292602084602481845afa9384156102ff575f946112e8575b506040516370a0823160e01b815230600482015293602085602481865afa9485156102ff575f956112b4575b5060025480156112a557610ae561110b82610ae5611112958c611000565b9689611000565b958415801561129d575b1561113057634a08a4a360e11b5f5260045ffd5b301561128a57305f525f60205260405f2054818110611271579261119f86868a955f8683976111a49a3084528360205203604083205580600254036002556040519081527fddf252ad1be2c89b69c2b068fc378daa952ba7f163c4a11628f55a4df523b3ef60203092a36118c1565b6118c1565b60408051838152602081018690526001600160a01b039092169133917fdccd412f0b1252819cb1fd330b93224ca42612892bb3f4f789976e6d8193649691a36111eb611624565b600554604051622fcfcb60e31b815290602090829060049082906001600160a01b03165afa9081156102ff575f91611252575b506001600160a01b0316611230579190565b61124b6008546001600160701b03808260701c169116611000565b600b559190565b61126b915060203d602011610aaa57610a9c8183610fbd565b5f61121e565b63391434e360e21b5f523060045260245260445260645ffd5b634b637e8f60e11b5f525f60045260245ffd5b50861561111c565b63074700eb60e31b5f5260045ffd5b9094506020813d6020116112e0575b816112d060209383610fbd565b810103126101555751935f6110ed565b3d91506112c3565b9093506020813d602011611314575b8161130460209383610fbd565b810103126101555751925f6110c1565b3d91506112f7565b6001600160a01b031690811561128a576001600160a01b03169182156113b357815f525f60205260405f205481811061139a57817fddf252ad1be2c89b69c2b068fc378daa952ba7f163c4a11628f55a4df523b3ef92602092855f525f84520360405f2055845f525f825260405f20818154019055604051908152a3565b8263391434e360e21b5f5260045260245260445260645ffd5b63ec442f0560e01b5f525f60045260245ffd5b9190820180921161077b57565b600254600554604051622fcfcb60e31b81529391929190602090859060049082906001600160a01b03165afa9384156102ff575f946114c3575b506001600160a01b03841661142f5750505050600b5461142957565b5f600b55565b600b549182611440575b5050505050565b6109a261145c916001600160701b038061146295169116611000565b916114ff565b91828211611471575b80611439565b61147f906106ed8484610ff3565b9060058102908082046005149015171561077b576114a6926114a0916113c6565b90611013565b806114b3575b808061146b565b6114bc916114e4565b5f806114ac565b6114dd91945060203d602011610aaa57610a9c8183610fbd565b925f61140d565b906001600160a01b038216156113b3576114fd91611998565b565b600181111561162157806001600160801b821015611610575b600482600160401b6115c2941015611603575b6401000000008110156115f6575b620100008110156115e9575b6101008110156115dd575b60108110156115d1575b10156115c9575b60030260011c6115718184611013565b0160011c61157f8184611013565b0160011c61158d8184611013565b0160011c61159b8184611013565b0160011c6115a98184611013565b0160011c6115b78184611013565b0160011c8092611013565b8111900390565b60011b611561565b811c9160021b9161155a565b60081c91811b91611550565b60101c9160081b91611545565b60201c9160101b91611539565b60401c9160201b9161152b565b5050608081901c600160401b611518565b90565b6006546040516370a0823160e01b815230600482015290602090829060249082906001600160a01b03165afa9081156102ff575f9161188f575b506007546040516370a0823160e01b815230600482015290602090829060249082906001600160a01b03165afa9081156102ff575f9161185d575b506001600160701b038211610b52576001600160701b038111610b52576008548060e01c63ffffffff42160363ffffffff811161077b5763ffffffff168015158061184b575b80611836575b61175c575b5050607090811b6dffffffffffffffffffffffffffff60701b166001600160701b039283169081174260e01b6001600160e01b03191617600881905560408051928352921c90921660208301527f1c411e9a96e071241c2f21f7726b17ae89e3cab4c78be50e062b03a9fffbbad191a1565b6001600160701b038260709493941c1693670de0b6b3a7640000850293858504670de0b6b3a7640000148615171561077b576001600160701b036117a291168095611013565b90670de0b6b3a7640000850294808604670de0b6b3a7640000149015171561077b57611828611820846001600160701b039594611818611810889761180a7f1c411e9a96e071241c2f21f7726b17ae89e3cab4c78be50e062b03a9fffbbad19d60409d611013565b93611000565b6009546113c6565b600955611000565b600a546113c6565b600a559450508192506116ea565b506001600160701b038260701c1615156116e5565b506001600160701b03821615156116df565b90506020813d602011611887575b8161187860209383610fbd565b8101031261015557515f611699565b3d915061186b565b90506020813d6020116118b9575b816118aa60209383610fbd565b8101031261015557515f61165e565b3d915061189d565b5f929183809360405190602082019363a9059cbb60e01b855260018060a01b031660248301526044820152604481526118fb606482610fbd565b51925af13d15611990573d9067ffffffffffffffff8211610fdf576040519161192e601f8201601f191660200184610fbd565b82523d5f602084013e5b15908115611957575b5061194857565b630df759e760e31b5f5260045ffd5b805180151592508261196c575b50505f611941565b81925090602091810103126101555760200151801590811503610155575f80611964565b606090611938565b7fddf252ad1be2c89b69c2b068fc378daa952ba7f163c4a11628f55a4df523b3ef60205f926119c9856002546113c6565b6002556001600160a01b031693841584146119f05780600254036002555b604051908152a3565b848452838252604084208181540190556119e756fea26469706673582212201c74248d3a6b2bb806459ff72333fd72d500bc06a3f8a5ab2ea083c25af0898a64736f6c63430008210033"
        }
      ],
      "isFixedGasLimit": false
    },
    {
      "hash": "0xcbad052fff124cd3ea619b0d2291195c25748a3baaf9e0df90de2c530f8ddbde",
      "transactionType": "CALL",
      "contractName": null,
      "contractAddress": "0xc00416cbdc7268a5cb599382f05de9adee5a2ec1",
      "function": "addLiquidity(address,address,uint256,uint256,uint256,uint256,address,uint256)",
      "arguments": [
        "0x9a1eDFdcA16212683E45Fb3C285115a2668F3d10",
        "0xA52079EE2000c801A1d355d51f276b0A03F86D39",
        "50000000000000000000",
        "100000000000000000000000",
        "0",
        "0",
        "0x97BF134cDf8A620aa0F10E140b89a2aDAAC2bBbF",
        "115792089237316195423570985008687907853269984665640564039457584007913129639935"
      ],
      "transaction": {
        "from": "0x97bf134cdf8a620aa0f10e140b89a2adaac2bbbf",
        "to": "0xc00416cbdc7268a5cb599382f05de9adee5a2ec1",
        "gas": "0x2665a6",
        "value": "0x0",
        "input": "0xe8e337000000000000000000000000009a1edfdca16212683e45fb3c285115a2668f3d10000000000000000000000000a52079ee2000c801a1d355d51f276b0a03f86d39000000000000000000000000000000000000000000000002b5e3af16b188000000000000000000000000000000000000000000000000152d02c7e14af68000000000000000000000000000000000000000000000000000000000000000000000000000000000000000000000000000000000000000000000000000000000000000000000000000000000000097bf134cdf8a620aa0f10e140b89a2adaac2bbbfffffffffffffffffffffffffffffffffffffffffffffffffffffffffffffffff",
        "nonce": "0x16",
        "chainId": "0x66eee"
      },
      "additionalContracts": [
        {
          "transactionType": "CREATE",
          "contractName": "Pair",
          "address": "0xbf54d16a2dc5b6c810b97ca634d54f162f608f3d",
          "initCode": "0x60806040523461033d57604080519081016001600160401b038111828210176102455760409081526008825267262816aa27a5a2a760c11b602083015280519081016001600160401b0381118282101761024557604052600281526104c560f41b602082015281516001600160401b03811161024557600354600181811c91168015610333575b602082101461022757601f81116102c5575b50602092601f821160011461026457928192935f92610259575b50508160011b915f199060031b1c1916176003555b80516001600160401b03811161024557600454600181811c9116801561023b575b602082101461022757601f81116101b9575b50602091601f8211600114610159579181925f9261014e575b50508160011b915f199060031b1c1916176004555b6001600d55600580546001600160a01b03191633179055604051611a3b90816103428239f35b015190505f80610113565b601f1982169260045f52805f20915f5b8581106101a157508360019510610189575b505050811b01600455610128565b01515f1960f88460031b161c191690555f808061017b565b91926020600181928685015181550194019201610169565b818111156100fa5760045f52601f820160051c7f8a35acfbc15ff81a39ae7d344fd709f28e8600b4aa8c65c6b64bfe7fe36bd19b6020841061021f575b81601f9101920160051c03905f5b8281106102125750506100fa565b5f82820155600101610204565b5f91506101f6565b634e487b7160e01b5f52602260045260245ffd5b90607f16906100e8565b634e487b7160e01b5f52604160045260245ffd5b015190505f806100b2565b601f1982169360035f52805f20915f5b8681106102ad5750836001959610610295575b505050811b016003556100c7565b01515f1960f88460031b161c191690555f8080610287565b91926020600181928685015181550194019201610274565b818111156100985760035f52601f820160051c7fc2575a0e9e593c00f959f8c92f12db2869c3395a3b0502d05e2516446f71f85b6020841061032b575b81601f9101920160051c03905f5b82811061031e575050610098565b5f82820155600101610310565b5f9150610302565b90607f1690610086565b5f80fdfe6080806040526004361015610012575f80fd5b5f3560e01c90816306fdde0314610eaf575080630902f1ac14610e6e578063095ea7b314610dec5780630dfe168114610dc457806318160ddd14610da757806323b872dd14610cc8578063313ce56714610cad578063485cc95514610c015780635909c0d514610be45780635a3d549314610bc75780636a6278421461088c5780636d9a640a1461052a57806370a08231146104f35780637464fc3d146104d657806389afcb441461049357806395d89b411461038f578063a9059cbb1461035e578063ba9a7a5614610342578063bc25cf77146101f9578063c45a0155146101d1578063d21220a7146101a9578063dd62ed3e146101595763fff6cae914610119575f80fd5b34610155575f366003190112610155576001600d5403610146575f600d5561013f611624565b6001600d55005b63e6b179a360e01b5f5260045ffd5b5f80fd5b3461015557604036600319011261015557610172610f91565b61017a610fa7565b6001600160a01b039182165f908152600160209081526040808320949093168252928352819020549051908152f35b34610155575f366003190112610155576007546040516001600160a01b039091168152602090f35b34610155575f366003190112610155576005546040516001600160a01b039091168152602090f35b3461015557602036600319011261015557610212610f91565b6001600d5403610146575f600d556006546007546040516370a0823160e01b81523060048201526001600160a01b0391821692909116602082602481845afa9182156102ff5784905f9361030a575b5061027b610281936001600160701b036008541690610ff3565b916118c1565b6040516370a0823160e01b815230600482015291602083602481855afa9283156102ff575f936102c9575b5061027b61013f936001600160701b0360085460701c1690610ff3565b92506020833d6020116102f7575b816102e460209383610fbd565b810103126101555791519161027b6102ac565b3d91506102d7565b6040513d5f823e3d90fd5b9250506020823d60201161033a575b8161032660209383610fbd565b81010312610155579051908361027b610261565b3d9150610319565b34610155575f3660031901126101555760206040516103e88152f35b346101555760403660031901126101555761038461037a610f91565b602435903361131c565b602060405160018152f35b34610155575f366003190112610155576040515f6004548060011c90600181168015610489575b6020831081146104755782855290811561045157506001146103f3575b6103ef836103e381850382610fbd565b60405191829182610f67565b0390f35b91905060045f527f8a35acfbc15ff81a39ae7d344fd709f28e8600b4aa8c65c6b64bfe7fe36bd19b915f905b808210610437575090915081016020016103e36103d3565b91926001816020925483858801015201910190929161041f565b60ff191660208086019190915291151560051b840190910191506103e390506103d3565b634e487b7160e01b5f52602260045260245ffd5b91607f16916103b6565b34610155576020366003190112610155576104ac610f91565b6001600d5403610146576104c56040915f600d55611050565b6001600d5582519182526020820152f35b34610155575f366003190112610155576020600b54604051908152f35b34610155576020366003190112610155576001600160a01b03610514610f91565b165f525f602052602060405f2054604051908152f35b34610155576060366003190112610155576044356001600160a01b03811690602435600435838303610155576001600d5403610146575f600d556008546006546007546001600160701b03607084901c8116969316916001600160a01b03918216911684158080610884575b610875571590818061086c575b61083c578089148015610863575b61085457838611801561084b575b61083c5760249460209261082c575b878061081b575b50506040516370a0823160e01b815230600482015294859182905afa9283156102ff575f936107e6575b506020602491604051928380926370a0823160e01b82523060048301525afa9081156102ff575f916107b4575b506106378483610ff3565b8311156107ad5761065161064b8584610ff3565b84610ff3565b955b61065d8682610ff3565b8211156107a6576106776106718783610ff3565b83610ff3565b935b8715808061079e575b61078f576103e88202918083046103e8149015171561077b576003890290898204600314171561077b576106b591610ff3565b6103e88302928084046103e8149015171561077b5760038502908582046003148615171561077b576106ed6106f3926106f995610ff3565b90611000565b92611000565b906103e88202918083046103e8148115171561077b57620f424002918083046103e8149015171561077b571061076c576040519384526020840152604083015260608201527fd78ad95fa46c994b6551d0da85fc275fe613ce37657fb8d5e3d130840159d82260803392a361013f611624565b63702a418560e01b5f5260045ffd5b634e487b7160e01b5f52601160045260245ffd5b634a08a4a360e11b5f5260045ffd5b508515610682565b5f93610679565b5f95610653565b90506020813d6020116107de575b816107cf60209383610fbd565b8101031261015557518761062c565b3d91506107c2565b9092506020813d602011610813575b8161080260209383610fbd565b8101031261015557519160206105ff565b3d91506107f5565b61082591856118c1565b89876105d5565b6108378782846118c1565b6105ce565b6337d93ae160e21b5f5260045ffd5b508787116105bf565b6387db131160e01b5f5260045ffd5b508289146105b1565b508615156105a3565b63c6941f8960e01b5f5260045ffd5b508615610596565b34610155576020366003190112610155576108a5610f91565b6001600d5403610146575f600d556006546040516370a0823160e01b81523060048201529190602090839060249082906001600160a01b03165afa9182156102ff575f92610b93575b506007546040516370a0823160e01b815230600482015290602090829060249082906001600160a01b03165afa9081156102ff575f91610b61575b506001600160701b038311610b52576001600160701b038111610b52576001600160701b039261097b6008549161097586841696879460701c1693849261097084836113d3565b610ff3565b93610ff3565b9382158015610b4a575b610b3b576002549182610ac0575050506109a76109a28483611000565b6114ff565b926103e8841115610ab1576103e719840193841161077b576109d984600495946109d46103e86001611998565b6114e4565b60405191825260208201527f4c209b5fc8ad50758f13e2e1088ba56a560dff690a1c6fef26394f4c03821c4f60403392a2610a12611624565b600554604051622fcfcb60e31b81529260209184919082906001600160a01b03165afa80156102ff576020925f91610a84575b506001600160a01b0316610a61575b6001600d55604051908152f35b610a7c6008546001600160701b03808260701c169116611000565b600b55610a54565b610aa49150833d8511610aaa575b610a9c8183610fbd565b810190611031565b83610a45565b503d610a92565b632aa60fef60e11b5f5260045ffd5b8195929495158015610b33575b610b2457610ae5610aea610af193610ae58888611000565b611013565b9584611000565b928380821091180280841893145f14610b1357632aa60fef60e11b5f5260045ffd5b610b1f836004956114e4565b6109d9565b631b61bd4760e21b5f5260045ffd5b508015610acd565b6308abd71960e41b5f5260045ffd5b508415610985565b6301549ec560e21b5f5260045ffd5b90506020813d602011610b8b575b81610b7c60209383610fbd565b81010312610155575183610929565b3d9150610b6f565b9091506020813d602011610bbf575b81610baf60209383610fbd565b81010312610155575190826108ee565b3d9150610ba2565b34610155575f366003190112610155576020600a54604051908152f35b34610155575f366003190112610155576020600954604051908152f35b3461015557604036600319011261015557610c1a610f91565b610c22610fa7565b6005546001600160a01b0316330361083c57600c5491600160ff8416151514610c9e57600680546001600160a01b039283166001600160a01b031991821681179092556007805494909316931683179091558181146108545715908115610c95575b506108545760ff1916600117600c55005b90501582610c84565b63f669b6bd60e01b5f5260045ffd5b34610155575f36600319011261015557602060405160128152f35b3461015557606036600319011261015557610ce1610f91565b610ce9610fa7565b6001600160a01b0382165f818152600160209081526040808320338452909152902054909260443592915f198110610d27575b50610384935061131c565b838110610d8c578415610d79573315610d6657610384945f52600160205260405f2060018060a01b0333165f526020528360405f209103905584610d1c565b634a1406b160e11b5f525f60045260245ffd5b63e602df0560e01b5f525f60045260245ffd5b8390637dc7a0d960e11b5f523360045260245260445260645ffd5b34610155575f366003190112610155576020600254604051908152f35b34610155575f366003190112610155576006546040516001600160a01b039091168152602090f35b3461015557604036600319011261015557610e05610f91565b602435903315610d79576001600160a01b0316908115610d6657335f52600160205260405f20825f526020528060405f20556040519081527f8c5be1e5ebec7d5bd14f71427d1e84f3dd0314c0f7b2291e5b200ac8c7c3b92560203392a3602060405160018152f35b34610155575f366003190112610155576060600854604051906001600160701b03811682526001600160701b038160701c16602083015260e01c6040820152f35b34610155575f366003190112610155575f6003548060011c90600181168015610f5d575b602083108114610475578285529081156104515750600114610eff576103ef836103e381850382610fbd565b91905060035f527fc2575a0e9e593c00f959f8c92f12db2869c3395a3b0502d05e2516446f71f85b915f905b808210610f43575090915081016020016103e36103d3565b919260018160209254838588010152019101909291610f2b565b91607f1691610ed3565b602060409281835280519182918282860152018484015e5f828201840152601f01601f1916010190565b600435906001600160a01b038216820361015557565b602435906001600160a01b038216820361015557565b90601f8019910116810190811067ffffffffffffffff821117610fdf57604052565b634e487b7160e01b5f52604160045260245ffd5b9190820391821161077b57565b8181029291811591840414171561077b57565b811561101d570490565b634e487b7160e01b5f52601260045260245ffd5b9081602091031261015557516001600160a01b03811681036101555790565b90305f525f60205260405f205491821561078f5760018060a01b03600654169060018060a01b03600754166110966008546001600160701b03808260701c1691166113d3565b6040516370a0823160e01b815230600482015292602084602481845afa9384156102ff575f946112e8575b506040516370a0823160e01b815230600482015293602085602481865afa9485156102ff575f956112b4575b5060025480156112a557610ae561110b82610ae5611112958c611000565b9689611000565b958415801561129d575b1561113057634a08a4a360e11b5f5260045ffd5b301561128a57305f525f60205260405f2054818110611271579261119f86868a955f8683976111a49a3084528360205203604083205580600254036002556040519081527fddf252ad1be2c89b69c2b068fc378daa952ba7f163c4a11628f55a4df523b3ef60203092a36118c1565b6118c1565b60408051838152602081018690526001600160a01b039092169133917fdccd412f0b1252819cb1fd330b93224ca42612892bb3f4f789976e6d8193649691a36111eb611624565b600554604051622fcfcb60e31b815290602090829060049082906001600160a01b03165afa9081156102ff575f91611252575b506001600160a01b0316611230579190565b61124b6008546001600160701b03808260701c169116611000565b600b559190565b61126b915060203d602011610aaa57610a9c8183610fbd565b5f61121e565b63391434e360e21b5f523060045260245260445260645ffd5b634b637e8f60e11b5f525f60045260245ffd5b50861561111c565b63074700eb60e31b5f5260045ffd5b9094506020813d6020116112e0575b816112d060209383610fbd565b810103126101555751935f6110ed565b3d91506112c3565b9093506020813d602011611314575b8161130460209383610fbd565b810103126101555751925f6110c1565b3d91506112f7565b6001600160a01b031690811561128a576001600160a01b03169182156113b357815f525f60205260405f205481811061139a57817fddf252ad1be2c89b69c2b068fc378daa952ba7f163c4a11628f55a4df523b3ef92602092855f525f84520360405f2055845f525f825260405f20818154019055604051908152a3565b8263391434e360e21b5f5260045260245260445260645ffd5b63ec442f0560e01b5f525f60045260245ffd5b9190820180921161077b57565b600254600554604051622fcfcb60e31b81529391929190602090859060049082906001600160a01b03165afa9384156102ff575f946114c3575b506001600160a01b03841661142f5750505050600b5461142957565b5f600b55565b600b549182611440575b5050505050565b6109a261145c916001600160701b038061146295169116611000565b916114ff565b91828211611471575b80611439565b61147f906106ed8484610ff3565b9060058102908082046005149015171561077b576114a6926114a0916113c6565b90611013565b806114b3575b808061146b565b6114bc916114e4565b5f806114ac565b6114dd91945060203d602011610aaa57610a9c8183610fbd565b925f61140d565b906001600160a01b038216156113b3576114fd91611998565b565b600181111561162157806001600160801b821015611610575b600482600160401b6115c2941015611603575b6401000000008110156115f6575b620100008110156115e9575b6101008110156115dd575b60108110156115d1575b10156115c9575b60030260011c6115718184611013565b0160011c61157f8184611013565b0160011c61158d8184611013565b0160011c61159b8184611013565b0160011c6115a98184611013565b0160011c6115b78184611013565b0160011c8092611013565b8111900390565b60011b611561565b811c9160021b9161155a565b60081c91811b91611550565b60101c9160081b91611545565b60201c9160101b91611539565b60401c9160201b9161152b565b5050608081901c600160401b611518565b90565b6006546040516370a0823160e01b815230600482015290602090829060249082906001600160a01b03165afa9081156102ff575f9161188f575b506007546040516370a0823160e01b815230600482015290602090829060249082906001600160a01b03165afa9081156102ff575f9161185d575b506001600160701b038211610b52576001600160701b038111610b52576008548060e01c63ffffffff42160363ffffffff811161077b5763ffffffff168015158061184b575b80611836575b61175c575b5050607090811b6dffffffffffffffffffffffffffff60701b166001600160701b039283169081174260e01b6001600160e01b03191617600881905560408051928352921c90921660208301527f1c411e9a96e071241c2f21f7726b17ae89e3cab4c78be50e062b03a9fffbbad191a1565b6001600160701b038260709493941c1693670de0b6b3a7640000850293858504670de0b6b3a7640000148615171561077b576001600160701b036117a291168095611013565b90670de0b6b3a7640000850294808604670de0b6b3a7640000149015171561077b57611828611820846001600160701b039594611818611810889761180a7f1c411e9a96e071241c2f21f7726b17ae89e3cab4c78be50e062b03a9fffbbad19d60409d611013565b93611000565b6009546113c6565b600955611000565b600a546113c6565b600a559450508192506116ea565b506001600160701b038260701c1615156116e5565b506001600160701b03821615156116df565b90506020813d602011611887575b8161187860209383610fbd565b8101031261015557515f611699565b3d915061186b565b90506020813d6020116118b9575b816118aa60209383610fbd565b8101031261015557515f61165e565b3d915061189d565b5f929183809360405190602082019363a9059cbb60e01b855260018060a01b031660248301526044820152604481526118fb606482610fbd565b51925af13d15611990573d9067ffffffffffffffff8211610fdf576040519161192e601f8201601f191660200184610fbd565b82523d5f602084013e5b15908115611957575b5061194857565b630df759e760e31b5f5260045ffd5b805180151592508261196c575b50505f611941565b81925090602091810103126101555760200151801590811503610155575f80611964565b606090611938565b7fddf252ad1be2c89b69c2b068fc378daa952ba7f163c4a11628f55a4df523b3ef60205f926119c9856002546113c6565b6002556001600160a01b031693841584146119f05780600254036002555b604051908152a3565b848452838252604084208181540190556119e756fea26469706673582212201c74248d3a6b2bb806459ff72333fd72d500bc06a3f8a5ab2ea083c25af0898a64736f6c63430008210033"
        }
      ],
      "isFixedGasLimit": false
    }
  ],
  "receipts": [
    {
      "status": "0x1",
      "cumulativeGasUsed": "0x10a0d",
      "logs": [
        {
          "address": "0x9a1edfdca16212683e45fb3c285115a2668f3d10",
          "topics": [
            "0xddf252ad1be2c89b69c2b068fc378daa952ba7f163c4a11628f55a4df523b3ef",
            "0x0000000000000000000000000000000000000000000000000000000000000000",
            "0x00000000000000000000000097bf134cdf8a620aa0f10e140b89a2adaac2bbbf"
          ],
          "data": "0x00000000000000000000000000000000000000000000003635c9adc5dea00000",
          "blockHash": "0x626cb322875cb60c603ec972103d9f1f10d77d54b2bbe3b7df1b0f1259e0af20",
          "blockNumber": "0xed9e506",
          "blockTimestamp": "0x69b1b225",
          "transactionHash": "0xbfc986c31915a7c0b4932d0c2e8616e115f8729f9c199daa6755304fc0e7a53e",
          "transactionIndex": "0x1",
          "logIndex": "0x0",
          "removed": false
        }
      ],
      "logsBloom": "0x00000000000000000000000000000000000000000000000000000000000000000000000000000000000000000000000000000000000000000000000000000000000000000000000000000008000000000004000000000000000000000000000000000000020000000000000000000800000000000000000000000010000000000000000000000000000000000000000000000040000000000000000000008000000000000000000000000000000000000000000000000000000000000000000000000002000010010000000000000000000000000000000000000000000020000000000001000000000000000000000000000000000000000000000000000000",
      "type": "0x2",
      "transactionHash": "0xbfc986c31915a7c0b4932d0c2e8616e115f8729f9c199daa6755304fc0e7a53e",
      "transactionIndex": "0x1",
      "blockHash": "0x626cb322875cb60c603ec972103d9f1f10d77d54b2bbe3b7df1b0f1259e0af20",
      "blockNumber": "0xed9e506",
      "gasUsed": "0x10a0d",
      "effectiveGasPrice": "0x1316b80",
      "from": "0x97bf134cdf8a620aa0f10e140b89a2adaac2bbbf",
      "to": "0x9a1edfdca16212683e45fb3c285115a2668f3d10",
      "contractAddress": null,
      "gasUsedForL1": "0x0",
      "l1BlockNumber": "0x9f1f24",
      "timeboosted": false
    },
    {
      "status": "0x1",
      "cumulativeGasUsed": "0x10a19",
      "logs": [
        {
          "address": "0x5c55e9075386bb76d77bed821e209fe6cac350b6",
          "topics": [
            "0xddf252ad1be2c89b69c2b068fc378daa952ba7f163c4a11628f55a4df523b3ef",
            "0x0000000000000000000000000000000000000000000000000000000000000000",
            "0x00000000000000000000000097bf134cdf8a620aa0f10e140b89a2adaac2bbbf"
          ],
          "data": "0x000000000000000000000000000000000000000000034f086f3b33b684000000",
          "blockHash": "0x36ace239df31c5b2e36871ea57b0e52b84c64fc14252d6f7fdc89ddb416b2f66",
          "blockNumber": "0xed9e50e",
          "blockTimestamp": "0x69b1b227",
          "transactionHash": "0x0cc0a3688fee0d3538ace7ee1d89b770f7e6f390355e5ad1eee321a806c91fde",
          "transactionIndex": "0x1",
          "logIndex": "0x0",
          "removed": false
        }
      ],
      "logsBloom": "0x00000000000000000000000000000000000000000000000000000000000000000000000000000000000000000000000000000000000000000000000000000000000000000000000000000008000000000004000000000000000000000000000000000000020000000000000000000800000000000000000000000010004000000000000000000000000000000000000000000000000000000000000000008000000000000100010000000000000000000000000000000000000000000000000000000002000010000000000000000000000000000000000000000000000020000000000000000000000000000000000000000000000000000000000000000000",
      "type": "0x2",
      "transactionHash": "0x0cc0a3688fee0d3538ace7ee1d89b770f7e6f390355e5ad1eee321a806c91fde",
      "transactionIndex": "0x1",
      "blockHash": "0x36ace239df31c5b2e36871ea57b0e52b84c64fc14252d6f7fdc89ddb416b2f66",
      "blockNumber": "0xed9e50e",
      "gasUsed": "0x10a19",
      "effectiveGasPrice": "0x131aa00",
      "from": "0x97bf134cdf8a620aa0f10e140b89a2adaac2bbbf",
      "to": "0x5c55e9075386bb76d77bed821e209fe6cac350b6",
      "contractAddress": null,
      "gasUsedForL1": "0x0",
      "l1BlockNumber": "0x9f1f24",
      "timeboosted": false
    },
    {
      "status": "0x1",
      "cumulativeGasUsed": "0x350df",
      "logs": [
        {
          "address": "0x280f784ff03772fbc82e20052bb0247d042a5b07",
          "topics": [
            "0xddf252ad1be2c89b69c2b068fc378daa952ba7f163c4a11628f55a4df523b3ef",
            "0x0000000000000000000000000000000000000000000000000000000000000000",
            "0x00000000000000000000000097bf134cdf8a620aa0f10e140b89a2adaac2bbbf"
          ],
          "data": "0x00000000000000000000000000000000000000000001a784379d99db42000000",
          "blockHash": "0xbf63581277b4d8f071bb1617c584a58ad199263711f6a32cc172a9d2494aa0ca",
          "blockNumber": "0xed9e515",
          "blockTimestamp": "0x69b1b229",
          "transactionHash": "0xf500bc145f4cf180cc0ba1b94885333c49be4e65ebb94ac26b2d1ff88a57658d",
          "transactionIndex": "0x3",
          "logIndex": "0x2",
          "removed": false
        }
      ],
      "logsBloom": "0x00000000000000000000000000000000000000000000000000000000000000000000000000000000000000000000000000000000000000000000000000000000000000000000000000000008000000000004000000000000000000000000000000000000020000000000000000000800000000080000800000000010000000000000000000000000000000000000000000000000000000000000000000008000000000000000000000000000000000000000000000000000000000000000000000000002000010000000000000000000000000000000000000000000000020000000000000020000000000000000000000000000000000000000000000000000",
      "type": "0x2",
      "transactionHash": "0xf500bc145f4cf180cc0ba1b94885333c49be4e65ebb94ac26b2d1ff88a57658d",
      "transactionIndex": "0x3",
      "blockHash": "0xbf63581277b4d8f071bb1617c584a58ad199263711f6a32cc172a9d2494aa0ca",
      "blockNumber": "0xed9e515",
      "gasUsed": "0x10a19",
      "effectiveGasPrice": "0x13134d0",
      "from": "0x97bf134cdf8a620aa0f10e140b89a2adaac2bbbf",
      "to": "0x280f784ff03772fbc82e20052bb0247d042a5b07",
      "contractAddress": null,
      "gasUsedForL1": "0x0",
      "l1BlockNumber": "0x9f1f24",
      "timeboosted": false
    },
    {
      "status": "0x1",
      "cumulativeGasUsed": "0x2a492",
      "logs": [
        {
          "address": "0x5140a037a1cd818a17ebfbf812d6fef60e8dc5a8",
          "topics": [
            "0xddf252ad1be2c89b69c2b068fc378daa952ba7f163c4a11628f55a4df523b3ef",
            "0x0000000000000000000000000000000000000000000000000000000000000000",
            "0x00000000000000000000000097bf134cdf8a620aa0f10e140b89a2adaac2bbbf"
          ],
          "data": "0x000000000000000000000000000000000000000000000002b5e3af16b1880000",
          "blockHash": "0xf2f08f7b3790715358ad9510b19d75db0baa063cf3a5de8a58454ebe4778f450",
          "blockNumber": "0xed9e522",
          "blockTimestamp": "0x69b1b22c",
          "transactionHash": "0x0edaa2600a437c98561a4e6bfc8372a23c4952ee1d6c231457a646fc2b1d45b1",
          "transactionIndex": "0x2",
          "logIndex": "0x3",
          "removed": false
        }
      ],
      "logsBloom": "0x00000000000000000000000000000000000000000000000000000000000000000000000000000000000000000000000004000000000000000000000000000000000000000000000000000008000000000004000000000000000000000000000000000000020000000000000000000800000000000400000000000010000000000000000000000000000000000000000000000000000000000000000000008000000000000000000000000000000000000000000000000000000000000000000000000002000010000000000000000000000000000000000000000000000020000000000000000000000000010000000000000000000000000000000000000000",
      "type": "0x2",
      "transactionHash": "0x0edaa2600a437c98561a4e6bfc8372a23c4952ee1d6c231457a646fc2b1d45b1",
      "transactionIndex": "0x2",
      "blockHash": "0xf2f08f7b3790715358ad9510b19d75db0baa063cf3a5de8a58454ebe4778f450",
      "blockNumber": "0xed9e522",
      "gasUsed": "0x10a0d",
      "effectiveGasPrice": "0x13207c0",
      "from": "0x97bf134cdf8a620aa0f10e140b89a2adaac2bbbf",
      "to": "0x5140a037a1cd818a17ebfbf812d6fef60e8dc5a8",
      "contractAddress": null,
      "gasUsedForL1": "0x0",
      "l1BlockNumber": "0x9f1f25",
      "timeboosted": false
    },
    {
      "status": "0x1",
      "cumulativeGasUsed": "0x10a0d",
      "logs": [
        {
          "address": "0xa52079ee2000c801a1d355d51f276b0a03f86d39",
          "topics": [
            "0xddf252ad1be2c89b69c2b068fc378daa952ba7f163c4a11628f55a4df523b3ef",
            "0x0000000000000000000000000000000000000000000000000000000000000000",
            "0x00000000000000000000000097bf134cdf8a620aa0f10e140b89a2adaac2bbbf"
          ],
          "data": "0x00000000000000000000000000000000000000000000d3c21bcecceda1000000",
          "blockHash": "0x949c93e3b964b48c9befef0e72eaa44a52bc614bcf2f0cf74450db6357079305",
          "blockNumber": "0xed9e529",
          "blockTimestamp": "0x69b1b22e",
          "transactionHash": "0xa1c49e3d4cb67bd8b325c621006bce3bbc946bdf2961746e98784671707fa5f5",
          "transactionIndex": "0x1",
          "logIndex": "0x0",
          "removed": false
        }
      ],
      "logsBloom": "0x00000000000000000000080000000000000000000000000000000000000000000000000000000000000000000000000000000000000000000000000000000000000000000000000000000008002000000004000000000000000000000000000000000000020000000000000000000800000000000000000000000010000000000000000000000000000000000000000000000000000000000000000000008000000000000000000000000000000000000000000000000000000000000000000000000002000010000000000000000000000000000000000000000000000020000000000000000000000000000000000002000000000000000000000000000000",
      "type": "0x2",
      "transactionHash": "0xa1c49e3d4cb67bd8b325c621006bce3bbc946bdf2961746e98784671707fa5f5",
      "transactionIndex": "0x1",
      "blockHash": "0x949c93e3b964b48c9befef0e72eaa44a52bc614bcf2f0cf74450db6357079305",
      "blockNumber": "0xed9e529",
      "gasUsed": "0x10a0d",
      "effectiveGasPrice": "0x13134d0",
      "from": "0x97bf134cdf8a620aa0f10e140b89a2adaac2bbbf",
      "to": "0xa52079ee2000c801a1d355d51f276b0a03f86d39",
      "contractAddress": null,
      "gasUsedForL1": "0x0",
      "l1BlockNumber": "0x9f1f25",
      "timeboosted": false
    },
    {
      "status": "0x1",
      "cumulativeGasUsed": "0xb4bd",
      "logs": [
        {
          "address": "0x9a1edfdca16212683e45fb3c285115a2668f3d10",
          "topics": [
            "0x8c5be1e5ebec7d5bd14f71427d1e84f3dd0314c0f7b2291e5b200ac8c7c3b925",
            "0x00000000000000000000000097bf134cdf8a620aa0f10e140b89a2adaac2bbbf",
            "0x000000000000000000000000c00416cbdc7268a5cb599382f05de9adee5a2ec1"
          ],
          "data": "0xffffffffffffffffffffffffffffffffffffffffffffffffffffffffffffffff",
          "blockHash": "0x2e0a1e6a94a3420f1d58bb810e1264c17c079412f03cb080a02b4da3e7772465",
          "blockNumber": "0xed9e535",
          "blockTimestamp": "0x69b1b231",
          "transactionHash": "0x7b7cc4f6f6e7d8f5cc7d2269571ef2c9893f2a0dd5fa915667dc73832aaa55ca",
          "transactionIndex": "0x1",
          "logIndex": "0x0",
          "removed": false
        }
      ],
      "logsBloom": "0x00000000200000000000000000000000000000000000000000000000000000000000000000000000000000000000000000000000400000000000000000200000000000000000000000000000000000000004000000000000000000000000000000000000000000000000000000000000000000000000000000000000000000000000000000000000000000000000000000000040000000000000000000008000020000000000000000000000000000000000000000000000000000000000000000000000000010010000000000000000000000000000000000000000000004000010000001000000000000000000000000000000000000000000000000000000",
      "type": "0x2",
      "transactionHash": "0x7b7cc4f6f6e7d8f5cc7d2269571ef2c9893f2a0dd5fa915667dc73832aaa55ca",
      "transactionIndex": "0x1",
      "blockHash": "0x2e0a1e6a94a3420f1d58bb810e1264c17c079412f03cb080a02b4da3e7772465",
      "blockNumber": "0xed9e535",
      "gasUsed": "0xb4bd",
      "effectiveGasPrice": "0x1313ca0",
      "from": "0x97bf134cdf8a620aa0f10e140b89a2adaac2bbbf",
      "to": "0x9a1edfdca16212683e45fb3c285115a2668f3d10",
      "contractAddress": null,
      "gasUsedForL1": "0x0",
      "l1BlockNumber": "0x9f1f25",
      "timeboosted": false
    },
    {
      "status": "0x1",
      "cumulativeGasUsed": "0x24f36",
      "logs": [
        {
          "address": "0x5c55e9075386bb76d77bed821e209fe6cac350b6",
          "topics": [
            "0x8c5be1e5ebec7d5bd14f71427d1e84f3dd0314c0f7b2291e5b200ac8c7c3b925",
            "0x00000000000000000000000097bf134cdf8a620aa0f10e140b89a2adaac2bbbf",
            "0x000000000000000000000000c00416cbdc7268a5cb599382f05de9adee5a2ec1"
          ],
          "data": "0xffffffffffffffffffffffffffffffffffffffffffffffffffffffffffffffff",
          "blockHash": "0xf60460184f28011c7e739300fd446943667195db88f324daf01ba8833994e891",
          "blockNumber": "0xed9e543",
          "blockTimestamp": "0x69b1b235",
          "transactionHash": "0x66a073698d44e4440720987bfb1503088d988acbdcedb6a709fb5f27d3aa5222",
          "transactionIndex": "0x2",
          "logIndex": "0x3",
          "removed": false
        }
      ],
      "logsBloom": "0x00000000200000000000000000000000000000000000000000000000000000000000000000000000000000000000000000000000400000000000000000200000000000000000000000000000000000000004000000000000000000000000000000000000000000000000000000000000000000000000000000000000004000000000000000000000000000000000000000000000000000000000000000008000020000000100010000000000000000000000000000000000000000000000000000000000000010000000000000000000000000000000000000000000000004000010000000000000000000000000000000000000000000000000000000000000",
      "type": "0x2",
      "transactionHash": "0x66a073698d44e4440720987bfb1503088d988acbdcedb6a709fb5f27d3aa5222",
      "transactionIndex": "0x2",
      "blockHash": "0xf60460184f28011c7e739300fd446943667195db88f324daf01ba8833994e891",
      "blockNumber": "0xed9e543",
      "gasUsed": "0xb4bd",
      "effectiveGasPrice": "0x134fd90",
      "from": "0x97bf134cdf8a620aa0f10e140b89a2adaac2bbbf",
      "to": "0x5c55e9075386bb76d77bed821e209fe6cac350b6",
      "contractAddress": null,
      "gasUsedForL1": "0x0",
      "l1BlockNumber": "0x9f1f25",
      "timeboosted": false
    },
    {
      "status": "0x1",
      "cumulativeGasUsed": "0x1749a",
      "logs": [
        {
          "address": "0x280f784ff03772fbc82e20052bb0247d042a5b07",
          "topics": [
            "0x8c5be1e5ebec7d5bd14f71427d1e84f3dd0314c0f7b2291e5b200ac8c7c3b925",
            "0x00000000000000000000000097bf134cdf8a620aa0f10e140b89a2adaac2bbbf",
            "0x000000000000000000000000c00416cbdc7268a5cb599382f05de9adee5a2ec1"
          ],
          "data": "0xffffffffffffffffffffffffffffffffffffffffffffffffffffffffffffffff",
          "blockHash": "0x851ed01fe2e591726119477928650ae09f835f6409d83a559117b598031d16c6",
          "blockNumber": "0xed9e551",
          "blockTimestamp": "0x69b1b238",
          "transactionHash": "0x5d4a0dc18d5600996a6c701dac9ca71b2dff6b603821ed7bb353ded7d170811b",
          "transactionIndex": "0x2",
          "logIndex": "0x1",
          "removed": false
        }
      ],
      "logsBloom": "0x00000000200000000000000000000000000000000000000000000000000000000000000000000000000000000000000000000000400000000000000000200000000000000000000000000000000000000004000000000000000000000000000000000000000000000000000000000000000000080000800000000000000000000000000000000000000000000000000000000000000000000000000000008000020000000000000000000000000000000000000000000000000000000000000000000000000010000000000000000000000000000000000000000000000004000010000000020000000000000000000000000000000000000000000000000000",
      "type": "0x2",
      "transactionHash": "0x5d4a0dc18d5600996a6c701dac9ca71b2dff6b603821ed7bb353ded7d170811b",
      "transactionIndex": "0x2",
      "blockHash": "0x851ed01fe2e591726119477928650ae09f835f6409d83a559117b598031d16c6",
      "blockNumber": "0xed9e551",
      "gasUsed": "0xb4bd",
      "effectiveGasPrice": "0x1314470",
      "from": "0x97bf134cdf8a620aa0f10e140b89a2adaac2bbbf",
      "to": "0x280f784ff03772fbc82e20052bb0247d042a5b07",
      "contractAddress": null,
      "gasUsedForL1": "0x0",
      "l1BlockNumber": "0x9f1f25",
      "timeboosted": false
    },
    {
      "status": "0x1",
      "cumulativeGasUsed": "0xb4bd",
      "logs": [
        {
          "address": "0x5140a037a1cd818a17ebfbf812d6fef60e8dc5a8",
          "topics": [
            "0x8c5be1e5ebec7d5bd14f71427d1e84f3dd0314c0f7b2291e5b200ac8c7c3b925",
            "0x00000000000000000000000097bf134cdf8a620aa0f10e140b89a2adaac2bbbf",
            "0x000000000000000000000000c00416cbdc7268a5cb599382f05de9adee5a2ec1"
          ],
          "data": "0xffffffffffffffffffffffffffffffffffffffffffffffffffffffffffffffff",
          "blockHash": "0xc8e64eb26fa79f5af70b095e94159fe7b9aca325ae15f891ec84d4f71827f562",
          "blockNumber": "0xed9e55a",
          "blockTimestamp": "0x69b1b23b",
          "transactionHash": "0xf2f39fb6c70b5f77a74a80ec2719a26556b30243deb234079f6d484bebc495d8",
          "transactionIndex": "0x1",
          "logIndex": "0x0",
          "removed": false
        }
      ],
      "logsBloom": "0x00000000200000000000000000000000000000000000000000000000000000000000000000000000000000000000000004000000400000000000000000200000000000000000000000000000000000000004000000000000000000000000000000000000000000000000000000000000000000000400000000000000000000000000000000000000000000000000000000000000000000000000000000008000020000000000000000000000000000000000000000000000000000000000000000000000000010000000000000000000000000000000000000000000000004000010000000000000000000010000000000000000000000000000000000000000",
      "type": "0x2",
      "transactionHash": "0xf2f39fb6c70b5f77a74a80ec2719a26556b30243deb234079f6d484bebc495d8",
      "transactionIndex": "0x1",
      "blockHash": "0xc8e64eb26fa79f5af70b095e94159fe7b9aca325ae15f891ec84d4f71827f562",
      "blockNumber": "0xed9e55a",
      "gasUsed": "0xb4bd",
      "effectiveGasPrice": "0x1316b80",
      "from": "0x97bf134cdf8a620aa0f10e140b89a2adaac2bbbf",
      "to": "0x5140a037a1cd818a17ebfbf812d6fef60e8dc5a8",
      "contractAddress": null,
      "gasUsedForL1": "0x0",
      "l1BlockNumber": "0x9f1f26",
      "timeboosted": false
    },
    {
      "status": "0x1",
      "cumulativeGasUsed": "0x17d62",
      "logs": [
        {
          "address": "0xa52079ee2000c801a1d355d51f276b0a03f86d39",
          "topics": [
            "0x8c5be1e5ebec7d5bd14f71427d1e84f3dd0314c0f7b2291e5b200ac8c7c3b925",
            "0x00000000000000000000000097bf134cdf8a620aa0f10e140b89a2adaac2bbbf",
            "0x000000000000000000000000c00416cbdc7268a5cb599382f05de9adee5a2ec1"
          ],
          "data": "0xffffffffffffffffffffffffffffffffffffffffffffffffffffffffffffffff",
          "blockHash": "0x25fedfa7e714407503f4230acd17da2f1383f64bfac368c4548fc28430db57cf",
          "blockNumber": "0xed9e55f",
          "blockTimestamp": "0x69b1b23d",
          "transactionHash": "0x3f3ff97f8f8bbe6cf51a4ee41af7bd684e7a3e40a5772c545077251d188b338f",
          "transactionIndex": "0x2",
          "logIndex": "0x1",
          "removed": false
        }
      ],
      "logsBloom": "0x00000000200000000000080000000000000000000000000000000000000000000000000000000000000000000000000000000000400000000000000000200000000000000000000000000000002000000004000000000000000000000000000000000000000000000000000000000000000000000000000000000000000000000000000000000000000000000000000000000000000000000000000000008000020000000000000000000000000000000000000000000000000000000000000000000000000010000000000000000000000000000000000000000000000004000010000000000000000000000000000002000000000000000000000000000000",
      "type": "0x2",
      "transactionHash": "0x3f3ff97f8f8bbe6cf51a4ee41af7bd684e7a3e40a5772c545077251d188b338f",
      "transactionIndex": "0x2",
      "blockHash": "0x25fedfa7e714407503f4230acd17da2f1383f64bfac368c4548fc28430db57cf",
      "blockNumber": "0xed9e55f",
      "gasUsed": "0xb4bd",
      "effectiveGasPrice": "0x1313ca0",
      "from": "0x97bf134cdf8a620aa0f10e140b89a2adaac2bbbf",
      "to": "0xa52079ee2000c801a1d355d51f276b0a03f86d39",
      "contractAddress": null,
      "gasUsedForL1": "0x0",
      "l1BlockNumber": "0x9f1f26",
      "timeboosted": false
    },
    {
      "status": "0x1",
      "cumulativeGasUsed": "0x1ccf4b",
      "logs": [
        {
          "address": "0xf290c44b751262230fb3737abf6219199af92f37",
          "topics": [
            "0xa92a2b95c8d8436f6ac4c673c61487364f877efb9534d4296fad8ef904546c94",
            "0x0000000000000000000000005c55e9075386bb76d77bed821e209fe6cac350b6",
            "0x0000000000000000000000009a1edfdca16212683e45fb3c285115a2668f3d10"
          ],
          "data": "0x0000000000000000000000008970b9b29cd7c3d898eedfc5736541da88aab74f",
          "blockHash": "0x2c76b055dc30270f2f7bc39e8bf47f5f48cb5e2c5dfc4303351559af32681840",
          "blockNumber": "0xed9e56d",
          "blockTimestamp": "0x69b1b241",
          "transactionHash": "0x661ba82649a038e68e9988e1e93192b6ee74cde18942f07af9ab53112c0ac2f4",
          "transactionIndex": "0x2",
          "logIndex": "0x1",
          "removed": false
        },
        {
          "address": "0x9a1edfdca16212683e45fb3c285115a2668f3d10",
          "topics": [
            "0xddf252ad1be2c89b69c2b068fc378daa952ba7f163c4a11628f55a4df523b3ef",
            "0x00000000000000000000000097bf134cdf8a620aa0f10e140b89a2adaac2bbbf",
            "0x0000000000000000000000008970b9b29cd7c3d898eedfc5736541da88aab74f"
          ],
          "data": "0x0000000000000000000000000000000000000000000000056bc75e2d63100000",
          "blockHash": "0x2c76b055dc30270f2f7bc39e8bf47f5f48cb5e2c5dfc4303351559af32681840",
          "blockNumber": "0xed9e56d",
          "blockTimestamp": "0x69b1b241",
          "transactionHash": "0x661ba82649a038e68e9988e1e93192b6ee74cde18942f07af9ab53112c0ac2f4",
          "transactionIndex": "0x2",
          "logIndex": "0x2",
          "removed": false
        },
        {
          "address": "0x5c55e9075386bb76d77bed821e209fe6cac350b6",
          "topics": [
            "0xddf252ad1be2c89b69c2b068fc378daa952ba7f163c4a11628f55a4df523b3ef",
            "0x00000000000000000000000097bf134cdf8a620aa0f10e140b89a2adaac2bbbf",
            "0x0000000000000000000000008970b9b29cd7c3d898eedfc5736541da88aab74f"
          ],
          "data": "0x000000000000000000000000000000000000000000002a5a058fc295ed000000",
          "blockHash": "0x2c76b055dc30270f2f7bc39e8bf47f5f48cb5e2c5dfc4303351559af32681840",
          "blockNumber": "0xed9e56d",
          "blockTimestamp": "0x69b1b241",
          "transactionHash": "0x661ba82649a038e68e9988e1e93192b6ee74cde18942f07af9ab53112c0ac2f4",
          "transactionIndex": "0x2",
          "logIndex": "0x3",
          "removed": false
        },
        {
          "address": "0x8970b9b29cd7c3d898eedfc5736541da88aab74f",
          "topics": [
            "0xddf252ad1be2c89b69c2b068fc378daa952ba7f163c4a11628f55a4df523b3ef",
            "0x0000000000000000000000000000000000000000000000000000000000000000",
            "0x0000000000000000000000000000000000000000000000000000000000000001"
          ],
          "data": "0x00000000000000000000000000000000000000000000000000000000000003e8",
          "blockHash": "0x2c76b055dc30270f2f7bc39e8bf47f5f48cb5e2c5dfc4303351559af32681840",
          "blockNumber": "0xed9e56d",
          "blockTimestamp": "0x69b1b241",
          "transactionHash": "0x661ba82649a038e68e9988e1e93192b6ee74cde18942f07af9ab53112c0ac2f4",
          "transactionIndex": "0x2",
          "logIndex": "0x4",
          "removed": false
        },
        {
          "address": "0x8970b9b29cd7c3d898eedfc5736541da88aab74f",
          "topics": [
            "0xddf252ad1be2c89b69c2b068fc378daa952ba7f163c4a11628f55a4df523b3ef",
            "0x0000000000000000000000000000000000000000000000000000000000000000",
            "0x00000000000000000000000097bf134cdf8a620aa0f10e140b89a2adaac2bbbf"
          ],
          "data": "0x0000000000000000000000000000000000000000000000f26f5a94ae2a3e374a",
          "blockHash": "0x2c76b055dc30270f2f7bc39e8bf47f5f48cb5e2c5dfc4303351559af32681840",
          "blockNumber": "0xed9e56d",
          "blockTimestamp": "0x69b1b241",
          "transactionHash": "0x661ba82649a038e68e9988e1e93192b6ee74cde18942f07af9ab53112c0ac2f4",
          "transactionIndex": "0x2",
          "logIndex": "0x5",
          "removed": false
        },
        {
          "address": "0x8970b9b29cd7c3d898eedfc5736541da88aab74f",
          "topics": [
            "0x4c209b5fc8ad50758f13e2e1088ba56a560dff690a1c6fef26394f4c03821c4f",
            "0x000000000000000000000000c00416cbdc7268a5cb599382f05de9adee5a2ec1"
          ],
          "data": "0x000000000000000000000000000000000000000000002a5a058fc295ed0000000000000000000000000000000000000000000000000000056bc75e2d63100000",
          "blockHash": "0x2c76b055dc30270f2f7bc39e8bf47f5f48cb5e2c5dfc4303351559af32681840",
          "blockNumber": "0xed9e56d",
          "blockTimestamp": "0x69b1b241",
          "transactionHash": "0x661ba82649a038e68e9988e1e93192b6ee74cde18942f07af9ab53112c0ac2f4",
          "transactionIndex": "0x2",
          "logIndex": "0x6",
          "removed": false
        },
        {
          "address": "0x8970b9b29cd7c3d898eedfc5736541da88aab74f",
          "topics": [
            "0x1c411e9a96e071241c2f21f7726b17ae89e3cab4c78be50e062b03a9fffbbad1"
          ],
          "data": "0x000000000000000000000000000000000000000000002a5a058fc295ed0000000000000000000000000000000000000000000000000000056bc75e2d63100000",
          "blockHash": "0x2c76b055dc30270f2f7bc39e8bf47f5f48cb5e2c5dfc4303351559af32681840",
          "blockNumber": "0xed9e56d",
          "blockTimestamp": "0x69b1b241",
          "transactionHash": "0x661ba82649a038e68e9988e1e93192b6ee74cde18942f07af9ab53112c0ac2f4",
          "transactionIndex": "0x2",
          "logIndex": "0x7",
          "removed": false
        }
      ],
      "logsBloom": "0x00000000200000000000010080002008000000008000000000000000000001000000000000000000000010000004000000000000400000000000000000040000000000004000000000000008000000000004000000040000800000800000000000000000020000000000000000000800000000000008800000000010004000000000000000000001000000000000000000000040001000080000000000008000000000000100010000000000000000000000000000100000000000000000000000000082000010010000004010020000000200000000001000000000000064000000000001000000000000000000040000000000000000000000000000000000",
      "type": "0x2",
      "transactionHash": "0x661ba82649a038e68e9988e1e93192b6ee74cde18942f07af9ab53112c0ac2f4",
      "transactionIndex": "0x2",
      "blockHash": "0x2c76b055dc30270f2f7bc39e8bf47f5f48cb5e2c5dfc4303351559af32681840",
      "blockNumber": "0xed9e56d",
      "gasUsed": "0x1c0f7a",
      "effectiveGasPrice": "0x131aa00",
      "from": "0x97bf134cdf8a620aa0f10e140b89a2adaac2bbbf",
      "to": "0xc00416cbdc7268a5cb599382f05de9adee5a2ec1",
      "contractAddress": null,
      "gasUsedForL1": "0x0",
      "l1BlockNumber": "0x9f1f26",
      "timeboosted": false
    },
    {
      "status": "0x1",
      "cumulativeGasUsed": "0x1bccae",
      "logs": [
        {
          "address": "0xf290c44b751262230fb3737abf6219199af92f37",
          "topics": [
            "0xa92a2b95c8d8436f6ac4c673c61487364f877efb9534d4296fad8ef904546c94",
            "0x000000000000000000000000280f784ff03772fbc82e20052bb0247d042a5b07",
            "0x0000000000000000000000009a1edfdca16212683e45fb3c285115a2668f3d10"
          ],
          "data": "0x0000000000000000000000007bb090b690ce5b4cb5e6ebcbb98fc5d77124082f",
          "blockHash": "0xc70971f368d086bf4d09be0a6f4f2324f3cca8d59e78c094688d3b03a728d3e9",
          "blockNumber": "0xed9e574",
          "blockTimestamp": "0x69b1b242",
          "transactionHash": "0x9e7c1afb2552a8483b8056610c5ffa48140234e9c3db3d7d82fa1ea00ef8838d",
          "transactionIndex": "0x1",
          "logIndex": "0x0",
          "removed": false
        },
        {
          "address": "0x9a1edfdca16212683e45fb3c285115a2668f3d10",
          "topics": [
            "0xddf252ad1be2c89b69c2b068fc378daa952ba7f163c4a11628f55a4df523b3ef",
            "0x00000000000000000000000097bf134cdf8a620aa0f10e140b89a2adaac2bbbf",
            "0x0000000000000000000000007bb090b690ce5b4cb5e6ebcbb98fc5d77124082f"
          ],
          "data": "0x0000000000000000000000000000000000000000000000056bc75e2d63100000",
          "blockHash": "0xc70971f368d086bf4d09be0a6f4f2324f3cca8d59e78c094688d3b03a728d3e9",
          "blockNumber": "0xed9e574",
          "blockTimestamp": "0x69b1b242",
          "transactionHash": "0x9e7c1afb2552a8483b8056610c5ffa48140234e9c3db3d7d82fa1ea00ef8838d",
          "transactionIndex": "0x1",
          "logIndex": "0x1",
          "removed": false
        },
        {
          "address": "0x280f784ff03772fbc82e20052bb0247d042a5b07",
          "topics": [
            "0xddf252ad1be2c89b69c2b068fc378daa952ba7f163c4a11628f55a4df523b3ef",
            "0x00000000000000000000000097bf134cdf8a620aa0f10e140b89a2adaac2bbbf",
            "0x0000000000000000000000007bb090b690ce5b4cb5e6ebcbb98fc5d77124082f"
          ],
          "data": "0x000000000000000000000000000000000000000000002a5a058fc295ed000000",
          "blockHash": "0xc70971f368d086bf4d09be0a6f4f2324f3cca8d59e78c094688d3b03a728d3e9",
          "blockNumber": "0xed9e574",
          "blockTimestamp": "0x69b1b242",
          "transactionHash": "0x9e7c1afb2552a8483b8056610c5ffa48140234e9c3db3d7d82fa1ea00ef8838d",
          "transactionIndex": "0x1",
          "logIndex": "0x2",
          "removed": false
        },
        {
          "address": "0x7bb090b690ce5b4cb5e6ebcbb98fc5d77124082f",
          "topics": [
            "0xddf252ad1be2c89b69c2b068fc378daa952ba7f163c4a11628f55a4df523b3ef",
            "0x0000000000000000000000000000000000000000000000000000000000000000",
            "0x0000000000000000000000000000000000000000000000000000000000000001"
          ],
          "data": "0x00000000000000000000000000000000000000000000000000000000000003e8",
          "blockHash": "0xc70971f368d086bf4d09be0a6f4f2324f3cca8d59e78c094688d3b03a728d3e9",
          "blockNumber": "0xed9e574",
          "blockTimestamp": "0x69b1b242",
          "transactionHash": "0x9e7c1afb2552a8483b8056610c5ffa48140234e9c3db3d7d82fa1ea00ef8838d",
          "transactionIndex": "0x1",
          "logIndex": "0x3",
          "removed": false
        },
        {
          "address": "0x7bb090b690ce5b4cb5e6ebcbb98fc5d77124082f",
          "topics": [
            "0xddf252ad1be2c89b69c2b068fc378daa952ba7f163c4a11628f55a4df523b3ef",
            "0x0000000000000000000000000000000000000000000000000000000000000000",
            "0x00000000000000000000000097bf134cdf8a620aa0f10e140b89a2adaac2bbbf"
          ],
          "data": "0x0000000000000000000000000000000000000000000000f26f5a94ae2a3e374a",
          "blockHash": "0xc70971f368d086bf4d09be0a6f4f2324f3cca8d59e78c094688d3b03a728d3e9",
          "blockNumber": "0xed9e574",
          "blockTimestamp": "0x69b1b242",
          "transactionHash": "0x9e7c1afb2552a8483b8056610c5ffa48140234e9c3db3d7d82fa1ea00ef8838d",
          "transactionIndex": "0x1",
          "logIndex": "0x4",
          "removed": false
        },
        {
          "address": "0x7bb090b690ce5b4cb5e6ebcbb98fc5d77124082f",
          "topics": [
            "0x4c209b5fc8ad50758f13e2e1088ba56a560dff690a1c6fef26394f4c03821c4f",
            "0x000000000000000000000000c00416cbdc7268a5cb599382f05de9adee5a2ec1"
          ],
          "data": "0x000000000000000000000000000000000000000000002a5a058fc295ed0000000000000000000000000000000000000000000000000000056bc75e2d63100000",
          "blockHash": "0xc70971f368d086bf4d09be0a6f4f2324f3cca8d59e78c094688d3b03a728d3e9",
          "blockNumber": "0xed9e574",
          "blockTimestamp": "0x69b1b242",
          "transactionHash": "0x9e7c1afb2552a8483b8056610c5ffa48140234e9c3db3d7d82fa1ea00ef8838d",
          "transactionIndex": "0x1",
          "logIndex": "0x5",
          "removed": false
        },
        {
          "address": "0x7bb090b690ce5b4cb5e6ebcbb98fc5d77124082f",
          "topics": [
            "0x1c411e9a96e071241c2f21f7726b17ae89e3cab4c78be50e062b03a9fffbbad1"
          ],
          "data": "0x000000000000000000000000000000000000000000002a5a058fc295ed0000000000000000000000000000000000000000000000000000056bc75e2d63100000",
          "blockHash": "0xc70971f368d086bf4d09be0a6f4f2324f3cca8d59e78c094688d3b03a728d3e9",
          "blockNumber": "0xed9e574",
          "blockTimestamp": "0x69b1b242",
          "transactionHash": "0x9e7c1afb2552a8483b8056610c5ffa48140234e9c3db3d7d82fa1ea00ef8838d",
          "transactionIndex": "0x1",
          "logIndex": "0x6",
          "removed": false
        }
      ],
      "logsBloom": "0x00000002204000000000010080000000000000000000000000200000000001000000000000000000004000000000000000000000400000000000000000040000000000004000000000000008000000000004000000040000800000000000000000000000020000000000000020000800000000080008800000000010000000000002000000000001000000020000000000000040000000080000000000008000000000000000000000000000000000000000000000100000000000000000000000000002000010010000004000020000000200000000021000000000000064000000000001020000000000000000040000000000000000000000000000000004",
      "type": "0x2",
      "transactionHash": "0x9e7c1afb2552a8483b8056610c5ffa48140234e9c3db3d7d82fa1ea00ef8838d",
      "transactionIndex": "0x1",
      "blockHash": "0xc70971f368d086bf4d09be0a6f4f2324f3cca8d59e78c094688d3b03a728d3e9",
      "blockNumber": "0xed9e574",
      "gasUsed": "0x1bccae",
      "effectiveGasPrice": "0x13163b0",
      "from": "0x97bf134cdf8a620aa0f10e140b89a2adaac2bbbf",
      "to": "0xc00416cbdc7268a5cb599382f05de9adee5a2ec1",
      "contractAddress": null,
      "gasUsedForL1": "0x0",
      "l1BlockNumber": "0x9f1f26",
      "timeboosted": false
    },
    {
      "status": "0x1",
      "cumulativeGasUsed": "0x1e8a78",
      "logs": [
        {
          "address": "0xf290c44b751262230fb3737abf6219199af92f37",
          "topics": [
            "0xa92a2b95c8d8436f6ac4c673c61487364f877efb9534d4296fad8ef904546c94",
            "0x0000000000000000000000005140a037a1cd818a17ebfbf812d6fef60e8dc5a8",
            "0x0000000000000000000000005c55e9075386bb76d77bed821e209fe6cac350b6"
          ],
          "data": "0x000000000000000000000000d8f7c5ceceebffc092928f0265a14f395f8b4f77",
          "blockHash": "0xc3d5f336001009dbedcfd1cae9f2d106e2612d8c9cf2c3761b0a770f1a79b73c",
          "blockNumber": "0xed9e57b",
          "blockTimestamp": "0x69b1b244",
          "transactionHash": "0x15331768db5db19c14a1435eed831e2c383d32a02a9462ae90cdad1a63db7037",
          "transactionIndex": "0x3",
          "logIndex": "0x4",
          "removed": false
        },
        {
          "address": "0x5140a037a1cd818a17ebfbf812d6fef60e8dc5a8",
          "topics": [
            "0xddf252ad1be2c89b69c2b068fc378daa952ba7f163c4a11628f55a4df523b3ef",
            "0x00000000000000000000000097bf134cdf8a620aa0f10e140b89a2adaac2bbbf",
            "0x000000000000000000000000d8f7c5ceceebffc092928f0265a14f395f8b4f77"
          ],
          "data": "0x0000000000000000000000000000000000000000000000008ac7230489e80000",
          "blockHash": "0xc3d5f336001009dbedcfd1cae9f2d106e2612d8c9cf2c3761b0a770f1a79b73c",
          "blockNumber": "0xed9e57b",
          "blockTimestamp": "0x69b1b244",
          "transactionHash": "0x15331768db5db19c14a1435eed831e2c383d32a02a9462ae90cdad1a63db7037",
          "transactionIndex": "0x3",
          "logIndex": "0x5",
          "removed": false
        },
        {
          "address": "0x5c55e9075386bb76d77bed821e209fe6cac350b6",
          "topics": [
            "0xddf252ad1be2c89b69c2b068fc378daa952ba7f163c4a11628f55a4df523b3ef",
            "0x00000000000000000000000097bf134cdf8a620aa0f10e140b89a2adaac2bbbf",
            "0x000000000000000000000000d8f7c5ceceebffc092928f0265a14f395f8b4f77"
          ],
          "data": "0x000000000000000000000000000000000000000000007f0e10af47c1c7000000",
          "blockHash": "0xc3d5f336001009dbedcfd1cae9f2d106e2612d8c9cf2c3761b0a770f1a79b73c",
          "blockNumber": "0xed9e57b",
          "blockTimestamp": "0x69b1b244",
          "transactionHash": "0x15331768db5db19c14a1435eed831e2c383d32a02a9462ae90cdad1a63db7037",
          "transactionIndex": "0x3",
          "logIndex": "0x6",
          "removed": false
        },
        {
          "address": "0xd8f7c5ceceebffc092928f0265a14f395f8b4f77",
          "topics": [
            "0xddf252ad1be2c89b69c2b068fc378daa952ba7f163c4a11628f55a4df523b3ef",
            "0x0000000000000000000000000000000000000000000000000000000000000000",
            "0x0000000000000000000000000000000000000000000000000000000000000001"
          ],
          "data": "0x00000000000000000000000000000000000000000000000000000000000003e8",
          "blockHash": "0xc3d5f336001009dbedcfd1cae9f2d106e2612d8c9cf2c3761b0a770f1a79b73c",
          "blockNumber": "0xed9e57b",
          "blockTimestamp": "0x69b1b244",
          "transactionHash": "0x15331768db5db19c14a1435eed831e2c383d32a02a9462ae90cdad1a63db7037",
          "transactionIndex": "0x3",
          "logIndex": "0x7",
          "removed": false
        },
        {
          "address": "0xd8f7c5ceceebffc092928f0265a14f395f8b4f77",
          "topics": [
            "0xddf252ad1be2c89b69c2b068fc378daa952ba7f163c4a11628f55a4df523b3ef",
            "0x0000000000000000000000000000000000000000000000000000000000000000",
            "0x00000000000000000000000097bf134cdf8a620aa0f10e140b89a2adaac2bbbf"
          ],
          "data": "0x000000000000000000000000000000000000000000000084c97fb71bc248422d",
          "blockHash": "0xc3d5f336001009dbedcfd1cae9f2d106e2612d8c9cf2c3761b0a770f1a79b73c",
          "blockNumber": "0xed9e57b",
          "blockTimestamp": "0x69b1b244",
          "transactionHash": "0x15331768db5db19c14a1435eed831e2c383d32a02a9462ae90cdad1a63db7037",
          "transactionIndex": "0x3",
          "logIndex": "0x8",
          "removed": false
        },
        {
          "address": "0xd8f7c5ceceebffc092928f0265a14f395f8b4f77",
          "topics": [
            "0x4c209b5fc8ad50758f13e2e1088ba56a560dff690a1c6fef26394f4c03821c4f",
            "0x000000000000000000000000c00416cbdc7268a5cb599382f05de9adee5a2ec1"
          ],
          "data": "0x0000000000000000000000000000000000000000000000008ac7230489e80000000000000000000000000000000000000000000000007f0e10af47c1c7000000",
          "blockHash": "0xc3d5f336001009dbedcfd1cae9f2d106e2612d8c9cf2c3761b0a770f1a79b73c",
          "blockNumber": "0xed9e57b",
          "blockTimestamp": "0x69b1b244",
          "transactionHash": "0x15331768db5db19c14a1435eed831e2c383d32a02a9462ae90cdad1a63db7037",
          "transactionIndex": "0x3",
          "logIndex": "0x9",
          "removed": false
        },
        {
          "address": "0xd8f7c5ceceebffc092928f0265a14f395f8b4f77",
          "topics": [
            "0x1c411e9a96e071241c2f21f7726b17ae89e3cab4c78be50e062b03a9fffbbad1"
          ],
          "data": "0x0000000000000000000000000000000000000000000000008ac7230489e80000000000000000000000000000000000000000000000007f0e10af47c1c7000000",
          "blockHash": "0xc3d5f336001009dbedcfd1cae9f2d106e2612d8c9cf2c3761b0a770f1a79b73c",
          "blockNumber": "0xed9e57b",
          "blockTimestamp": "0x69b1b244",
          "transactionHash": "0x15331768db5db19c14a1435eed831e2c383d32a02a9462ae90cdad1a63db7037",
          "transactionIndex": "0x3",
          "logIndex": "0xa",
          "removed": false
        }
      ],
      "logsBloom": "0x00000000200000000000010080000008000000000000000000000000000001000000000000000000000018000004000004000000400000000000000000040000004000004000000000000008000000000004001000040000800000000000000000000000020000000000000000000800000000000408000000004010004000000000000008000001000000000000000000000000001000080000000000808000000000000100010000000000000000000000000000000000000000000000000000000002000010000000004000020000000000000000001400000000000064000000000000000000000000010000040000000000000000000000040000000000",
      "type": "0x2",
      "transactionHash": "0x15331768db5db19c14a1435eed831e2c383d32a02a9462ae90cdad1a63db7037",
      "transactionIndex": "0x3",
      "blockHash": "0xc3d5f336001009dbedcfd1cae9f2d106e2612d8c9cf2c3761b0a770f1a79b73c",
      "blockNumber": "0xed9e57b",
      "gasUsed": "0x1bcc84",
      "effectiveGasPrice": "0x1313ca0",
      "from": "0x97bf134cdf8a620aa0f10e140b89a2adaac2bbbf",
      "to": "0xc00416cbdc7268a5cb599382f05de9adee5a2ec1",
      "contractAddress": null,
      "gasUsedForL1": "0x0",
      "l1BlockNumber": "0x9f1f26",
      "timeboosted": false
    },
    {
      "status": "0x1",
      "cumulativeGasUsed": "0x3420f2",
      "logs": [
        {
          "address": "0xf290c44b751262230fb3737abf6219199af92f37",
          "topics": [
            "0xa92a2b95c8d8436f6ac4c673c61487364f877efb9534d4296fad8ef904546c94",
            "0x0000000000000000000000005c55e9075386bb76d77bed821e209fe6cac350b6",
            "0x000000000000000000000000a52079ee2000c801a1d355d51f276b0a03f86d39"
          ],
          "data": "0x000000000000000000000000f369dde349885389a3b75594862537f5c451c3f0",
          "blockHash": "0x37b55e1fe76ede6e8788e4f80849430d043e5994fb91c12739c2d596fc54195a",
          "blockNumber": "0xed9e582",
          "blockTimestamp": "0x69b1b246",
          "transactionHash": "0xf84a36afbc498aad4c8a97c470af66a8d50bf56017cbb74472e52c55e8e08d6e",
          "transactionIndex": "0x3",
          "logIndex": "0x22",
          "removed": false
        },
        {
          "address": "0xa52079ee2000c801a1d355d51f276b0a03f86d39",
          "topics": [
            "0xddf252ad1be2c89b69c2b068fc378daa952ba7f163c4a11628f55a4df523b3ef",
            "0x00000000000000000000000097bf134cdf8a620aa0f10e140b89a2adaac2bbbf",
            "0x000000000000000000000000f369dde349885389a3b75594862537f5c451c3f0"
          ],
          "data": "0x0000000000000000000000000000000000000000000069e10de76676d0800000",
          "blockHash": "0x37b55e1fe76ede6e8788e4f80849430d043e5994fb91c12739c2d596fc54195a",
          "blockNumber": "0xed9e582",
          "blockTimestamp": "0x69b1b246",
          "transactionHash": "0xf84a36afbc498aad4c8a97c470af66a8d50bf56017cbb74472e52c55e8e08d6e",
          "transactionIndex": "0x3",
          "logIndex": "0x23",
          "removed": false
        },
        {
          "address": "0x5c55e9075386bb76d77bed821e209fe6cac350b6",
          "topics": [
            "0xddf252ad1be2c89b69c2b068fc378daa952ba7f163c4a11628f55a4df523b3ef",
            "0x00000000000000000000000097bf134cdf8a620aa0f10e140b89a2adaac2bbbf",
            "0x000000000000000000000000f369dde349885389a3b75594862537f5c451c3f0"
          ],
          "data": "0x0000000000000000000000000000000000000000000069e10de76676d0800000",
          "blockHash": "0x37b55e1fe76ede6e8788e4f80849430d043e5994fb91c12739c2d596fc54195a",
          "blockNumber": "0xed9e582",
          "blockTimestamp": "0x69b1b246",
          "transactionHash": "0xf84a36afbc498aad4c8a97c470af66a8d50bf56017cbb74472e52c55e8e08d6e",
          "transactionIndex": "0x3",
          "logIndex": "0x24",
          "removed": false
        },
        {
          "address": "0xf369dde349885389a3b75594862537f5c451c3f0",
          "topics": [
            "0xddf252ad1be2c89b69c2b068fc378daa952ba7f163c4a11628f55a4df523b3ef",
            "0x0000000000000000000000000000000000000000000000000000000000000000",
            "0x0000000000000000000000000000000000000000000000000000000000000001"
          ],
          "data": "0x00000000000000000000000000000000000000000000000000000000000003e8",
          "blockHash": "0x37b55e1fe76ede6e8788e4f80849430d043e5994fb91c12739c2d596fc54195a",
          "blockNumber": "0xed9e582",
          "blockTimestamp": "0x69b1b246",
          "transactionHash": "0xf84a36afbc498aad4c8a97c470af66a8d50bf56017cbb74472e52c55e8e08d6e",
          "transactionIndex": "0x3",
          "logIndex": "0x25",
          "removed": false
        },
        {
          "address": "0xf369dde349885389a3b75594862537f5c451c3f0",
          "topics": [
            "0xddf252ad1be2c89b69c2b068fc378daa952ba7f163c4a11628f55a4df523b3ef",
            "0x0000000000000000000000000000000000000000000000000000000000000000",
            "0x00000000000000000000000097bf134cdf8a620aa0f10e140b89a2adaac2bbbf"
          ],
          "data": "0x0000000000000000000000000000000000000000000069e10de76676d07ffc18",
          "blockHash": "0x37b55e1fe76ede6e8788e4f80849430d043e5994fb91c12739c2d596fc54195a",
          "blockNumber": "0xed9e582",
          "blockTimestamp": "0x69b1b246",
          "transactionHash": "0xf84a36afbc498aad4c8a97c470af66a8d50bf56017cbb74472e52c55e8e08d6e",
          "transactionIndex": "0x3",
          "logIndex": "0x26",
          "removed": false
        },
        {
          "address": "0xf369dde349885389a3b75594862537f5c451c3f0",
          "topics": [
            "0x4c209b5fc8ad50758f13e2e1088ba56a560dff690a1c6fef26394f4c03821c4f",
            "0x000000000000000000000000c00416cbdc7268a5cb599382f05de9adee5a2ec1"
          ],
          "data": "0x0000000000000000000000000000000000000000000069e10de76676d08000000000000000000000000000000000000000000000000069e10de76676d0800000",
          "blockHash": "0x37b55e1fe76ede6e8788e4f80849430d043e5994fb91c12739c2d596fc54195a",
          "blockNumber": "0xed9e582",
          "blockTimestamp": "0x69b1b246",
          "transactionHash": "0xf84a36afbc498aad4c8a97c470af66a8d50bf56017cbb74472e52c55e8e08d6e",
          "transactionIndex": "0x3",
          "logIndex": "0x27",
          "removed": false
        },
        {
          "address": "0xf369dde349885389a3b75594862537f5c451c3f0",
          "topics": [
            "0x1c411e9a96e071241c2f21f7726b17ae89e3cab4c78be50e062b03a9fffbbad1"
          ],
          "data": "0x0000000000000000000000000000000000000000000069e10de76676d08000000000000000000000000000000000000000000000000069e10de76676d0800000",
          "blockHash": "0x37b55e1fe76ede6e8788e4f80849430d043e5994fb91c12739c2d596fc54195a",
          "blockNumber": "0xed9e582",
          "blockTimestamp": "0x69b1b246",
          "transactionHash": "0xf84a36afbc498aad4c8a97c470af66a8d50bf56017cbb74472e52c55e8e08d6e",
          "transactionIndex": "0x3",
          "logIndex": "0x28",
          "removed": false
        }
      ],
      "logsBloom": "0x00000000200000000000090080000008000000000000000000000000000001000000000000000000000000000004000000000000400000010000000000040000000000004000000000000008002000000004008000040000800000000000000000000001020000000000000000000800000000000008000000000010004000000000000000000001000000000000000000000000001000080000010000008000000000000100010000000000000080000000000000000002000000000000000000000002000010000000004000020000000000000000001002000000020064000000000000000000000000080000040002000000000000000000000000000000",
      "type": "0x2",
      "transactionHash": "0xf84a36afbc498aad4c8a97c470af66a8d50bf56017cbb74472e52c55e8e08d6e",
      "transactionIndex": "0x3",
      "blockHash": "0x37b55e1fe76ede6e8788e4f80849430d043e5994fb91c12739c2d596fc54195a",
      "blockNumber": "0xed9e582",
      "gasUsed": "0x1bccc6",
      "effectiveGasPrice": "0x1312d00",
      "from": "0x97bf134cdf8a620aa0f10e140b89a2adaac2bbbf",
      "to": "0xc00416cbdc7268a5cb599382f05de9adee5a2ec1",
      "contractAddress": null,
      "gasUsedForL1": "0x0",
      "l1BlockNumber": "0x9f1f26",
      "timeboosted": false
    },
    {
      "status": "0x1",
      "cumulativeGasUsed": "0x1d66f7",
      "logs": [
        {
          "address": "0xf290c44b751262230fb3737abf6219199af92f37",
          "topics": [
            "0xa92a2b95c8d8436f6ac4c673c61487364f877efb9534d4296fad8ef904546c94",
            "0x0000000000000000000000009a1edfdca16212683e45fb3c285115a2668f3d10",
            "0x000000000000000000000000a52079ee2000c801a1d355d51f276b0a03f86d39"
          ],
          "data": "0x000000000000000000000000bf54d16a2dc5b6c810b97ca634d54f162f608f3d",
          "blockHash": "0x90751673bb5c6113e964d83485e3e5e808292665e8175f3cca3287ad6145fb13",
          "blockNumber": "0xed9e589",
          "blockTimestamp": "0x69b1b248",
          "transactionHash": "0xcbad052fff124cd3ea619b0d2291195c25748a3baaf9e0df90de2c530f8ddbde",
          "transactionIndex": "0x2",
          "logIndex": "0x3",
          "removed": false
        },
        {
          "address": "0x9a1edfdca16212683e45fb3c285115a2668f3d10",
          "topics": [
            "0xddf252ad1be2c89b69c2b068fc378daa952ba7f163c4a11628f55a4df523b3ef",
            "0x00000000000000000000000097bf134cdf8a620aa0f10e140b89a2adaac2bbbf",
            "0x000000000000000000000000bf54d16a2dc5b6c810b97ca634d54f162f608f3d"
          ],
          "data": "0x000000000000000000000000000000000000000000000002b5e3af16b1880000",
          "blockHash": "0x90751673bb5c6113e964d83485e3e5e808292665e8175f3cca3287ad6145fb13",
          "blockNumber": "0xed9e589",
          "blockTimestamp": "0x69b1b248",
          "transactionHash": "0xcbad052fff124cd3ea619b0d2291195c25748a3baaf9e0df90de2c530f8ddbde",
          "transactionIndex": "0x2",
          "logIndex": "0x4",
          "removed": false
        },
        {
          "address": "0xa52079ee2000c801a1d355d51f276b0a03f86d39",
          "topics": [
            "0xddf252ad1be2c89b69c2b068fc378daa952ba7f163c4a11628f55a4df523b3ef",
            "0x00000000000000000000000097bf134cdf8a620aa0f10e140b89a2adaac2bbbf",
            "0x000000000000000000000000bf54d16a2dc5b6c810b97ca634d54f162f608f3d"
          ],
          "data": "0x00000000000000000000000000000000000000000000152d02c7e14af6800000",
          "blockHash": "0x90751673bb5c6113e964d83485e3e5e808292665e8175f3cca3287ad6145fb13",
          "blockNumber": "0xed9e589",
          "blockTimestamp": "0x69b1b248",
          "transactionHash": "0xcbad052fff124cd3ea619b0d2291195c25748a3baaf9e0df90de2c530f8ddbde",
          "transactionIndex": "0x2",
          "logIndex": "0x5",
          "removed": false
        },
        {
          "address": "0xbf54d16a2dc5b6c810b97ca634d54f162f608f3d",
          "topics": [
            "0xddf252ad1be2c89b69c2b068fc378daa952ba7f163c4a11628f55a4df523b3ef",
            "0x0000000000000000000000000000000000000000000000000000000000000000",
            "0x0000000000000000000000000000000000000000000000000000000000000001"
          ],
          "data": "0x00000000000000000000000000000000000000000000000000000000000003e8",
          "blockHash": "0x90751673bb5c6113e964d83485e3e5e808292665e8175f3cca3287ad6145fb13",
          "blockNumber": "0xed9e589",
          "blockTimestamp": "0x69b1b248",
          "transactionHash": "0xcbad052fff124cd3ea619b0d2291195c25748a3baaf9e0df90de2c530f8ddbde",
          "transactionIndex": "0x2",
          "logIndex": "0x6",
          "removed": false
        },
        {
          "address": "0xbf54d16a2dc5b6c810b97ca634d54f162f608f3d",
          "topics": [
            "0xddf252ad1be2c89b69c2b068fc378daa952ba7f163c4a11628f55a4df523b3ef",
            "0x0000000000000000000000000000000000000000000000000000000000000000",
            "0x00000000000000000000000097bf134cdf8a620aa0f10e140b89a2adaac2bbbf"
          ],
          "data": "0x00000000000000000000000000000000000000000000007937ad4a57151f19b1",
          "blockHash": "0x90751673bb5c6113e964d83485e3e5e808292665e8175f3cca3287ad6145fb13",
          "blockNumber": "0xed9e589",
          "blockTimestamp": "0x69b1b248",
          "transactionHash": "0xcbad052fff124cd3ea619b0d2291195c25748a3baaf9e0df90de2c530f8ddbde",
          "transactionIndex": "0x2",
          "logIndex": "0x7",
          "removed": false
        },
        {
          "address": "0xbf54d16a2dc5b6c810b97ca634d54f162f608f3d",
          "topics": [
            "0x4c209b5fc8ad50758f13e2e1088ba56a560dff690a1c6fef26394f4c03821c4f",
            "0x000000000000000000000000c00416cbdc7268a5cb599382f05de9adee5a2ec1"
          ],
          "data": "0x000000000000000000000000000000000000000000000002b5e3af16b188000000000000000000000000000000000000000000000000152d02c7e14af6800000",
          "blockHash": "0x90751673bb5c6113e964d83485e3e5e808292665e8175f3cca3287ad6145fb13",
          "blockNumber": "0xed9e589",
          "blockTimestamp": "0x69b1b248",
          "transactionHash": "0xcbad052fff124cd3ea619b0d2291195c25748a3baaf9e0df90de2c530f8ddbde",
          "transactionIndex": "0x2",
          "logIndex": "0x8",
          "removed": false
        },
        {
          "address": "0xbf54d16a2dc5b6c810b97ca634d54f162f608f3d",
          "topics": [
            "0x1c411e9a96e071241c2f21f7726b17ae89e3cab4c78be50e062b03a9fffbbad1"
          ],
          "data": "0x000000000000000000000000000000000000000000000002b5e3af16b188000000000000000000000000000000000000000000000000152d02c7e14af6800000",
          "blockHash": "0x90751673bb5c6113e964d83485e3e5e808292665e8175f3cca3287ad6145fb13",
          "blockNumber": "0xed9e589",
          "blockTimestamp": "0x69b1b248",
          "transactionHash": "0xcbad052fff124cd3ea619b0d2291195c25748a3baaf9e0df90de2c530f8ddbde",
          "transactionIndex": "0x2",
          "logIndex": "0x9",
          "removed": false
        }
      ],
      "logsBloom": "0x00000000200000000000090080000000000000000000000000000000000001000000000000000000400000000000000000000000400000000000000000040000000000004000000000000008002000000004000000040000800000000000000000000000020000000000000000000800000000000008800000000010000000000000000000000801000000000000000000000040000000080000010000008000000000100000000000001000000000000000000000100002000000000000004000000002000010010000004000020000000200000000001002000000000064000000000001000000000000000000040002004000000000000000000000000000",
      "type": "0x2",
      "transactionHash": "0xcbad052fff124cd3ea619b0d2291195c25748a3baaf9e0df90de2c530f8ddbde",
      "transactionIndex": "0x2",
      "blockHash": "0x90751673bb5c6113e964d83485e3e5e808292665e8175f3cca3287ad6145fb13",
      "blockNumber": "0xed9e589",
      "gasUsed": "0x1bcc7e",
      "effectiveGasPrice": "0x1321f30",
      "from": "0x97bf134cdf8a620aa0f10e140b89a2adaac2bbbf",
      "to": "0xc00416cbdc7268a5cb599382f05de9adee5a2ec1",
      "contractAddress": null,
      "gasUsedForL1": "0x0",
      "l1BlockNumber": "0x9f1f26",
      "timeboosted": false
    }
  ],
  "libraries": [],
  "pending": [],
  "returns": {},
  "timestamp": 1773253191362,
  "chain": 421614,
  "commit": "77ba9c0"
}