{
  "transactions": [
    {
      "hash": "0xc21349ccc16836f66857d3b697726e02a288ec7f34391630c8e1388e9f71fdff",
      "transactionType": "CALL",
      "contractName": "MockERC20",
      "contractAddress": "0x98697d7bc9ea50ce6682ed52cbc95806e7fdee0f",
      "function": "mint(address,uint256)",
      "arguments": [
        "0x97BF134cDf8A620aa0F10E140b89a2aDAAC2bBbF",
        "2000000000000"
      ],
      "transaction": {
        "from": "0x97bf134cdf8a620aa0f10e140b89a2adaac2bbbf",
        "to": "0x98697d7bc9ea50ce6682ed52cbc95806e7fdee0f",
        "gas": "0x15e13",
        "value": "0x0",
        "input": "0x40c10f1900000000000000000000000097bf134cdf8a620aa0f10e140b89a2adaac2bbbf000000000000000000000000000000000000000000000000000001d1a94a2000",
        "nonce": "0x41",
        "chainId": "0x66eee"
      },
      "additionalContracts": [],
      "isFixedGasLimit": false
    },
    {
      "hash": "0xbe3428086d3e96a744b446c81d1db96d6534a7d4d16be81f0314abb86bf7f758",
      "transactionType": "CALL",
      "contractName": "MockERC20",
      "contractAddress": "0x11da2d696dda3e569608f7e802f7cfd5bbe89d4b",
      "function": "mint(address,uint256)",
      "arguments": [
        "0x97BF134cDf8A620aa0F10E140b89a2aDAAC2bBbF",
        "1000000000000000000000"
      ],
      "transaction": {
        "from": "0x97bf134cdf8a620aa0f10e140b89a2adaac2bbbf",
        "to": "0x11da2d696dda3e569608f7e802f7cfd5bbe89d4b",
        "gas": "0x15e32",
        "value": "0x0",
        "input": "0x40c10f1900000000000000000000000097bf134cdf8a620aa0f10e140b89a2adaac2bbbf00000000000000000000000000000000000000000000003635c9adc5dea00000",
        "nonce": "0x42",
        "chainId": "0x66eee"
      },
      "additionalContracts": [],
      "isFixedGasLimit": false
    },
    {
      "hash": "0xaf0cbd763359ddd51e525011066a02254ed6b3f24348d4c79c44e23240bb276f",
      "transactionType": "CALL",
      "contractName": "MockERC20",
      "contractAddress": "0xfed51c995304775d37c54a7197a9197150147e3b",
      "function": "mint(address,uint256)",
      "arguments": [
        "0x97BF134cDf8A620aa0F10E140b89a2aDAAC2bBbF",
        "5000000000"
      ],
      "transaction": {
        "from": "0x97bf134cdf8a620aa0f10e140b89a2adaac2bbbf",
        "to": "0xfed51c995304775d37c54a7197a9197150147e3b",
        "gas": "0x15e03",
        "value": "0x0",
        "input": "0x40c10f1900000000000000000000000097bf134cdf8a620aa0f10e140b89a2adaac2bbbf000000000000000000000000000000000000000000000000000000012a05f200",
        "nonce": "0x43",
        "chainId": "0x66eee"
      },
      "additionalContracts": [],
      "isFixedGasLimit": false
    },
    {
      "hash": "0x3d068a17c8390f9a4fafb6919eedc9e64164d547dc70e5b3fc658afef2b9501c",
      "transactionType": "CALL",
      "contractName": "MockERC20",
      "contractAddress": "0xc4999f55d2887d003d17dc42625354fa364c29d1",
      "function": "mint(address,uint256)",
      "arguments": [
        "0x97BF134cDf8A620aa0F10E140b89a2aDAAC2bBbF",
        "1000000000000000000000000"
      ],
      "transaction": {
        "from": "0x97bf134cdf8a620aa0f10e140b89a2adaac2bbbf",
        "to": "0xc4999f55d2887d003d17dc42625354fa364c29d1",
        "gas": "0x15e32",
        "value": "0x0",
        "input": "0x40c10f1900000000000000000000000097bf134cdf8a620aa0f10e140b89a2adaac2bbbf00000000000000000000000000000000000000000000d3c21bcecceda1000000",
        "nonce": "0x44",
        "chainId": "0x66eee"
      },
      "additionalContracts": [],
      "isFixedGasLimit": false
    },
    {
      "hash": "0xe76352d509ffc866030ebce98f64305668d2e9541035e6f439a3bead80faa097",
      "transactionType": "CALL",
      "contractName": "MockERC20",
      "contractAddress": "0x9e3b254cadc9eaefa80fd85f26eb7bbbe1f59560",
      "function": "mint(address,uint256)",
      "arguments": [
        "0x97BF134cDf8A620aa0F10E140b89a2aDAAC2bBbF",
        "1000000000000000000000000"
      ],
      "transaction": {
        "from": "0x97bf134cdf8a620aa0f10e140b89a2adaac2bbbf",
        "to": "0x9e3b254cadc9eaefa80fd85f26eb7bbbe1f59560",
        "gas": "0x15e32",
        "value": "0x0",
        "input": "0x40c10f1900000000000000000000000097bf134cdf8a620aa0f10e140b89a2adaac2bbbf00000000000000000000000000000000000000000000d3c21bcecceda1000000",
        "nonce": "0x45",
        "chainId": "0x66eee"
      },
      "additionalContracts": [],
      "isFixedGasLimit": false
    },
    {
      "hash": "0x3783d0e514b51e4b23a020d6e1bf93df2b75f9e13c23c1bc205029ebe347a8f9",
      "transactionType": "CALL",
      "contractName": "MockERC20",
      "contractAddress": "0x98697d7bc9ea50ce6682ed52cbc95806e7fdee0f",
      "function": "approve(address,uint256)",
      "arguments": [
        "0x8f19EF21EDe7d881003FCa1e50285A113915Cb5f",
        "115792089237316195423570985008687907853269984665640564039457584007913129639935"
      ],
      "transaction": {
        "from": "0x97bf134cdf8a620aa0f10e140b89a2adaac2bbbf",
        "to": "0x98697d7bc9ea50ce6682ed52cbc95806e7fdee0f",
        "gas": "0xecd6",
        "value": "0x0",
        "input": "0x095ea7b30000000000000000000000008f19ef21ede7d881003fca1e50285a113915cb5fffffffffffffffffffffffffffffffffffffffffffffffffffffffffffffffff",
        "nonce": "0x46",
        "chainId": "0x66eee"
      },
      "additionalContracts": [],
      "isFixedGasLimit": false
    },
    {
      "hash": "0x46ea6cb6a148877fa78da26a835861f25205533f23b5a38c000279890c15a145",
      "transactionType": "CALL",
      "contractName": "MockERC20",
      "contractAddress": "0x11da2d696dda3e569608f7e802f7cfd5bbe89d4b",
      "function": "approve(address,uint256)",
      "arguments": [
        "0x8f19EF21EDe7d881003FCa1e50285A113915Cb5f",
        "115792089237316195423570985008687907853269984665640564039457584007913129639935"
      ],
      "transaction": {
        "from": "0x97bf134cdf8a620aa0f10e140b89a2adaac2bbbf",
        "to": "0x11da2d696dda3e569608f7e802f7cfd5bbe89d4b",
        "gas": "0xecd6",
        "value": "0x0",
        "input": "0x095ea7b30000000000000000000000008f19ef21ede7d881003fca1e50285a113915cb5fffffffffffffffffffffffffffffffffffffffffffffffffffffffffffffffff",
        "nonce": "0x47",
        "chainId": "0x66eee"
      },
      "additionalContracts": [],
      "isFixedGasLimit": false
    },
    {
      "hash": "0x3e06bd4eb9821108ad1a992def3684b1ac3d1757a9a1c02a6e25644676491dae",
      "transactionType": "CALL",
      "contractName": "MockERC20",
      "contractAddress": "0xfed51c995304775d37c54a7197a9197150147e3b",
      "function": "approve(address,uint256)",
      "arguments": [
        "0x8f19EF21EDe7d881003FCa1e50285A113915Cb5f",
        "115792089237316195423570985008687907853269984665640564039457584007913129639935"
      ],
      "transaction": {
        "from": "0x97bf134cdf8a620aa0f10e140b89a2adaac2bbbf",
        "to": "0xfed51c995304775d37c54a7197a9197150147e3b",
        "gas": "0xecd6",
        "value": "0x0",
        "input": "0x095ea7b30000000000000000000000008f19ef21ede7d881003fca1e50285a113915cb5fffffffffffffffffffffffffffffffffffffffffffffffffffffffffffffffff",
        "nonce": "0x48",
        "chainId": "0x66eee"
      },
      "additionalContracts": [],
      "isFixedGasLimit": false
    },
    {
      "hash": "0x9938701e58bd354f10844547cccb78121635d11efc8c20ceaa33769c3aa33669",
      "transactionType": "CALL",
      "contractName": "MockERC20",
      "contractAddress": "0xc4999f55d2887d003d17dc42625354fa364c29d1",
      "function": "approve(address,uint256)",
      "arguments": [
        "0x8f19EF21EDe7d881003FCa1e50285A113915Cb5f",
        "115792089237316195423570985008687907853269984665640564039457584007913129639935"
      ],
      "transaction": {
        "from": "0x97bf134cdf8a620aa0f10e140b89a2adaac2bbbf",
        "to": "0xc4999f55d2887d003d17dc42625354fa364c29d1",
        "gas": "0xecd6",
        "value": "0x0",
        "input": "0x095ea7b30000000000000000000000008f19ef21ede7d881003fca1e50285a113915cb5fffffffffffffffffffffffffffffffffffffffffffffffffffffffffffffffff",
        "nonce": "0x49",
        "chainId": "0x66eee"
      },
      "additionalContracts": [],
      "isFixedGasLimit": false
    },
    {
      "hash": "0xef63354e24d658c13b5027f58520a52b5ab8277bc5121e88a510e946b7ecd850",
      "transactionType": "CALL",
      "contractName": "MockERC20",
      "contractAddress": "0x9e3b254cadc9eaefa80fd85f26eb7bbbe1f59560",
      "function": "approve(address,uint256)",
      "arguments": [
        "0x8f19EF21EDe7d881003FCa1e50285A113915Cb5f",
        "115792089237316195423570985008687907853269984665640564039457584007913129639935"
      ],
      "transaction": {
        "from": "0x97bf134cdf8a620aa0f10e140b89a2adaac2bbbf",
        "to": "0x9e3b254cadc9eaefa80fd85f26eb7bbbe1f59560",
        "gas": "0xecd6",
        "value": "0x0",
        "input": "0x095ea7b30000000000000000000000008f19ef21ede7d881003fca1e50285a113915cb5fffffffffffffffffffffffffffffffffffffffffffffffffffffffffffffffff",
        "nonce": "0x4a",
        "chainId": "0x66eee"
      },
      "additionalContracts": [],
      "isFixedGasLimit": false
    },
    {
      "hash": "0xcc7021f59933ad7c5288f9d5532d82b0d532d1ff31ac8932aee458c05c3742b4",
      "transactionType": "CALL",
      "contractName": "Router",
      "contractAddress": "0x8f19ef21ede7d881003fca1e50285a113915cb5f",
      "function": "addLiquidity(address,address,uint256,uint256,uint256,uint256,address,uint256)",
      "arguments": [
        "0x11dA2D696ddA3E569608F7E802F7CfD5BBe89d4b",
        "0x98697D7bc9ea50CE6682ed52CBC95806E7fDee0f",
        "100000000000000000000",
        "200000000000",
        "0",
        "0",
        "0x97BF134cDf8A620aa0F10E140b89a2aDAAC2bBbF",
        "115792089237316195423570985008687907853269984665640564039457584007913129639935"
      ],
      "transaction": {
        "from": "0x97bf134cdf8a620aa0f10e140b89a2adaac2bbbf",
        "to": "0x8f19ef21ede7d881003fca1e50285a113915cb5f",
        "gas": "0x2e2f98",
        "value": "0x0",
        "input": "0xe8e3370000000000000000000000000011da2d696dda3e569608f7e802f7cfd5bbe89d4b00000000000000000000000098697d7bc9ea50ce6682ed52cbc95806e7fdee0f0000000000000000000000000000000000000000000000056bc75e2d631000000000000000000000000000000000000000000000000000000000002e90edd0000000000000000000000000000000000000000000000000000000000000000000000000000000000000000000000000000000000000000000000000000000000000000000000000000000000097bf134cdf8a620aa0f10e140b89a2adaac2bbbfffffffffffffffffffffffffffffffffffffffffffffffffffffffffffffffff",
        "nonce": "0x4b",
        "chainId": "0x66eee"
      },
      "additionalContracts": [
        {
          "transactionType": "CREATE2",
          "contractName": "Pair",
          "address": "0x817caf2f184d7faf6f68963dbb02810633966546",
          "initCode": "0x60806040523461033d57604080519081016001600160401b038111828210176102455760409081526008825267262816aa27a5a2a760c11b602083015280519081016001600160401b0381118282101761024557604052600281526104c560f41b602082015281516001600160401b03811161024557600354600181811c91168015610333575b602082101461022757601f81116102c5575b50602092601f821160011461026457928192935f92610259575b50508160011b915f199060031b1c1916176003555b80516001600160401b03811161024557600454600181811c9116801561023b575b602082101461022757601f81116101b9575b50602091601f8211600114610159579181925f9261014e575b50508160011b915f199060031b1c1916176004555b6001600e55600580546001600160a01b03191633179055604051611ab090816103428239f35b015190505f80610113565b601f1982169260045f52805f20915f5b8581106101a157508360019510610189575b505050811b01600455610128565b01515f1960f88460031b161c191690555f808061017b565b91926020600181928685015181550194019201610169565b818111156100fa5760045f52601f820160051c7f8a35acfbc15ff81a39ae7d344fd709f28e8600b4aa8c65c6b64bfe7fe36bd19b6020841061021f575b81601f9101920160051c03905f5b8281106102125750506100fa565b5f82820155600101610204565b5f91506101f6565b634e487b7160e01b5f52602260045260245ffd5b90607f16906100e8565b634e487b7160e01b5f52604160045260245ffd5b015190505f806100b2565b601f1982169360035f52805f20915f5b8681106102ad5750836001959610610295575b505050811b016003556100c7565b01515f1960f88460031b161c191690555f8080610287565b91926020600181928685015181550194019201610274565b818111156100985760035f52601f820160051c7fc2575a0e9e593c00f959f8c92f12db2869c3395a3b0502d05e2516446f71f85b6020841061032b575b81601f9101920160051c03905f5b82811061031e575050610098565b5f82820155600101610310565b5f9150610302565b90607f1690610086565b5f80fdfe6080806040526004361015610012575f80fd5b5f3560e01c90816306fdde0314610ee9575080630902f1ac14610ea8578063095ea7b314610e265780630dfe168114610dfe5780631794bb3c14610d2a57806318160ddd14610d0d57806323b872dd14610c42578063313ce56714610c275780633d5c506814610c0a5780635909c0d514610bed5780635a3d549314610bd05780636a627842146108955780636d9a640a1461054257806370a082311461050b5780637464fc3d146104ee57806389afcb44146104ab57806395d89b41146103a7578063a9059cbb14610376578063ba9a7a561461035a578063bc25cf7714610211578063c45a0155146101e9578063d21220a7146101c1578063dd62ed3e146101645763fff6cae914610124575f80fd5b34610160575f366003190112610160576001600e5403610151575f600e5561014a611682565b6001600e55005b63e6b179a360e01b5f5260045ffd5b5f80fd5b346101605760403660031901126101605761017d610fcb565b602435906001600160a01b03821682036101605760018060a01b03165f52600160205260405f209060018060a01b03165f52602052602060405f2054604051908152f35b34610160575f366003190112610160576007546040516001600160a01b039091168152602090f35b34610160575f366003190112610160576005546040516001600160a01b039091168152602090f35b346101605760203660031901126101605761022a610fcb565b6001600e5403610151575f600e556006546007546040516370a0823160e01b81523060048201526001600160a01b0391821692909116602082602481845afa9182156103175784905f93610322575b50610293610299936001600160701b036008541690611051565b91611936565b6040516370a0823160e01b815230600482015291602083602481855afa928315610317575f936102e1575b5061029361014a936001600160701b0360085460701c1690611051565b92506020833d60201161030f575b816102fc6020938361101b565b81010312610160579151916102936102c4565b3d91506102ef565b6040513d5f823e3d90fd5b9250506020823d602011610352575b8161033e6020938361101b565b810103126101605790519083610293610279565b3d9150610331565b34610160575f3660031901126101605760206040516103e88152f35b346101605760403660031901126101605761039c610392610fcb565b602435903361137a565b602060405160018152f35b34610160575f366003190112610160576040515f6004548060011c906001811680156104a1575b60208310811461048d57828552908115610469575060011461040b575b610407836103fb8185038261101b565b60405191829182610fa1565b0390f35b91905060045f527f8a35acfbc15ff81a39ae7d344fd709f28e8600b4aa8c65c6b64bfe7fe36bd19b915f905b80821061044f575090915081016020016103fb6103eb565b919260018160209254838588010152019101909291610437565b60ff191660208086019190915291151560051b840190910191506103fb90506103eb565b634e487b7160e01b5f52602260045260245ffd5b91607f16916103ce565b34610160576020366003190112610160576104c4610fcb565b6001600e5403610151576104dd6040915f600e556110ae565b6001600e5582519182526020820152f35b34610160575f366003190112610160576020600c54604051908152f35b34610160576020366003190112610160576001600160a01b0361052c610fcb565b165f525f602052602060405f2054604051908152f35b34610160576060366003190112610160576044356001600160a01b03811690602435600435838303610160576001600e5403610151575f600e556008546006546007546001600160701b03607084901c8116969316916001600160a01b0391821691168415808061088d575b61087e5715908180610875575b61084557808914801561086c575b61085d578386118015610854575b61084557602494602092610835575b8780610824575b50506040516370a0823160e01b815230600482015294859182905afa928315610317575f936107ef575b50916020602493604051948580926370a0823160e01b82523060048301525afa928315610317575f936107bb575b506106508483611051565b8111156107b45761066a6106648584611051565b82611051565b955b6106768682611051565b8411156107ad5761069061068a8783611051565b85611051565b935b8715806107a5575b610796576127108302928084046127101490151715610782576106ca600b54936106c4858b61105e565b90611051565b6127108202918083046127101490151715610782576106f36106f9926106c46106ff968961105e565b9061105e565b9261105e565b906127108202918083046127101481151715610782576305f5e100029180830461271014901517156107825710610773576040519384526020840152604083015260608201527fd78ad95fa46c994b6551d0da85fc275fe613ce37657fb8d5e3d130840159d82260803392a361014a611682565b63702a418560e01b5f5260045ffd5b634e487b7160e01b5f52601160045260245ffd5b634a08a4a360e11b5f5260045ffd5b50841561069a565b5f93610692565b5f9561066c565b9092506020813d6020116107e7575b816107d76020938361101b565b8101031261016057519187610645565b3d91506107ca565b92506020833d60201161081c575b8161080a6020938361101b565b81010312610160579151916020610617565b3d91506107fd565b61082e9185611936565b89876105ed565b610840878284611936565b6105e6565b6337d93ae160e21b5f5260045ffd5b508787116105d7565b6387db131160e01b5f5260045ffd5b508289146105c9565b508615156105bb565b63c6941f8960e01b5f5260045ffd5b5086156105ae565b34610160576020366003190112610160576108ae610fcb565b6001600e5403610151575f600e556006546040516370a0823160e01b81523060048201529190602090839060249082906001600160a01b03165afa918215610317575f92610b9c575b506007546040516370a0823160e01b815230600482015290602090829060249082906001600160a01b03165afa908115610317575f91610b6a575b506001600160701b038311610b5b576001600160701b038111610b5b576001600160701b03926109846008549161097e86841696879460701c169384926109798483611431565b611051565b93611051565b9382158015610b53575b610b44576002549182610ac9575050506109b06109ab848361105e565b61155d565b926103e8841115610aba576103e7198401938411610782576109e284600495946109dd6103e86001611a0d565b611542565b60405191825260208201527f4c209b5fc8ad50758f13e2e1088ba56a560dff690a1c6fef26394f4c03821c4f60403392a2610a1b611682565b600554604051622fcfcb60e31b81529260209184919082906001600160a01b03165afa8015610317576020925f91610a8d575b506001600160a01b0316610a6a575b6001600e55604051908152f35b610a856008546001600160701b03808260701c16911661105e565b600c55610a5d565b610aad9150833d8511610ab3575b610aa5818361101b565b81019061108f565b83610a4e565b503d610a9b565b632aa60fef60e11b5f5260045ffd5b8195929495158015610b3c575b610b2d57610aee610af3610afa93610aee888861105e565b611071565b958461105e565b928380821091180280841893145f14610b1c57632aa60fef60e11b5f5260045ffd5b610b2883600495611542565b6109e2565b631b61bd4760e21b5f5260045ffd5b508015610ad6565b6308abd71960e41b5f5260045ffd5b50841561098e565b6301549ec560e21b5f5260045ffd5b90506020813d602011610b94575b81610b856020938361101b565b81010312610160575183610932565b3d9150610b78565b9091506020813d602011610bc8575b81610bb86020938361101b565b81010312610160575190826108f7565b3d9150610bab565b34610160575f366003190112610160576020600a54604051908152f35b34610160575f366003190112610160576020600954604051908152f35b34610160575f366003190112610160576020600b54604051908152f35b34610160575f36600319011261016057602060405160128152f35b3461016057610c5036610fe1565b6001600160a01b0383165f8181526001602090815260408083203384529091529020549093919291905f198110610c8d575b5061039c935061137a565b838110610cf2578415610cdf573315610ccc5761039c945f52600160205260405f2060018060a01b0333165f526020528360405f209103905584610c82565b634a1406b160e11b5f525f60045260245ffd5b63e602df0560e01b5f525f60045260245ffd5b8390637dc7a0d960e11b5f523360045260245260445260645ffd5b34610160575f366003190112610160576020600254604051908152f35b3461016057610d3836610fe1565b6005549192916001600160a01b0316330361084557600d5491600160ff8416151514610def576001600160a01b03169283158015610dde575b61085d576001600160a01b031683811461085d5781158015610dd4575b61085d576001936bffffffffffffffffffffffff60a01b60065416176006556bffffffffffffffffffffffff60a01b6007541617600755600b5560ff191617600d555f80f35b5060648211610d8e565b506001600160a01b03811615610d71565b63f669b6bd60e01b5f5260045ffd5b34610160575f366003190112610160576006546040516001600160a01b039091168152602090f35b3461016057604036600319011261016057610e3f610fcb565b602435903315610cdf576001600160a01b0316908115610ccc57335f52600160205260405f20825f526020528060405f20556040519081527f8c5be1e5ebec7d5bd14f71427d1e84f3dd0314c0f7b2291e5b200ac8c7c3b92560203392a3602060405160018152f35b34610160575f366003190112610160576060600854604051906001600160701b03811682526001600160701b038160701c16602083015260e01c6040820152f35b34610160575f366003190112610160575f6003548060011c90600181168015610f97575b60208310811461048d578285529081156104695750600114610f3957610407836103fb8185038261101b565b91905060035f527fc2575a0e9e593c00f959f8c92f12db2869c3395a3b0502d05e2516446f71f85b915f905b808210610f7d575090915081016020016103fb6103eb565b919260018160209254838588010152019101909291610f65565b91607f1691610f0d565b602060409281835280519182918282860152018484015e5f828201840152601f01601f1916010190565b600435906001600160a01b038216820361016057565b6060906003190112610160576004356001600160a01b038116810361016057906024356001600160a01b0381168103610160579060443590565b90601f8019910116810190811067ffffffffffffffff82111761103d57604052565b634e487b7160e01b5f52604160045260245ffd5b9190820391821161078257565b8181029291811591840414171561078257565b811561107b570490565b634e487b7160e01b5f52601260045260245ffd5b9081602091031261016057516001600160a01b03811681036101605790565b90305f525f60205260405f20549182156107965760018060a01b03600654169060018060a01b03600754166110f46008546001600160701b03808260701c169116611431565b6040516370a0823160e01b815230600482015292602084602481845afa938415610317575f94611346575b506040516370a0823160e01b815230600482015293602085602481865afa948515610317575f95611312575b50600254801561130357610aee61116982610aee611170958c61105e565b968961105e565b95841580156112fb575b1561118e57634a08a4a360e11b5f5260045ffd5b30156112e857305f525f60205260405f20548181106112cf57926111fd86868a955f8683976112029a3084528360205203604083205580600254036002556040519081527fddf252ad1be2c89b69c2b068fc378daa952ba7f163c4a11628f55a4df523b3ef60203092a3611936565b611936565b60408051838152602081018690526001600160a01b039092169133917fdccd412f0b1252819cb1fd330b93224ca42612892bb3f4f789976e6d8193649691a3611249611682565b600554604051622fcfcb60e31b815290602090829060049082906001600160a01b03165afa908115610317575f916112b0575b506001600160a01b031661128e579190565b6112a96008546001600160701b03808260701c16911661105e565b600c559190565b6112c9915060203d602011610ab357610aa5818361101b565b5f61127c565b63391434e360e21b5f523060045260245260445260645ffd5b634b637e8f60e11b5f525f60045260245ffd5b50861561117a565b63074700eb60e31b5f5260045ffd5b9094506020813d60201161133e575b8161132e6020938361101b565b810103126101605751935f61114b565b3d9150611321565b9093506020813d602011611372575b816113626020938361101b565b810103126101605751925f61111f565b3d9150611355565b6001600160a01b03169081156112e8576001600160a01b031691821561141157815f525f60205260405f20548181106113f857817fddf252ad1be2c89b69c2b068fc378daa952ba7f163c4a11628f55a4df523b3ef92602092855f525f84520360405f2055845f525f825260405f20818154019055604051908152a3565b8263391434e360e21b5f5260045260245260445260645ffd5b63ec442f0560e01b5f525f60045260245ffd5b9190820180921161078257565b600254600554604051622fcfcb60e31b81529391929190602090859060049082906001600160a01b03165afa938415610317575f94611521575b506001600160a01b03841661148d5750505050600c5461148757565b5f600c55565b600c54918261149e575b5050505050565b6109ab6114ba916001600160701b03806114c09516911661105e565b9161155d565b918282116114cf575b80611497565b6114dd906106f38484611051565b9060058102908082046005149015171561078257611504926114fe91611424565b90611071565b80611511575b80806114c9565b61151a91611542565b5f8061150a565b61153b91945060203d602011610ab357610aa5818361101b565b925f61146b565b906001600160a01b038216156114115761155b91611a0d565b565b600181111561167f57806001600160801b82101561166e575b600482600160401b611620941015611661575b640100000000811015611654575b62010000811015611647575b61010081101561163b575b601081101561162f575b1015611627575b60030260011c6115cf8184611071565b0160011c6115dd8184611071565b0160011c6115eb8184611071565b0160011c6115f98184611071565b0160011c6116078184611071565b0160011c6116158184611071565b0160011c8092611071565b8111900390565b60011b6115bf565b811c9160021b916115b8565b60081c91811b916115ae565b60101c9160081b916115a3565b60201c9160101b91611597565b60401c9160201b91611589565b5050608081901c600160401b611576565b90565b6006546040516370a0823160e01b815230600482015290602090829060249082906001600160a01b03165afa908115610317575f91611904575b506007546040516370a0823160e01b815230600482015290602090829060249082906001600160a01b03165afa908115610317575f916118d2575b506001600160701b038211610b5b576001600160701b038111610b5b5760085460e081901c4263ffffffff168181106118c5570363ffffffff81116107825763ffffffff905b16801515806118b3575b8061189e575b6117c4575b5050607090811b6dffffffffffffffffffffffffffff60701b166001600160701b039283169081174260e01b6001600160e01b03191617600881905560408051928352921c90921660208301527f1c411e9a96e071241c2f21f7726b17ae89e3cab4c78be50e062b03a9fffbbad191a1565b6001600160701b038260709493941c1693670de0b6b3a7640000850293858504670de0b6b3a76400001486151715610782576001600160701b0361180a91168095611071565b90670de0b6b3a7640000850294808604670de0b6b3a7640000149015171561078257611890611888846001600160701b03959461188061187888976118727f1c411e9a96e071241c2f21f7726b17ae89e3cab4c78be50e062b03a9fffbbad19d60409d611071565b9361105e565b600954611424565b60095561105e565b600a54611424565b600a55945050819250611752565b506001600160701b038260701c16151561174d565b506001600160701b0382161515611747565b505063ffffffff5f61173d565b90506020813d6020116118fc575b816118ed6020938361101b565b8101031261016057515f6116f7565b3d91506118e0565b90506020813d60201161192e575b8161191f6020938361101b565b8101031261016057515f6116bc565b3d9150611912565b5f929183809360405190602082019363a9059cbb60e01b855260018060a01b0316602483015260448201526044815261197060648261101b565b51925af13d15611a05573d9067ffffffffffffffff821161103d57604051916119a3601f8201601f19166020018461101b565b82523d5f602084013e5b159081156119cc575b506119bd57565b630df759e760e31b5f5260045ffd5b80518015159250826119e1575b50505f6119b6565b81925090602091810103126101605760200151801590811503610160575f806119d9565b6060906119ad565b7fddf252ad1be2c89b69c2b068fc378daa952ba7f163c4a11628f55a4df523b3ef60205f92611a3e85600254611424565b6002556001600160a01b03169384158414611a655780600254036002555b604051908152a3565b84845283825260408420818154019055611a5c56fea264697066735822122012b453ea0898a951245087a2a1855ace7f3f0f1d6146d962cbcda760a4371f6964736f6c63430008210033"
        }
      ],
      "isFixedGasLimit": false
    },
    {
      "hash": "0x1a3b7e1a124435d4fd32f13656f31951fa33fa086750e695a6ad4f8aa242ad72",
      "transactionType": "CALL",
      "contractName": "Router",
      "contractAddress": "0x8f19ef21ede7d881003fca1e50285a113915cb5f",
      "function": "addLiquidity(address,address,uint256,uint256,uint256,uint256,address,uint256)",
      "arguments": [
        "0xFeD51c995304775D37C54a7197a9197150147E3b",
        "0x98697D7bc9ea50CE6682ed52CBC95806E7fDee0f",
        "1000000000",
        "600000000000",
        "0",
        "0",
        "0x97BF134cDf8A620aa0F10E140b89a2aDAAC2bBbF",
        "115792089237316195423570985008687907853269984665640564039457584007913129639935"
      ],
      "transaction": {
        "from": "0x97bf134cdf8a620aa0f10e140b89a2adaac2bbbf",
        "to": "0x8f19ef21ede7d881003fca1e50285a113915cb5f",
        "gas": "0x2dcd54",
        "value": "0x0",
        "input": "0xe8e33700000000000000000000000000fed51c995304775d37c54a7197a9197150147e3b00000000000000000000000098697d7bc9ea50ce6682ed52cbc95806e7fdee0f000000000000000000000000000000000000000000000000000000003b9aca000000000000000000000000000000000000000000000000000000008bb2c970000000000000000000000000000000000000000000000000000000000000000000000000000000000000000000000000000000000000000000000000000000000000000000000000000000000097bf134cdf8a620aa0f10e140b89a2adaac2bbbfffffffffffffffffffffffffffffffffffffffffffffffffffffffffffffffff",
        "nonce": "0x4c",
        "chainId": "0x66eee"
      },
      "additionalContracts": [
        {
          "transactionType": "CREATE2",
          "contractName": "Pair",
          "address": "0xfad8e1b15b224acd16295b3f909f5cc0ed39e2d0",
          "initCode": "0x60806040523461033d57604080519081016001600160401b038111828210176102455760409081526008825267262816aa27a5a2a760c11b602083015280519081016001600160401b0381118282101761024557604052600281526104c560f41b602082015281516001600160401b03811161024557600354600181811c91168015610333575b602082101461022757601f81116102c5575b50602092601f821160011461026457928192935f92610259575b50508160011b915f199060031b1c1916176003555b80516001600160401b03811161024557600454600181811c9116801561023b575b602082101461022757601f81116101b9575b50602091601f8211600114610159579181925f9261014e575b50508160011b915f199060031b1c1916176004555b6001600e55600580546001600160a01b03191633179055604051611ab090816103428239f35b015190505f80610113565b601f1982169260045f52805f20915f5b8581106101a157508360019510610189575b505050811b01600455610128565b01515f1960f88460031b161c191690555f808061017b565b91926020600181928685015181550194019201610169565b818111156100fa5760045f52601f820160051c7f8a35acfbc15ff81a39ae7d344fd709f28e8600b4aa8c65c6b64bfe7fe36bd19b6020841061021f575b81601f9101920160051c03905f5b8281106102125750506100fa565b5f82820155600101610204565b5f91506101f6565b634e487b7160e01b5f52602260045260245ffd5b90607f16906100e8565b634e487b7160e01b5f52604160045260245ffd5b015190505f806100b2565b601f1982169360035f52805f20915f5b8681106102ad5750836001959610610295575b505050811b016003556100c7565b01515f1960f88460031b161c191690555f8080610287565b91926020600181928685015181550194019201610274565b818111156100985760035f52601f820160051c7fc2575a0e9e593c00f959f8c92f12db2869c3395a3b0502d05e2516446f71f85b6020841061032b575b81601f9101920160051c03905f5b82811061031e575050610098565b5f82820155600101610310565b5f9150610302565b90607f1690610086565b5f80fdfe6080806040526004361015610012575f80fd5b5f3560e01c90816306fdde0314610ee9575080630902f1ac14610ea8578063095ea7b314610e265780630dfe168114610dfe5780631794bb3c14610d2a57806318160ddd14610d0d57806323b872dd14610c42578063313ce56714610c275780633d5c506814610c0a5780635909c0d514610bed5780635a3d549314610bd05780636a627842146108955780636d9a640a1461054257806370a082311461050b5780637464fc3d146104ee57806389afcb44146104ab57806395d89b41146103a7578063a9059cbb14610376578063ba9a7a561461035a578063bc25cf7714610211578063c45a0155146101e9578063d21220a7146101c1578063dd62ed3e146101645763fff6cae914610124575f80fd5b34610160575f366003190112610160576001600e5403610151575f600e5561014a611682565b6001600e55005b63e6b179a360e01b5f5260045ffd5b5f80fd5b346101605760403660031901126101605761017d610fcb565b602435906001600160a01b03821682036101605760018060a01b03165f52600160205260405f209060018060a01b03165f52602052602060405f2054604051908152f35b34610160575f366003190112610160576007546040516001600160a01b039091168152602090f35b34610160575f366003190112610160576005546040516001600160a01b039091168152602090f35b346101605760203660031901126101605761022a610fcb565b6001600e5403610151575f600e556006546007546040516370a0823160e01b81523060048201526001600160a01b0391821692909116602082602481845afa9182156103175784905f93610322575b50610293610299936001600160701b036008541690611051565b91611936565b6040516370a0823160e01b815230600482015291602083602481855afa928315610317575f936102e1575b5061029361014a936001600160701b0360085460701c1690611051565b92506020833d60201161030f575b816102fc6020938361101b565b81010312610160579151916102936102c4565b3d91506102ef565b6040513d5f823e3d90fd5b9250506020823d602011610352575b8161033e6020938361101b565b810103126101605790519083610293610279565b3d9150610331565b34610160575f3660031901126101605760206040516103e88152f35b346101605760403660031901126101605761039c610392610fcb565b602435903361137a565b602060405160018152f35b34610160575f366003190112610160576040515f6004548060011c906001811680156104a1575b60208310811461048d57828552908115610469575060011461040b575b610407836103fb8185038261101b565b60405191829182610fa1565b0390f35b91905060045f527f8a35acfbc15ff81a39ae7d344fd709f28e8600b4aa8c65c6b64bfe7fe36bd19b915f905b80821061044f575090915081016020016103fb6103eb565b919260018160209254838588010152019101909291610437565b60ff191660208086019190915291151560051b840190910191506103fb90506103eb565b634e487b7160e01b5f52602260045260245ffd5b91607f16916103ce565b34610160576020366003190112610160576104c4610fcb565b6001600e5403610151576104dd6040915f600e556110ae565b6001600e5582519182526020820152f35b34610160575f366003190112610160576020600c54604051908152f35b34610160576020366003190112610160576001600160a01b0361052c610fcb565b165f525f602052602060405f2054604051908152f35b34610160576060366003190112610160576044356001600160a01b03811690602435600435838303610160576001600e5403610151575f600e556008546006546007546001600160701b03607084901c8116969316916001600160a01b0391821691168415808061088d575b61087e5715908180610875575b61084557808914801561086c575b61085d578386118015610854575b61084557602494602092610835575b8780610824575b50506040516370a0823160e01b815230600482015294859182905afa928315610317575f936107ef575b50916020602493604051948580926370a0823160e01b82523060048301525afa928315610317575f936107bb575b506106508483611051565b8111156107b45761066a6106648584611051565b82611051565b955b6106768682611051565b8411156107ad5761069061068a8783611051565b85611051565b935b8715806107a5575b610796576127108302928084046127101490151715610782576106ca600b54936106c4858b61105e565b90611051565b6127108202918083046127101490151715610782576106f36106f9926106c46106ff968961105e565b9061105e565b9261105e565b906127108202918083046127101481151715610782576305f5e100029180830461271014901517156107825710610773576040519384526020840152604083015260608201527fd78ad95fa46c994b6551d0da85fc275fe613ce37657fb8d5e3d130840159d82260803392a361014a611682565b63702a418560e01b5f5260045ffd5b634e487b7160e01b5f52601160045260245ffd5b634a08a4a360e11b5f5260045ffd5b50841561069a565b5f93610692565b5f9561066c565b9092506020813d6020116107e7575b816107d76020938361101b565b8101031261016057519187610645565b3d91506107ca565b92506020833d60201161081c575b8161080a6020938361101b565b81010312610160579151916020610617565b3d91506107fd565b61082e9185611936565b89876105ed565b610840878284611936565b6105e6565b6337d93ae160e21b5f5260045ffd5b508787116105d7565b6387db131160e01b5f5260045ffd5b508289146105c9565b508615156105bb565b63c6941f8960e01b5f5260045ffd5b5086156105ae565b34610160576020366003190112610160576108ae610fcb565b6001600e5403610151575f600e556006546040516370a0823160e01b81523060048201529190602090839060249082906001600160a01b03165afa918215610317575f92610b9c575b506007546040516370a0823160e01b815230600482015290602090829060249082906001600160a01b03165afa908115610317575f91610b6a575b506001600160701b038311610b5b576001600160701b038111610b5b576001600160701b03926109846008549161097e86841696879460701c169384926109798483611431565b611051565b93611051565b9382158015610b53575b610b44576002549182610ac9575050506109b06109ab848361105e565b61155d565b926103e8841115610aba576103e7198401938411610782576109e284600495946109dd6103e86001611a0d565b611542565b60405191825260208201527f4c209b5fc8ad50758f13e2e1088ba56a560dff690a1c6fef26394f4c03821c4f60403392a2610a1b611682565b600554604051622fcfcb60e31b81529260209184919082906001600160a01b03165afa8015610317576020925f91610a8d575b506001600160a01b0316610a6a575b6001600e55604051908152f35b610a856008546001600160701b03808260701c16911661105e565b600c55610a5d565b610aad9150833d8511610ab3575b610aa5818361101b565b81019061108f565b83610a4e565b503d610a9b565b632aa60fef60e11b5f5260045ffd5b8195929495158015610b3c575b610b2d57610aee610af3610afa93610aee888861105e565b611071565b958461105e565b928380821091180280841893145f14610b1c57632aa60fef60e11b5f5260045ffd5b610b2883600495611542565b6109e2565b631b61bd4760e21b5f5260045ffd5b508015610ad6565b6308abd71960e41b5f5260045ffd5b50841561098e565b6301549ec560e21b5f5260045ffd5b90506020813d602011610b94575b81610b856020938361101b565b81010312610160575183610932565b3d9150610b78565b9091506020813d602011610bc8575b81610bb86020938361101b565b81010312610160575190826108f7565b3d9150610bab565b34610160575f366003190112610160576020600a54604051908152f35b34610160575f366003190112610160576020600954604051908152f35b34610160575f366003190112610160576020600b54604051908152f35b34610160575f36600319011261016057602060405160128152f35b3461016057610c5036610fe1565b6001600160a01b0383165f8181526001602090815260408083203384529091529020549093919291905f198110610c8d575b5061039c935061137a565b838110610cf2578415610cdf573315610ccc5761039c945f52600160205260405f2060018060a01b0333165f526020528360405f209103905584610c82565b634a1406b160e11b5f525f60045260245ffd5b63e602df0560e01b5f525f60045260245ffd5b8390637dc7a0d960e11b5f523360045260245260445260645ffd5b34610160575f366003190112610160576020600254604051908152f35b3461016057610d3836610fe1565b6005549192916001600160a01b0316330361084557600d5491600160ff8416151514610def576001600160a01b03169283158015610dde575b61085d576001600160a01b031683811461085d5781158015610dd4575b61085d576001936bffffffffffffffffffffffff60a01b60065416176006556bffffffffffffffffffffffff60a01b6007541617600755600b5560ff191617600d555f80f35b5060648211610d8e565b506001600160a01b03811615610d71565b63f669b6bd60e01b5f5260045ffd5b34610160575f366003190112610160576006546040516001600160a01b039091168152602090f35b3461016057604036600319011261016057610e3f610fcb565b602435903315610cdf576001600160a01b0316908115610ccc57335f52600160205260405f20825f526020528060405f20556040519081527f8c5be1e5ebec7d5bd14f71427d1e84f3dd0314c0f7b2291e5b200ac8c7c3b92560203392a3602060405160018152f35b34610160575f366003190112610160576060600854604051906001600160701b03811682526001600160701b038160701c16602083015260e01c6040820152f35b34610160575f366003190112610160575f6003548060011c90600181168015610f97575b60208310811461048d578285529081156104695750600114610f3957610407836103fb8185038261101b565b91905060035f527fc2575a0e9e593c00f959f8c92f12db2869c3395a3b0502d05e2516446f71f85b915f905b808210610f7d575090915081016020016103fb6103eb565b919260018160209254838588010152019101909291610f65565b91607f1691610f0d565b602060409281835280519182918282860152018484015e5f828201840152601f01601f1916010190565b600435906001600160a01b038216820361016057565b6060906003190112610160576004356001600160a01b038116810361016057906024356001600160a01b0381168103610160579060443590565b90601f8019910116810190811067ffffffffffffffff82111761103d57604052565b634e487b7160e01b5f52604160045260245ffd5b9190820391821161078257565b8181029291811591840414171561078257565b811561107b570490565b634e487b7160e01b5f52601260045260245ffd5b9081602091031261016057516001600160a01b03811681036101605790565b90305f525f60205260405f20549182156107965760018060a01b03600654169060018060a01b03600754166110f46008546001600160701b03808260701c169116611431565b6040516370a0823160e01b815230600482015292602084602481845afa938415610317575f94611346575b506040516370a0823160e01b815230600482015293602085602481865afa948515610317575f95611312575b50600254801561130357610aee61116982610aee611170958c61105e565b968961105e565b95841580156112fb575b1561118e57634a08a4a360e11b5f5260045ffd5b30156112e857305f525f60205260405f20548181106112cf57926111fd86868a955f8683976112029a3084528360205203604083205580600254036002556040519081527fddf252ad1be2c89b69c2b068fc378daa952ba7f163c4a11628f55a4df523b3ef60203092a3611936565b611936565b60408051838152602081018690526001600160a01b039092169133917fdccd412f0b1252819cb1fd330b93224ca42612892bb3f4f789976e6d8193649691a3611249611682565b600554604051622fcfcb60e31b815290602090829060049082906001600160a01b03165afa908115610317575f916112b0575b506001600160a01b031661128e579190565b6112a96008546001600160701b03808260701c16911661105e565b600c559190565b6112c9915060203d602011610ab357610aa5818361101b565b5f61127c565b63391434e360e21b5f523060045260245260445260645ffd5b634b637e8f60e11b5f525f60045260245ffd5b50861561117a565b63074700eb60e31b5f5260045ffd5b9094506020813d60201161133e575b8161132e6020938361101b565b810103126101605751935f61114b565b3d9150611321565b9093506020813d602011611372575b816113626020938361101b565b810103126101605751925f61111f565b3d9150611355565b6001600160a01b03169081156112e8576001600160a01b031691821561141157815f525f60205260405f20548181106113f857817fddf252ad1be2c89b69c2b068fc378daa952ba7f163c4a11628f55a4df523b3ef92602092855f525f84520360405f2055845f525f825260405f20818154019055604051908152a3565b8263391434e360e21b5f5260045260245260445260645ffd5b63ec442f0560e01b5f525f60045260245ffd5b9190820180921161078257565b600254600554604051622fcfcb60e31b81529391929190602090859060049082906001600160a01b03165afa938415610317575f94611521575b506001600160a01b03841661148d5750505050600c5461148757565b5f600c55565b600c54918261149e575b5050505050565b6109ab6114ba916001600160701b03806114c09516911661105e565b9161155d565b918282116114cf575b80611497565b6114dd906106f38484611051565b9060058102908082046005149015171561078257611504926114fe91611424565b90611071565b80611511575b80806114c9565b61151a91611542565b5f8061150a565b61153b91945060203d602011610ab357610aa5818361101b565b925f61146b565b906001600160a01b038216156114115761155b91611a0d565b565b600181111561167f57806001600160801b82101561166e575b600482600160401b611620941015611661575b640100000000811015611654575b62010000811015611647575b61010081101561163b575b601081101561162f575b1015611627575b60030260011c6115cf8184611071565b0160011c6115dd8184611071565b0160011c6115eb8184611071565b0160011c6115f98184611071565b0160011c6116078184611071565b0160011c6116158184611071565b0160011c8092611071565b8111900390565b60011b6115bf565b811c9160021b916115b8565b60081c91811b916115ae565b60101c9160081b916115a3565b60201c9160101b91611597565b60401c9160201b91611589565b5050608081901c600160401b611576565b90565b6006546040516370a0823160e01b815230600482015290602090829060249082906001600160a01b03165afa908115610317575f91611904575b506007546040516370a0823160e01b815230600482015290602090829060249082906001600160a01b03165afa908115610317575f916118d2575b506001600160701b038211610b5b576001600160701b038111610b5b5760085460e081901c4263ffffffff168181106118c5570363ffffffff81116107825763ffffffff905b16801515806118b3575b8061189e575b6117c4575b5050607090811b6dffffffffffffffffffffffffffff60701b166001600160701b039283169081174260e01b6001600160e01b03191617600881905560408051928352921c90921660208301527f1c411e9a96e071241c2f21f7726b17ae89e3cab4c78be50e062b03a9fffbbad191a1565b6001600160701b038260709493941c1693670de0b6b3a7640000850293858504670de0b6b3a76400001486151715610782576001600160701b0361180a91168095611071565b90670de0b6b3a7640000850294808604670de0b6b3a7640000149015171561078257611890611888846001600160701b03959461188061187888976118727f1c411e9a96e071241c2f21f7726b17ae89e3cab4c78be50e062b03a9fffbbad19d60409d611071565b9361105e565b600954611424565b60095561105e565b600a54611424565b600a55945050819250611752565b506001600160701b038260701c16151561174d565b506001600160701b0382161515611747565b505063ffffffff5f61173d565b90506020813d6020116118fc575b816118ed6020938361101b565b8101031261016057515f6116f7565b3d91506118e0565b90506020813d60201161192e575b8161191f6020938361101b565b8101031261016057515f6116bc565b3d9150611912565b5f929183809360405190602082019363a9059cbb60e01b855260018060a01b0316602483015260448201526044815261197060648261101b565b51925af13d15611a05573d9067ffffffffffffffff821161103d57604051916119a3601f8201601f19166020018461101b565b82523d5f602084013e5b159081156119cc575b506119bd57565b630df759e760e31b5f5260045ffd5b80518015159250826119e1575b50505f6119b6565b81925090602091810103126101605760200151801590811503610160575f806119d9565b6060906119ad565b7fddf252ad1be2c89b69c2b068fc378daa952ba7f163c4a11628f55a4df523b3ef60205f92611a3e85600254611424565b6002556001600160a01b03169384158414611a655780600254036002555b604051908152a3565b84845283825260408420818154019055611a5c56fea264697066735822122012b453ea0898a951245087a2a1855ace7f3f0f1d6146d962cbcda760a4371f6964736f6c63430008210033"
        }
      ],
      "isFixedGasLimit": false
    },
    {
      "hash": "0x6ebccbc80203afb3c0b4fa9a187febab6331f96c7832b51db52c5f83fb6e29b4",
      "transactionType": "CALL",
      "contractName": "Router",
      "contractAddress": "0x8f19ef21ede7d881003fca1e50285a113915cb5f",
      "function": "addLiquidity(address,address,uint256,uint256,uint256,uint256,address,uint256)",
      "arguments": [
        "0xC4999f55d2887d003d17Dc42625354fA364c29D1",
        "0x98697D7bc9ea50CE6682ed52CBC95806E7fDee0f",
        "500000000000000000000000",
        "500000000000",
        "0",
        "0",
        "0x97BF134cDf8A620aa0F10E140b89a2aDAAC2bBbF",
        "115792089237316195423570985008687907853269984665640564039457584007913129639935"
      ],
      "transaction": {
        "from": "0x97bf134cdf8a620aa0f10e140b89a2adaac2bbbf",
        "to": "0x8f19ef21ede7d881003fca1e50285a113915cb5f",
        "gas": "0x2b4280",
        "value": "0x0",
        "input": "0xe8e33700000000000000000000000000c4999f55d2887d003d17dc42625354fa364c29d100000000000000000000000098697d7bc9ea50ce6682ed52cbc95806e7fdee0f0000000000000000000000000000000000000000000069e10de76676d0800000000000000000000000000000000000000000000000000000000000746a5288000000000000000000000000000000000000000000000000000000000000000000000000000000000000000000000000000000000000000000000000000000000000000000000000000000000097bf134cdf8a620aa0f10e140b89a2adaac2bbbfffffffffffffffffffffffffffffffffffffffffffffffffffffffffffffffff",
        "nonce": "0x4d",
        "chainId": "0x66eee"
      },
      "additionalContracts": [
        {
          "transactionType": "CREATE2",
          "contractName": "Pair",
          "address": "0xed31f9e699f23420b3426f1e42ba9ead4e7cde57",
          "initCode": "0x60806040523461033d57604080519081016001600160401b038111828210176102455760409081526008825267262816aa27a5a2a760c11b602083015280519081016001600160401b0381118282101761024557604052600281526104c560f41b602082015281516001600160401b03811161024557600354600181811c91168015610333575b602082101461022757601f81116102c5575b50602092601f821160011461026457928192935f92610259575b50508160011b915f199060031b1c1916176003555b80516001600160401b03811161024557600454600181811c9116801561023b575b602082101461022757601f81116101b9575b50602091601f8211600114610159579181925f9261014e575b50508160011b915f199060031b1c1916176004555b6001600e55600580546001600160a01b03191633179055604051611ab090816103428239f35b015190505f80610113565b601f1982169260045f52805f20915f5b8581106101a157508360019510610189575b505050811b01600455610128565b01515f1960f88460031b161c191690555f808061017b565b91926020600181928685015181550194019201610169565b818111156100fa5760045f52601f820160051c7f8a35acfbc15ff81a39ae7d344fd709f28e8600b4aa8c65c6b64bfe7fe36bd19b6020841061021f575b81601f9101920160051c03905f5b8281106102125750506100fa565b5f82820155600101610204565b5f91506101f6565b634e487b7160e01b5f52602260045260245ffd5b90607f16906100e8565b634e487b7160e01b5f52604160045260245ffd5b015190505f806100b2565b601f1982169360035f52805f20915f5b8681106102ad5750836001959610610295575b505050811b016003556100c7565b01515f1960f88460031b161c191690555f8080610287565b91926020600181928685015181550194019201610274565b818111156100985760035f52601f820160051c7fc2575a0e9e593c00f959f8c92f12db2869c3395a3b0502d05e2516446f71f85b6020841061032b575b81601f9101920160051c03905f5b82811061031e575050610098565b5f82820155600101610310565b5f9150610302565b90607f1690610086565b5f80fdfe6080806040526004361015610012575f80fd5b5f3560e01c90816306fdde0314610ee9575080630902f1ac14610ea8578063095ea7b314610e265780630dfe168114610dfe5780631794bb3c14610d2a57806318160ddd14610d0d57806323b872dd14610c42578063313ce56714610c275780633d5c506814610c0a5780635909c0d514610bed5780635a3d549314610bd05780636a627842146108955780636d9a640a1461054257806370a082311461050b5780637464fc3d146104ee57806389afcb44146104ab57806395d89b41146103a7578063a9059cbb14610376578063ba9a7a561461035a578063bc25cf7714610211578063c45a0155146101e9578063d21220a7146101c1578063dd62ed3e146101645763fff6cae914610124575f80fd5b34610160575f366003190112610160576001600e5403610151575f600e5561014a611682565b6001600e55005b63e6b179a360e01b5f5260045ffd5b5f80fd5b346101605760403660031901126101605761017d610fcb565b602435906001600160a01b03821682036101605760018060a01b03165f52600160205260405f209060018060a01b03165f52602052602060405f2054604051908152f35b34610160575f366003190112610160576007546040516001600160a01b039091168152602090f35b34610160575f366003190112610160576005546040516001600160a01b039091168152602090f35b346101605760203660031901126101605761022a610fcb565b6001600e5403610151575f600e556006546007546040516370a0823160e01b81523060048201526001600160a01b0391821692909116602082602481845afa9182156103175784905f93610322575b50610293610299936001600160701b036008541690611051565b91611936565b6040516370a0823160e01b815230600482015291602083602481855afa928315610317575f936102e1575b5061029361014a936001600160701b0360085460701c1690611051565b92506020833d60201161030f575b816102fc6020938361101b565b81010312610160579151916102936102c4565b3d91506102ef565b6040513d5f823e3d90fd5b9250506020823d602011610352575b8161033e6020938361101b565b810103126101605790519083610293610279565b3d9150610331565b34610160575f3660031901126101605760206040516103e88152f35b346101605760403660031901126101605761039c610392610fcb565b602435903361137a565b602060405160018152f35b34610160575f366003190112610160576040515f6004548060011c906001811680156104a1575b60208310811461048d57828552908115610469575060011461040b575b610407836103fb8185038261101b565b60405191829182610fa1565b0390f35b91905060045f527f8a35acfbc15ff81a39ae7d344fd709f28e8600b4aa8c65c6b64bfe7fe36bd19b915f905b80821061044f575090915081016020016103fb6103eb565b919260018160209254838588010152019101909291610437565b60ff191660208086019190915291151560051b840190910191506103fb90506103eb565b634e487b7160e01b5f52602260045260245ffd5b91607f16916103ce565b34610160576020366003190112610160576104c4610fcb565b6001600e5403610151576104dd6040915f600e556110ae565b6001600e5582519182526020820152f35b34610160575f366003190112610160576020600c54604051908152f35b34610160576020366003190112610160576001600160a01b0361052c610fcb565b165f525f602052602060405f2054604051908152f35b34610160576060366003190112610160576044356001600160a01b03811690602435600435838303610160576001600e5403610151575f600e556008546006546007546001600160701b03607084901c8116969316916001600160a01b0391821691168415808061088d575b61087e5715908180610875575b61084557808914801561086c575b61085d578386118015610854575b61084557602494602092610835575b8780610824575b50506040516370a0823160e01b815230600482015294859182905afa928315610317575f936107ef575b50916020602493604051948580926370a0823160e01b82523060048301525afa928315610317575f936107bb575b506106508483611051565b8111156107b45761066a6106648584611051565b82611051565b955b6106768682611051565b8411156107ad5761069061068a8783611051565b85611051565b935b8715806107a5575b610796576127108302928084046127101490151715610782576106ca600b54936106c4858b61105e565b90611051565b6127108202918083046127101490151715610782576106f36106f9926106c46106ff968961105e565b9061105e565b9261105e565b906127108202918083046127101481151715610782576305f5e100029180830461271014901517156107825710610773576040519384526020840152604083015260608201527fd78ad95fa46c994b6551d0da85fc275fe613ce37657fb8d5e3d130840159d82260803392a361014a611682565b63702a418560e01b5f5260045ffd5b634e487b7160e01b5f52601160045260245ffd5b634a08a4a360e11b5f5260045ffd5b50841561069a565b5f93610692565b5f9561066c565b9092506020813d6020116107e7575b816107d76020938361101b565b8101031261016057519187610645565b3d91506107ca565b92506020833d60201161081c575b8161080a6020938361101b565b81010312610160579151916020610617565b3d91506107fd565b61082e9185611936565b89876105ed565b610840878284611936565b6105e6565b6337d93ae160e21b5f5260045ffd5b508787116105d7565b6387db131160e01b5f5260045ffd5b508289146105c9565b508615156105bb565b63c6941f8960e01b5f5260045ffd5b5086156105ae565b34610160576020366003190112610160576108ae610fcb565b6001600e5403610151575f600e556006546040516370a0823160e01b81523060048201529190602090839060249082906001600160a01b03165afa918215610317575f92610b9c575b506007546040516370a0823160e01b815230600482015290602090829060249082906001600160a01b03165afa908115610317575f91610b6a575b506001600160701b038311610b5b576001600160701b038111610b5b576001600160701b03926109846008549161097e86841696879460701c169384926109798483611431565b611051565b93611051565b9382158015610b53575b610b44576002549182610ac9575050506109b06109ab848361105e565b61155d565b926103e8841115610aba576103e7198401938411610782576109e284600495946109dd6103e86001611a0d565b611542565b60405191825260208201527f4c209b5fc8ad50758f13e2e1088ba56a560dff690a1c6fef26394f4c03821c4f60403392a2610a1b611682565b600554604051622fcfcb60e31b81529260209184919082906001600160a01b03165afa8015610317576020925f91610a8d575b506001600160a01b0316610a6a575b6001600e55604051908152f35b610a856008546001600160701b03808260701c16911661105e565b600c55610a5d565b610aad9150833d8511610ab3575b610aa5818361101b565b81019061108f565b83610a4e565b503d610a9b565b632aa60fef60e11b5f5260045ffd5b8195929495158015610b3c575b610b2d57610aee610af3610afa93610aee888861105e565b611071565b958461105e565b928380821091180280841893145f14610b1c57632aa60fef60e11b5f5260045ffd5b610b2883600495611542565b6109e2565b631b61bd4760e21b5f5260045ffd5b508015610ad6565b6308abd71960e41b5f5260045ffd5b50841561098e565b6301549ec560e21b5f5260045ffd5b90506020813d602011610b94575b81610b856020938361101b565b81010312610160575183610932565b3d9150610b78565b9091506020813d602011610bc8575b81610bb86020938361101b565b81010312610160575190826108f7565b3d9150610bab565b34610160575f366003190112610160576020600a54604051908152f35b34610160575f366003190112610160576020600954604051908152f35b34610160575f366003190112610160576020600b54604051908152f35b34610160575f36600319011261016057602060405160128152f35b3461016057610c5036610fe1565b6001600160a01b0383165f8181526001602090815260408083203384529091529020549093919291905f198110610c8d575b5061039c935061137a565b838110610cf2578415610cdf573315610ccc5761039c945f52600160205260405f2060018060a01b0333165f526020528360405f209103905584610c82565b634a1406b160e11b5f525f60045260245ffd5b63e602df0560e01b5f525f60045260245ffd5b8390637dc7a0d960e11b5f523360045260245260445260645ffd5b34610160575f366003190112610160576020600254604051908152f35b3461016057610d3836610fe1565b6005549192916001600160a01b0316330361084557600d5491600160ff8416151514610def576001600160a01b03169283158015610dde575b61085d576001600160a01b031683811461085d5781158015610dd4575b61085d576001936bffffffffffffffffffffffff60a01b60065416176006556bffffffffffffffffffffffff60a01b6007541617600755600b5560ff191617600d555f80f35b5060648211610d8e565b506001600160a01b03811615610d71565b63f669b6bd60e01b5f5260045ffd5b34610160575f366003190112610160576006546040516001600160a01b039091168152602090f35b3461016057604036600319011261016057610e3f610fcb565b602435903315610cdf576001600160a01b0316908115610ccc57335f52600160205260405f20825f526020528060405f20556040519081527f8c5be1e5ebec7d5bd14f71427d1e84f3dd0314c0f7b2291e5b200ac8c7c3b92560203392a3602060405160018152f35b34610160575f366003190112610160576060600854604051906001600160701b03811682526001600160701b038160701c16602083015260e01c6040820152f35b34610160575f366003190112610160575f6003548060011c90600181168015610f97575b60208310811461048d578285529081156104695750600114610f3957610407836103fb8185038261101b565b91905060035f527fc2575a0e9e593c00f959f8c92f12db2869c3395a3b0502d05e2516446f71f85b915f905b808210610f7d575090915081016020016103fb6103eb565b919260018160209254838588010152019101909291610f65565b91607f1691610f0d565b602060409281835280519182918282860152018484015e5f828201840152601f01601f1916010190565b600435906001600160a01b038216820361016057565b6060906003190112610160576004356001600160a01b038116810361016057906024356001600160a01b0381168103610160579060443590565b90601f8019910116810190811067ffffffffffffffff82111761103d57604052565b634e487b7160e01b5f52604160045260245ffd5b9190820391821161078257565b8181029291811591840414171561078257565b811561107b570490565b634e487b7160e01b5f52601260045260245ffd5b9081602091031261016057516001600160a01b03811681036101605790565b90305f525f60205260405f20549182156107965760018060a01b03600654169060018060a01b03600754166110f46008546001600160701b03808260701c169116611431565b6040516370a0823160e01b815230600482015292602084602481845afa938415610317575f94611346575b506040516370a0823160e01b815230600482015293602085602481865afa948515610317575f95611312575b50600254801561130357610aee61116982610aee611170958c61105e565b968961105e565b95841580156112fb575b1561118e57634a08a4a360e11b5f5260045ffd5b30156112e857305f525f60205260405f20548181106112cf57926111fd86868a955f8683976112029a3084528360205203604083205580600254036002556040519081527fddf252ad1be2c89b69c2b068fc378daa952ba7f163c4a11628f55a4df523b3ef60203092a3611936565b611936565b60408051838152602081018690526001600160a01b039092169133917fdccd412f0b1252819cb1fd330b93224ca42612892bb3f4f789976e6d8193649691a3611249611682565b600554604051622fcfcb60e31b815290602090829060049082906001600160a01b03165afa908115610317575f916112b0575b506001600160a01b031661128e579190565b6112a96008546001600160701b03808260701c16911661105e565b600c559190565b6112c9915060203d602011610ab357610aa5818361101b565b5f61127c565b63391434e360e21b5f523060045260245260445260645ffd5b634b637e8f60e11b5f525f60045260245ffd5b50861561117a565b63074700eb60e31b5f5260045ffd5b9094506020813d60201161133e575b8161132e6020938361101b565b810103126101605751935f61114b565b3d9150611321565b9093506020813d602011611372575b816113626020938361101b565b810103126101605751925f61111f565b3d9150611355565b6001600160a01b03169081156112e8576001600160a01b031691821561141157815f525f60205260405f20548181106113f857817fddf252ad1be2c89b69c2b068fc378daa952ba7f163c4a11628f55a4df523b3ef92602092855f525f84520360405f2055845f525f825260405f20818154019055604051908152a3565b8263391434e360e21b5f5260045260245260445260645ffd5b63ec442f0560e01b5f525f60045260245ffd5b9190820180921161078257565b600254600554604051622fcfcb60e31b81529391929190602090859060049082906001600160a01b03165afa938415610317575f94611521575b506001600160a01b03841661148d5750505050600c5461148757565b5f600c55565b600c54918261149e575b5050505050565b6109ab6114ba916001600160701b03806114c09516911661105e565b9161155d565b918282116114cf575b80611497565b6114dd906106f38484611051565b9060058102908082046005149015171561078257611504926114fe91611424565b90611071565b80611511575b80806114c9565b61151a91611542565b5f8061150a565b61153b91945060203d602011610ab357610aa5818361101b565b925f61146b565b906001600160a01b038216156114115761155b91611a0d565b565b600181111561167f57806001600160801b82101561166e575b600482600160401b611620941015611661575b640100000000811015611654575b62010000811015611647575b61010081101561163b575b601081101561162f575b1015611627575b60030260011c6115cf8184611071565b0160011c6115dd8184611071565b0160011c6115eb8184611071565b0160011c6115f98184611071565b0160011c6116078184611071565b0160011c6116158184611071565b0160011c8092611071565b8111900390565b60011b6115bf565b811c9160021b916115b8565b60081c91811b916115ae565b60101c9160081b916115a3565b60201c9160101b91611597565b60401c9160201b91611589565b5050608081901c600160401b611576565b90565b6006546040516370a0823160e01b815230600482015290602090829060249082906001600160a01b03165afa908115610317575f91611904575b506007546040516370a0823160e01b815230600482015290602090829060249082906001600160a01b03165afa908115610317575f916118d2575b506001600160701b038211610b5b576001600160701b038111610b5b5760085460e081901c4263ffffffff168181106118c5570363ffffffff81116107825763ffffffff905b16801515806118b3575b8061189e575b6117c4575b5050607090811b6dffffffffffffffffffffffffffff60701b166001600160701b039283169081174260e01b6001600160e01b03191617600881905560408051928352921c90921660208301527f1c411e9a96e071241c2f21f7726b17ae89e3cab4c78be50e062b03a9fffbbad191a1565b6001600160701b038260709493941c1693670de0b6b3a7640000850293858504670de0b6b3a76400001486151715610782576001600160701b0361180a91168095611071565b90670de0b6b3a7640000850294808604670de0b6b3a7640000149015171561078257611890611888846001600160701b03959461188061187888976118727f1c411e9a96e071241c2f21f7726b17ae89e3cab4c78be50e062b03a9fffbbad19d60409d611071565b9361105e565b600954611424565b60095561105e565b600a54611424565b600a55945050819250611752565b506001600160701b038260701c16151561174d565b506001600160701b0382161515611747565b505063ffffffff5f61173d565b90506020813d6020116118fc575b816118ed6020938361101b565b8101031261016057515f6116f7565b3d91506118e0565b90506020813d60201161192e575b8161191f6020938361101b565b8101031261016057515f6116bc565b3d9150611912565b5f929183809360405190602082019363a9059cbb60e01b855260018060a01b0316602483015260448201526044815261197060648261101b565b51925af13d15611a05573d9067ffffffffffffffff821161103d57604051916119a3601f8201601f19166020018461101b565b82523d5f602084013e5b159081156119cc575b506119bd57565b630df759e760e31b5f5260045ffd5b80518015159250826119e1575b50505f6119b6565b81925090602091810103126101605760200151801590811503610160575f806119d9565b6060906119ad565b7fddf252ad1be2c89b69c2b068fc378daa952ba7f163c4a11628f55a4df523b3ef60205f92611a3e85600254611424565b6002556001600160a01b03169384158414611a655780600254036002555b604051908152a3565b84845283825260408420818154019055611a5c56fea264697066735822122012b453ea0898a951245087a2a1855ace7f3f0f1d6146d962cbcda760a4371f6964736f6c63430008210033"
        }
      ],
      "isFixedGasLimit": false
    },
    {
      "hash": "0xfc96295016510044363f0966c0c79c80a2938e79f589b483add257747af2e08a",
      "transactionType": "CALL",
      "contractName": "Router",
      "contractAddress": "0x8f19ef21ede7d881003fca1e50285a113915cb5f",
      "function": "addLiquidity(address,address,uint256,uint256,uint256,uint256,address,uint256)",
      "arguments": [
        "0x9e3b254cAdC9eaeFa80fD85F26Eb7BbBE1F59560",
        "0x98697D7bc9ea50CE6682ed52CBC95806E7fDee0f",
        "100000000000000000000000",
        "100000000000",
        "0",
        "0",
        "0x97BF134cDf8A620aa0F10E140b89a2aDAAC2bBbF",
        "115792089237316195423570985008687907853269984665640564039457584007913129639935"
      ],
      "transaction": {
        "from": "0x97bf134cdf8a620aa0f10e140b89a2adaac2bbbf",
        "to": "0x8f19ef21ede7d881003fca1e50285a113915cb5f",
        "gas": "0x2b41ff",
        "value": "0x0",
        "input": "0xe8e337000000000000000000000000009e3b254cadc9eaefa80fd85f26eb7bbbe1f5956000000000000000000000000098697d7bc9ea50ce6682ed52cbc95806e7fdee0f00000000000000000000000000000000000000000000152d02c7e14af6800000000000000000000000000000000000000000000000000000000000174876e8000000000000000000000000000000000000000000000000000000000000000000000000000000000000000000000000000000000000000000000000000000000000000000000000000000000097bf134cdf8a620aa0f10e140b89a2adaac2bbbfffffffffffffffffffffffffffffffffffffffffffffffffffffffffffffffff",
        "nonce": "0x4e",
        "chainId": "0x66eee"
      },
      "additionalContracts": [
        {
          "transactionType": "CREATE2",
          "contractName": "Pair",
          "address": "0x72576851a0a7955b3361fe1e59eaaf0eee931216",
          "initCode": "0x60806040523461033d57604080519081016001600160401b038111828210176102455760409081526008825267262816aa27a5a2a760c11b602083015280519081016001600160401b0381118282101761024557604052600281526104c560f41b602082015281516001600160401b03811161024557600354600181811c91168015610333575b602082101461022757601f81116102c5575b50602092601f821160011461026457928192935f92610259575b50508160011b915f199060031b1c1916176003555b80516001600160401b03811161024557600454600181811c9116801561023b575b602082101461022757601f81116101b9575b50602091601f8211600114610159579181925f9261014e575b50508160011b915f199060031b1c1916176004555b6001600e55600580546001600160a01b03191633179055604051611ab090816103428239f35b015190505f80610113565b601f1982169260045f52805f20915f5b8581106101a157508360019510610189575b505050811b01600455610128565b01515f1960f88460031b161c191690555f808061017b565b91926020600181928685015181550194019201610169565b818111156100fa5760045f52601f820160051c7f8a35acfbc15ff81a39ae7d344fd709f28e8600b4aa8c65c6b64bfe7fe36bd19b6020841061021f575b81601f9101920160051c03905f5b8281106102125750506100fa565b5f82820155600101610204565b5f91506101f6565b634e487b7160e01b5f52602260045260245ffd5b90607f16906100e8565b634e487b7160e01b5f52604160045260245ffd5b015190505f806100b2565b601f1982169360035f52805f20915f5b8681106102ad5750836001959610610295575b505050811b016003556100c7565b01515f1960f88460031b161c191690555f8080610287565b91926020600181928685015181550194019201610274565b818111156100985760035f52601f820160051c7fc2575a0e9e593c00f959f8c92f12db2869c3395a3b0502d05e2516446f71f85b6020841061032b575b81601f9101920160051c03905f5b82811061031e575050610098565b5f82820155600101610310565b5f9150610302565b90607f1690610086565b5f80fdfe6080806040526004361015610012575f80fd5b5f3560e01c90816306fdde0314610ee9575080630902f1ac14610ea8578063095ea7b314610e265780630dfe168114610dfe5780631794bb3c14610d2a57806318160ddd14610d0d57806323b872dd14610c42578063313ce56714610c275780633d5c506814610c0a5780635909c0d514610bed5780635a3d549314610bd05780636a627842146108955780636d9a640a1461054257806370a082311461050b5780637464fc3d146104ee57806389afcb44146104ab57806395d89b41146103a7578063a9059cbb14610376578063ba9a7a561461035a578063bc25cf7714610211578063c45a0155146101e9578063d21220a7146101c1578063dd62ed3e146101645763fff6cae914610124575f80fd5b34610160575f366003190112610160576001600e5403610151575f600e5561014a611682565b6001600e55005b63e6b179a360e01b5f5260045ffd5b5f80fd5b346101605760403660031901126101605761017d610fcb565b602435906001600160a01b03821682036101605760018060a01b03165f52600160205260405f209060018060a01b03165f52602052602060405f2054604051908152f35b34610160575f366003190112610160576007546040516001600160a01b039091168152602090f35b34610160575f366003190112610160576005546040516001600160a01b039091168152602090f35b346101605760203660031901126101605761022a610fcb565b6001600e5403610151575f600e556006546007546040516370a0823160e01b81523060048201526001600160a01b0391821692909116602082602481845afa9182156103175784905f93610322575b50610293610299936001600160701b036008541690611051565b91611936565b6040516370a0823160e01b815230600482015291602083602481855afa928315610317575f936102e1575b5061029361014a936001600160701b0360085460701c1690611051565b92506020833d60201161030f575b816102fc6020938361101b565b81010312610160579151916102936102c4565b3d91506102ef565b6040513d5f823e3d90fd5b9250506020823d602011610352575b8161033e6020938361101b565b810103126101605790519083610293610279565b3d9150610331565b34610160575f3660031901126101605760206040516103e88152f35b346101605760403660031901126101605761039c610392610fcb565b602435903361137a565b602060405160018152f35b34610160575f366003190112610160576040515f6004548060011c906001811680156104a1575b60208310811461048d57828552908115610469575060011461040b575b610407836103fb8185038261101b565b60405191829182610fa1565b0390f35b91905060045f527f8a35acfbc15ff81a39ae7d344fd709f28e8600b4aa8c65c6b64bfe7fe36bd19b915f905b80821061044f575090915081016020016103fb6103eb565b919260018160209254838588010152019101909291610437565b60ff191660208086019190915291151560051b840190910191506103fb90506103eb565b634e487b7160e01b5f52602260045260245ffd5b91607f16916103ce565b34610160576020366003190112610160576104c4610fcb565b6001600e5403610151576104dd6040915f600e556110ae565b6001600e5582519182526020820152f35b34610160575f366003190112610160576020600c54604051908152f35b34610160576020366003190112610160576001600160a01b0361052c610fcb565b165f525f602052602060405f2054604051908152f35b34610160576060366003190112610160576044356001600160a01b03811690602435600435838303610160576001600e5403610151575f600e556008546006546007546001600160701b03607084901c8116969316916001600160a01b0391821691168415808061088d575b61087e5715908180610875575b61084557808914801561086c575b61085d578386118015610854575b61084557602494602092610835575b8780610824575b50506040516370a0823160e01b815230600482015294859182905afa928315610317575f936107ef575b50916020602493604051948580926370a0823160e01b82523060048301525afa928315610317575f936107bb575b506106508483611051565b8111156107b45761066a6106648584611051565b82611051565b955b6106768682611051565b8411156107ad5761069061068a8783611051565b85611051565b935b8715806107a5575b610796576127108302928084046127101490151715610782576106ca600b54936106c4858b61105e565b90611051565b6127108202918083046127101490151715610782576106f36106f9926106c46106ff968961105e565b9061105e565b9261105e565b906127108202918083046127101481151715610782576305f5e100029180830461271014901517156107825710610773576040519384526020840152604083015260608201527fd78ad95fa46c994b6551d0da85fc275fe613ce37657fb8d5e3d130840159d82260803392a361014a611682565b63702a418560e01b5f5260045ffd5b634e487b7160e01b5f52601160045260245ffd5b634a08a4a360e11b5f5260045ffd5b50841561069a565b5f93610692565b5f9561066c565b9092506020813d6020116107e7575b816107d76020938361101b565b8101031261016057519187610645565b3d91506107ca565b92506020833d60201161081c575b8161080a6020938361101b565b81010312610160579151916020610617565b3d91506107fd565b61082e9185611936565b89876105ed565b610840878284611936565b6105e6565b6337d93ae160e21b5f5260045ffd5b508787116105d7565b6387db131160e01b5f5260045ffd5b508289146105c9565b508615156105bb565b63c6941f8960e01b5f5260045ffd5b5086156105ae565b34610160576020366003190112610160576108ae610fcb565b6001600e5403610151575f600e556006546040516370a0823160e01b81523060048201529190602090839060249082906001600160a01b03165afa918215610317575f92610b9c575b506007546040516370a0823160e01b815230600482015290602090829060249082906001600160a01b03165afa908115610317575f91610b6a575b506001600160701b038311610b5b576001600160701b038111610b5b576001600160701b03926109846008549161097e86841696879460701c169384926109798483611431565b611051565b93611051565b9382158015610b53575b610b44576002549182610ac9575050506109b06109ab848361105e565b61155d565b926103e8841115610aba576103e7198401938411610782576109e284600495946109dd6103e86001611a0d565b611542565b60405191825260208201527f4c209b5fc8ad50758f13e2e1088ba56a560dff690a1c6fef26394f4c03821c4f60403392a2610a1b611682565b600554604051622fcfcb60e31b81529260209184919082906001600160a01b03165afa8015610317576020925f91610a8d575b506001600160a01b0316610a6a575b6001600e55604051908152f35b610a856008546001600160701b03808260701c16911661105e565b600c55610a5d565b610aad9150833d8511610ab3575b610aa5818361101b565b81019061108f565b83610a4e565b503d610a9b565b632aa60fef60e11b5f5260045ffd5b8195929495158015610b3c575b610b2d57610aee610af3610afa93610aee888861105e565b611071565b958461105e565b928380821091180280841893145f14610b1c57632aa60fef60e11b5f5260045ffd5b610b2883600495611542565b6109e2565b631b61bd4760e21b5f5260045ffd5b508015610ad6565b6308abd71960e41b5f5260045ffd5b50841561098e565b6301549ec560e21b5f5260045ffd5b90506020813d602011610b94575b81610b856020938361101b565b81010312610160575183610932565b3d9150610b78565b9091506020813d602011610bc8575b81610bb86020938361101b565b81010312610160575190826108f7565b3d9150610bab565b34610160575f366003190112610160576020600a54604051908152f35b34610160575f366003190112610160576020600954604051908152f35b34610160575f366003190112610160576020600b54604051908152f35b34610160575f36600319011261016057602060405160128152f35b3461016057610c5036610fe1565b6001600160a01b0383165f8181526001602090815260408083203384529091529020549093919291905f198110610c8d575b5061039c935061137a565b838110610cf2578415610cdf573315610ccc5761039c945f52600160205260405f2060018060a01b0333165f526020528360405f209103905584610c82565b634a1406b160e11b5f525f60045260245ffd5b63e602df0560e01b5f525f60045260245ffd5b8390637dc7a0d960e11b5f523360045260245260445260645ffd5b34610160575f366003190112610160576020600254604051908152f35b3461016057610d3836610fe1565b6005549192916001600160a01b0316330361084557600d5491600160ff8416151514610def576001600160a01b03169283158015610dde575b61085d576001600160a01b031683811461085d5781158015610dd4575b61085d576001936bffffffffffffffffffffffff60a01b60065416176006556bffffffffffffffffffffffff60a01b6007541617600755600b5560ff191617600d555f80f35b5060648211610d8e565b506001600160a01b03811615610d71565b63f669b6bd60e01b5f5260045ffd5b34610160575f366003190112610160576006546040516001600160a01b039091168152602090f35b3461016057604036600319011261016057610e3f610fcb565b602435903315610cdf576001600160a01b0316908115610ccc57335f52600160205260405f20825f526020528060405f20556040519081527f8c5be1e5ebec7d5bd14f71427d1e84f3dd0314c0f7b2291e5b200ac8c7c3b92560203392a3602060405160018152f35b34610160575f366003190112610160576060600854604051906001600160701b03811682526001600160701b038160701c16602083015260e01c6040820152f35b34610160575f366003190112610160575f6003548060011c90600181168015610f97575b60208310811461048d578285529081156104695750600114610f3957610407836103fb8185038261101b565b91905060035f527fc2575a0e9e593c00f959f8c92f12db2869c3395a3b0502d05e2516446f71f85b915f905b808210610f7d575090915081016020016103fb6103eb565b919260018160209254838588010152019101909291610f65565b91607f1691610f0d565b602060409281835280519182918282860152018484015e5f828201840152601f01601f1916010190565b600435906001600160a01b038216820361016057565b6060906003190112610160576004356001600160a01b038116810361016057906024356001600160a01b0381168103610160579060443590565b90601f8019910116810190811067ffffffffffffffff82111761103d57604052565b634e487b7160e01b5f52604160045260245ffd5b9190820391821161078257565b8181029291811591840414171561078257565b811561107b570490565b634e487b7160e01b5f52601260045260245ffd5b9081602091031261016057516001600160a01b03811681036101605790565b90305f525f60205260405f20549182156107965760018060a01b03600654169060018060a01b03600754166110f46008546001600160701b03808260701c169116611431565b6040516370a0823160e01b815230600482015292602084602481845afa938415610317575f94611346575b506040516370a0823160e01b815230600482015293602085602481865afa948515610317575f95611312575b50600254801561130357610aee61116982610aee611170958c61105e565b968961105e565b95841580156112fb575b1561118e57634a08a4a360e11b5f5260045ffd5b30156112e857305f525f60205260405f20548181106112cf57926111fd86868a955f8683976112029a3084528360205203604083205580600254036002556040519081527fddf252ad1be2c89b69c2b068fc378daa952ba7f163c4a11628f55a4df523b3ef60203092a3611936565b611936565b60408051838152602081018690526001600160a01b039092169133917fdccd412f0b1252819cb1fd330b93224ca42612892bb3f4f789976e6d8193649691a3611249611682565b600554604051622fcfcb60e31b815290602090829060049082906001600160a01b03165afa908115610317575f916112b0575b506001600160a01b031661128e579190565b6112a96008546001600160701b03808260701c16911661105e565b600c559190565b6112c9915060203d602011610ab357610aa5818361101b565b5f61127c565b63391434e360e21b5f523060045260245260445260645ffd5b634b637e8f60e11b5f525f60045260245ffd5b50861561117a565b63074700eb60e31b5f5260045ffd5b9094506020813d60201161133e575b8161132e6020938361101b565b810103126101605751935f61114b565b3d9150611321565b9093506020813d602011611372575b816113626020938361101b565b810103126101605751925f61111f565b3d9150611355565b6001600160a01b03169081156112e8576001600160a01b031691821561141157815f525f60205260405f20548181106113f857817fddf252ad1be2c89b69c2b068fc378daa952ba7f163c4a11628f55a4df523b3ef92602092855f525f84520360405f2055845f525f825260405f20818154019055604051908152a3565b8263391434e360e21b5f5260045260245260445260645ffd5b63ec442f0560e01b5f525f60045260245ffd5b9190820180921161078257565b600254600554604051622fcfcb60e31b81529391929190602090859060049082906001600160a01b03165afa938415610317575f94611521575b506001600160a01b03841661148d5750505050600c5461148757565b5f600c55565b600c54918261149e575b5050505050565b6109ab6114ba916001600160701b03806114c09516911661105e565b9161155d565b918282116114cf575b80611497565b6114dd906106f38484611051565b9060058102908082046005149015171561078257611504926114fe91611424565b90611071565b80611511575b80806114c9565b61151a91611542565b5f8061150a565b61153b91945060203d602011610ab357610aa5818361101b565b925f61146b565b906001600160a01b038216156114115761155b91611a0d565b565b600181111561167f57806001600160801b82101561166e575b600482600160401b611620941015611661575b640100000000811015611654575b62010000811015611647575b61010081101561163b575b601081101561162f575b1015611627575b60030260011c6115cf8184611071565b0160011c6115dd8184611071565b0160011c6115eb8184611071565b0160011c6115f98184611071565b0160011c6116078184611071565b0160011c6116158184611071565b0160011c8092611071565b8111900390565b60011b6115bf565b811c9160021b916115b8565b60081c91811b916115ae565b60101c9160081b916115a3565b60201c9160101b91611597565b60401c9160201b91611589565b5050608081901c600160401b611576565b90565b6006546040516370a0823160e01b815230600482015290602090829060249082906001600160a01b03165afa908115610317575f91611904575b506007546040516370a0823160e01b815230600482015290602090829060249082906001600160a01b03165afa908115610317575f916118d2575b506001600160701b038211610b5b576001600160701b038111610b5b5760085460e081901c4263ffffffff168181106118c5570363ffffffff81116107825763ffffffff905b16801515806118b3575b8061189e575b6117c4575b5050607090811b6dffffffffffffffffffffffffffff60701b166001600160701b039283169081174260e01b6001600160e01b03191617600881905560408051928352921c90921660208301527f1c411e9a96e071241c2f21f7726b17ae89e3cab4c78be50e062b03a9fffbbad191a1565b6001600160701b038260709493941c1693670de0b6b3a7640000850293858504670de0b6b3a76400001486151715610782576001600160701b0361180a91168095611071565b90670de0b6b3a7640000850294808604670de0b6b3a7640000149015171561078257611890611888846001600160701b03959461188061187888976118727f1c411e9a96e071241c2f21f7726b17ae89e3cab4c78be50e062b03a9fffbbad19d60409d611071565b9361105e565b600954611424565b60095561105e565b600a54611424565b600a55945050819250611752565b506001600160701b038260701c16151561174d565b506001600160701b0382161515611747565b505063ffffffff5f61173d565b90506020813d6020116118fc575b816118ed6020938361101b565b8101031261016057515f6116f7565b3d91506118e0565b90506020813d60201161192e575b8161191f6020938361101b565b8101031261016057515f6116bc565b3d9150611912565b5f929183809360405190602082019363a9059cbb60e01b855260018060a01b0316602483015260448201526044815261197060648261101b565b51925af13d15611a05573d9067ffffffffffffffff821161103d57604051916119a3601f8201601f19166020018461101b565b82523d5f602084013e5b159081156119cc575b506119bd57565b630df759e760e31b5f5260045ffd5b80518015159250826119e1575b50505f6119b6565b81925090602091810103126101605760200151801590811503610160575f806119d9565b6060906119ad565b7fddf252ad1be2c89b69c2b068fc378daa952ba7f163c4a11628f55a4df523b3ef60205f92611a3e85600254611424565b6002556001600160a01b03169384158414611a655780600254036002555b604051908152a3565b84845283825260408420818154019055611a5c56fea264697066735822122012b453ea0898a951245087a2a1855ace7f3f0f1d6146d962cbcda760a4371f6964736f6c63430008210033"
        }
      ],
      "isFixedGasLimit": false
    },
    {
      "hash": "0xb9c81e5bdb68b5445aaa060071b7e51546d516a09bec43bdb65dc11e0bcf99da",
      "transactionType": "CALL",
      "contractName": "Router",
      "contractAddress": "0x8f19ef21ede7d881003fca1e50285a113915cb5f",
      "function": "addLiquidity(address,address,uint256,uint256,uint256,uint256,address,uint256)",
      "arguments": [
        "0x11dA2D696ddA3E569608F7E802F7CfD5BBe89d4b",
        "0x9e3b254cAdC9eaeFa80fD85F26Eb7BbBE1F59560",
        "100000000000000000000",
        "200000000000000000000000",
        "0",
        "0",
        "0x97BF134cDf8A620aa0F10E140b89a2aDAAC2bBbF",
        "115792089237316195423570985008687907853269984665640564039457584007913129639935"
      ],
      "transaction": {
        "from": "0x97bf134cdf8a620aa0f10e140b89a2adaac2bbbf",
        "to": "0x8f19ef21ede7d881003fca1e50285a113915cb5f",
        "gas": "0x2dce27",
        "value": "0x0",
        "input": "0xe8e3370000000000000000000000000011da2d696dda3e569608f7e802f7cfd5bbe89d4b0000000000000000000000009e3b254cadc9eaefa80fd85f26eb7bbbe1f595600000000000000000000000000000000000000000000000056bc75e2d63100000000000000000000000000000000000000000000000002a5a058fc295ed0000000000000000000000000000000000000000000000000000000000000000000000000000000000000000000000000000000000000000000000000000000000000000000000000000000000000097bf134cdf8a620aa0f10e140b89a2adaac2bbbfffffffffffffffffffffffffffffffffffffffffffffffffffffffffffffffff",
        "nonce": "0x4f",
        "chainId": "0x66eee"
      },
      "additionalContracts": [
        {
          "transactionType": "CREATE2",
          "contractName": "Pair",
          "address": "0x94c6014175b464ab11d1ad64a3f13c01130a6811",
          "initCode": "0x60806040523461033d57604080519081016001600160401b038111828210176102455760409081526008825267262816aa27a5a2a760c11b602083015280519081016001600160401b0381118282101761024557604052600281526104c560f41b602082015281516001600160401b03811161024557600354600181811c91168015610333575b602082101461022757601f81116102c5575b50602092601f821160011461026457928192935f92610259575b50508160011b915f199060031b1c1916176003555b80516001600160401b03811161024557600454600181811c9116801561023b575b602082101461022757601f81116101b9575b50602091601f8211600114610159579181925f9261014e575b50508160011b915f199060031b1c1916176004555b6001600e55600580546001600160a01b03191633179055604051611ab090816103428239f35b015190505f80610113565b601f1982169260045f52805f20915f5b8581106101a157508360019510610189575b505050811b01600455610128565b01515f1960f88460031b161c191690555f808061017b565b91926020600181928685015181550194019201610169565b818111156100fa5760045f52601f820160051c7f8a35acfbc15ff81a39ae7d344fd709f28e8600b4aa8c65c6b64bfe7fe36bd19b6020841061021f575b81601f9101920160051c03905f5b8281106102125750506100fa565b5f82820155600101610204565b5f91506101f6565b634e487b7160e01b5f52602260045260245ffd5b90607f16906100e8565b634e487b7160e01b5f52604160045260245ffd5b015190505f806100b2565b601f1982169360035f52805f20915f5b8681106102ad5750836001959610610295575b505050811b016003556100c7565b01515f1960f88460031b161c191690555f8080610287565b91926020600181928685015181550194019201610274565b818111156100985760035f52601f820160051c7fc2575a0e9e593c00f959f8c92f12db2869c3395a3b0502d05e2516446f71f85b6020841061032b575b81601f9101920160051c03905f5b82811061031e575050610098565b5f82820155600101610310565b5f9150610302565b90607f1690610086565b5f80fdfe6080806040526004361015610012575f80fd5b5f3560e01c90816306fdde0314610ee9575080630902f1ac14610ea8578063095ea7b314610e265780630dfe168114610dfe5780631794bb3c14610d2a57806318160ddd14610d0d57806323b872dd14610c42578063313ce56714610c275780633d5c506814610c0a5780635909c0d514610bed5780635a3d549314610bd05780636a627842146108955780636d9a640a1461054257806370a082311461050b5780637464fc3d146104ee57806389afcb44146104ab57806395d89b41146103a7578063a9059cbb14610376578063ba9a7a561461035a578063bc25cf7714610211578063c45a0155146101e9578063d21220a7146101c1578063dd62ed3e146101645763fff6cae914610124575f80fd5b34610160575f366003190112610160576001600e5403610151575f600e5561014a611682565b6001600e55005b63e6b179a360e01b5f5260045ffd5b5f80fd5b346101605760403660031901126101605761017d610fcb565b602435906001600160a01b03821682036101605760018060a01b03165f52600160205260405f209060018060a01b03165f52602052602060405f2054604051908152f35b34610160575f366003190112610160576007546040516001600160a01b039091168152602090f35b34610160575f366003190112610160576005546040516001600160a01b039091168152602090f35b346101605760203660031901126101605761022a610fcb565b6001600e5403610151575f600e556006546007546040516370a0823160e01b81523060048201526001600160a01b0391821692909116602082602481845afa9182156103175784905f93610322575b50610293610299936001600160701b036008541690611051565b91611936565b6040516370a0823160e01b815230600482015291602083602481855afa928315610317575f936102e1575b5061029361014a936001600160701b0360085460701c1690611051565b92506020833d60201161030f575b816102fc6020938361101b565b81010312610160579151916102936102c4565b3d91506102ef565b6040513d5f823e3d90fd5b9250506020823d602011610352575b8161033e6020938361101b565b810103126101605790519083610293610279565b3d9150610331565b34610160575f3660031901126101605760206040516103e88152f35b346101605760403660031901126101605761039c610392610fcb565b602435903361137a565b602060405160018152f35b34610160575f366003190112610160576040515f6004548060011c906001811680156104a1575b60208310811461048d57828552908115610469575060011461040b575b610407836103fb8185038261101b565b60405191829182610fa1565b0390f35b91905060045f527f8a35acfbc15ff81a39ae7d344fd709f28e8600b4aa8c65c6b64bfe7fe36bd19b915f905b80821061044f575090915081016020016103fb6103eb565b919260018160209254838588010152019101909291610437565b60ff191660208086019190915291151560051b840190910191506103fb90506103eb565b634e487b7160e01b5f52602260045260245ffd5b91607f16916103ce565b34610160576020366003190112610160576104c4610fcb565b6001600e5403610151576104dd6040915f600e556110ae565b6001600e5582519182526020820152f35b34610160575f366003190112610160576020600c54604051908152f35b34610160576020366003190112610160576001600160a01b0361052c610fcb565b165f525f602052602060405f2054604051908152f35b34610160576060366003190112610160576044356001600160a01b03811690602435600435838303610160576001600e5403610151575f600e556008546006546007546001600160701b03607084901c8116969316916001600160a01b0391821691168415808061088d575b61087e5715908180610875575b61084557808914801561086c575b61085d578386118015610854575b61084557602494602092610835575b8780610824575b50506040516370a0823160e01b815230600482015294859182905afa928315610317575f936107ef575b50916020602493604051948580926370a0823160e01b82523060048301525afa928315610317575f936107bb575b506106508483611051565b8111156107b45761066a6106648584611051565b82611051565b955b6106768682611051565b8411156107ad5761069061068a8783611051565b85611051565b935b8715806107a5575b610796576127108302928084046127101490151715610782576106ca600b54936106c4858b61105e565b90611051565b6127108202918083046127101490151715610782576106f36106f9926106c46106ff968961105e565b9061105e565b9261105e565b906127108202918083046127101481151715610782576305f5e100029180830461271014901517156107825710610773576040519384526020840152604083015260608201527fd78ad95fa46c994b6551d0da85fc275fe613ce37657fb8d5e3d130840159d82260803392a361014a611682565b63702a418560e01b5f5260045ffd5b634e487b7160e01b5f52601160045260245ffd5b634a08a4a360e11b5f5260045ffd5b50841561069a565b5f93610692565b5f9561066c565b9092506020813d6020116107e7575b816107d76020938361101b565b8101031261016057519187610645565b3d91506107ca565b92506020833d60201161081c575b8161080a6020938361101b565b81010312610160579151916020610617565b3d91506107fd565b61082e9185611936565b89876105ed565b610840878284611936565b6105e6565b6337d93ae160e21b5f5260045ffd5b508787116105d7565b6387db131160e01b5f5260045ffd5b508289146105c9565b508615156105bb565b63c6941f8960e01b5f5260045ffd5b5086156105ae565b34610160576020366003190112610160576108ae610fcb565b6001600e5403610151575f600e556006546040516370a0823160e01b81523060048201529190602090839060249082906001600160a01b03165afa918215610317575f92610b9c575b506007546040516370a0823160e01b815230600482015290602090829060249082906001600160a01b03165afa908115610317575f91610b6a575b506001600160701b038311610b5b576001600160701b038111610b5b576001600160701b03926109846008549161097e86841696879460701c169384926109798483611431565b611051565b93611051565b9382158015610b53575b610b44576002549182610ac9575050506109b06109ab848361105e565b61155d565b926103e8841115610aba576103e7198401938411610782576109e284600495946109dd6103e86001611a0d565b611542565b60405191825260208201527f4c209b5fc8ad50758f13e2e1088ba56a560dff690a1c6fef26394f4c03821c4f60403392a2610a1b611682565b600554604051622fcfcb60e31b81529260209184919082906001600160a01b03165afa8015610317576020925f91610a8d575b506001600160a01b0316610a6a575b6001600e55604051908152f35b610a856008546001600160701b03808260701c16911661105e565b600c55610a5d565b610aad9150833d8511610ab3575b610aa5818361101b565b81019061108f565b83610a4e565b503d610a9b565b632aa60fef60e11b5f5260045ffd5b8195929495158015610b3c575b610b2d57610aee610af3610afa93610aee888861105e565b611071565b958461105e565b928380821091180280841893145f14610b1c57632aa60fef60e11b5f5260045ffd5b610b2883600495611542565b6109e2565b631b61bd4760e21b5f5260045ffd5b508015610ad6565b6308abd71960e41b5f5260045ffd5b50841561098e565b6301549ec560e21b5f5260045ffd5b90506020813d602011610b94575b81610b856020938361101b565b81010312610160575183610932565b3d9150610b78565b9091506020813d602011610bc8575b81610bb86020938361101b565b81010312610160575190826108f7565b3d9150610bab565b34610160575f366003190112610160576020600a54604051908152f35b34610160575f366003190112610160576020600954604051908152f35b34610160575f366003190112610160576020600b54604051908152f35b34610160575f36600319011261016057602060405160128152f35b3461016057610c5036610fe1565b6001600160a01b0383165f8181526001602090815260408083203384529091529020549093919291905f198110610c8d575b5061039c935061137a565b838110610cf2578415610cdf573315610ccc5761039c945f52600160205260405f2060018060a01b0333165f526020528360405f209103905584610c82565b634a1406b160e11b5f525f60045260245ffd5b63e602df0560e01b5f525f60045260245ffd5b8390637dc7a0d960e11b5f523360045260245260445260645ffd5b34610160575f366003190112610160576020600254604051908152f35b3461016057610d3836610fe1565b6005549192916001600160a01b0316330361084557600d5491600160ff8416151514610def576001600160a01b03169283158015610dde575b61085d576001600160a01b031683811461085d5781158015610dd4575b61085d576001936bffffffffffffffffffffffff60a01b60065416176006556bffffffffffffffffffffffff60a01b6007541617600755600b5560ff191617600d555f80f35b5060648211610d8e565b506001600160a01b03811615610d71565b63f669b6bd60e01b5f5260045ffd5b34610160575f366003190112610160576006546040516001600160a01b039091168152602090f35b3461016057604036600319011261016057610e3f610fcb565b602435903315610cdf576001600160a01b0316908115610ccc57335f52600160205260405f20825f526020528060405f20556040519081527f8c5be1e5ebec7d5bd14f71427d1e84f3dd0314c0f7b2291e5b200ac8c7c3b92560203392a3602060405160018152f35b34610160575f366003190112610160576060600854604051906001600160701b03811682526001600160701b038160701c16602083015260e01c6040820152f35b34610160575f366003190112610160575f6003548060011c90600181168015610f97575b60208310811461048d578285529081156104695750600114610f3957610407836103fb8185038261101b565b91905060035f527fc2575a0e9e593c00f959f8c92f12db2869c3395a3b0502d05e2516446f71f85b915f905b808210610f7d575090915081016020016103fb6103eb565b919260018160209254838588010152019101909291610f65565b91607f1691610f0d565b602060409281835280519182918282860152018484015e5f828201840152601f01601f1916010190565b600435906001600160a01b038216820361016057565b6060906003190112610160576004356001600160a01b038116810361016057906024356001600160a01b0381168103610160579060443590565b90601f8019910116810190811067ffffffffffffffff82111761103d57604052565b634e487b7160e01b5f52604160045260245ffd5b9190820391821161078257565b8181029291811591840414171561078257565b811561107b570490565b634e487b7160e01b5f52601260045260245ffd5b9081602091031261016057516001600160a01b03811681036101605790565b90305f525f60205260405f20549182156107965760018060a01b03600654169060018060a01b03600754166110f46008546001600160701b03808260701c169116611431565b6040516370a0823160e01b815230600482015292602084602481845afa938415610317575f94611346575b506040516370a0823160e01b815230600482015293602085602481865afa948515610317575f95611312575b50600254801561130357610aee61116982610aee611170958c61105e565b968961105e565b95841580156112fb575b1561118e57634a08a4a360e11b5f5260045ffd5b30156112e857305f525f60205260405f20548181106112cf57926111fd86868a955f8683976112029a3084528360205203604083205580600254036002556040519081527fddf252ad1be2c89b69c2b068fc378daa952ba7f163c4a11628f55a4df523b3ef60203092a3611936565b611936565b60408051838152602081018690526001600160a01b039092169133917fdccd412f0b1252819cb1fd330b93224ca42612892bb3f4f789976e6d8193649691a3611249611682565b600554604051622fcfcb60e31b815290602090829060049082906001600160a01b03165afa908115610317575f916112b0575b506001600160a01b031661128e579190565b6112a96008546001600160701b03808260701c16911661105e565b600c559190565b6112c9915060203d602011610ab357610aa5818361101b565b5f61127c565b63391434e360e21b5f523060045260245260445260645ffd5b634b637e8f60e11b5f525f60045260245ffd5b50861561117a565b63074700eb60e31b5f5260045ffd5b9094506020813d60201161133e575b8161132e6020938361101b565b810103126101605751935f61114b565b3d9150611321565b9093506020813d602011611372575b816113626020938361101b565b810103126101605751925f61111f565b3d9150611355565b6001600160a01b03169081156112e8576001600160a01b031691821561141157815f525f60205260405f20548181106113f857817fddf252ad1be2c89b69c2b068fc378daa952ba7f163c4a11628f55a4df523b3ef92602092855f525f84520360405f2055845f525f825260405f20818154019055604051908152a3565b8263391434e360e21b5f5260045260245260445260645ffd5b63ec442f0560e01b5f525f60045260245ffd5b9190820180921161078257565b600254600554604051622fcfcb60e31b81529391929190602090859060049082906001600160a01b03165afa938415610317575f94611521575b506001600160a01b03841661148d5750505050600c5461148757565b5f600c55565b600c54918261149e575b5050505050565b6109ab6114ba916001600160701b03806114c09516911661105e565b9161155d565b918282116114cf575b80611497565b6114dd906106f38484611051565b9060058102908082046005149015171561078257611504926114fe91611424565b90611071565b80611511575b80806114c9565b61151a91611542565b5f8061150a565b61153b91945060203d602011610ab357610aa5818361101b565b925f61146b565b906001600160a01b038216156114115761155b91611a0d565b565b600181111561167f57806001600160801b82101561166e575b600482600160401b611620941015611661575b640100000000811015611654575b62010000811015611647575b61010081101561163b575b601081101561162f575b1015611627575b60030260011c6115cf8184611071565b0160011c6115dd8184611071565b0160011c6115eb8184611071565b0160011c6115f98184611071565b0160011c6116078184611071565b0160011c6116158184611071565b0160011c8092611071565b8111900390565b60011b6115bf565b811c9160021b916115b8565b60081c91811b916115ae565b60101c9160081b916115a3565b60201c9160101b91611597565b60401c9160201b91611589565b5050608081901c600160401b611576565b90565b6006546040516370a0823160e01b815230600482015290602090829060249082906001600160a01b03165afa908115610317575f91611904575b506007546040516370a0823160e01b815230600482015290602090829060249082906001600160a01b03165afa908115610317575f916118d2575b506001600160701b038211610b5b576001600160701b038111610b5b5760085460e081901c4263ffffffff168181106118c5570363ffffffff81116107825763ffffffff905b16801515806118b3575b8061189e575b6117c4575b5050607090811b6dffffffffffffffffffffffffffff60701b166001600160701b039283169081174260e01b6001600160e01b03191617600881905560408051928352921c90921660208301527f1c411e9a96e071241c2f21f7726b17ae89e3cab4c78be50e062b03a9fffbbad191a1565b6001600160701b038260709493941c1693670de0b6b3a7640000850293858504670de0b6b3a76400001486151715610782576001600160701b0361180a91168095611071565b90670de0b6b3a7640000850294808604670de0b6b3a7640000149015171561078257611890611888846001600160701b03959461188061187888976118727f1c411e9a96e071241c2f21f7726b17ae89e3cab4c78be50e062b03a9fffbbad19d60409d611071565b9361105e565b600954611424565b60095561105e565b600a54611424565b600a55945050819250611752565b506001600160701b038260701c16151561174d565b506001600160701b0382161515611747565b505063ffffffff5f61173d565b90506020813d6020116118fc575b816118ed6020938361101b565b8101031261016057515f6116f7565b3d91506118e0565b90506020813d60201161192e575b8161191f6020938361101b565b8101031261016057515f6116bc565b3d9150611912565b5f929183809360405190602082019363a9059cbb60e01b855260018060a01b0316602483015260448201526044815261197060648261101b565b51925af13d15611a05573d9067ffffffffffffffff821161103d57604051916119a3601f8201601f19166020018461101b565b82523d5f602084013e5b159081156119cc575b506119bd57565b630df759e760e31b5f5260045ffd5b80518015159250826119e1575b50505f6119b6565b81925090602091810103126101605760200151801590811503610160575f806119d9565b6060906119ad565b7fddf252ad1be2c89b69c2b068fc378daa952ba7f163c4a11628f55a4df523b3ef60205f92611a3e85600254611424565b6002556001600160a01b03169384158414611a655780600254036002555b604051908152a3565b84845283825260408420818154019055611a5c56fea264697066735822122012b453ea0898a951245087a2a1855ace7f3f0f1d6146d962cbcda760a4371f6964736f6c63430008210033"
        }
      ],
      "isFixedGasLimit": false
    },
    {
      "hash": "0x28e1c6f3b88c4eac51081eebe9088811128b2cd554af5a13c6425e3e3706b309",
      "transactionType": "CALL",
      "contractName": "TWAPOracle",
      "contractAddress": "0xa18f7bd8be9611fd8499c15e0bc6aa9c4c0ef268",
      "function": "update(address)",
      "arguments": [
        "0x817caF2f184D7FAf6F68963dBB02810633966546"
      ],
      "transaction": {
        "from": "0x97bf134cdf8a620aa0f10e140b89a2adaac2bbbf",
        "to": "0xa18f7bd8be9611fd8499c15e0bc6aa9c4c0ef268",
        "gas": "0x14de0",
        "value": "0x0",
        "input": "0x1c1b8772000000000000000000000000817caf2f184d7faf6f68963dbb02810633966546",
        "nonce": "0x50",
        "chainId": "0x66eee"
      },
      "additionalContracts": [],
      "isFixedGasLimit": false
    },
    {
      "hash": "0x482dc853b08683b5bdb405d8aa67588bbde3f266e44055b98260c4ba0eb4d429",
      "transactionType": "CALL",
      "contractName": "TWAPOracle",
      "contractAddress": "0xa18f7bd8be9611fd8499c15e0bc6aa9c4c0ef268",
      "function": "update(address)",
      "arguments": [
        "0xFAD8e1b15B224aCD16295B3F909F5Cc0eD39E2D0"
      ],
      "transaction": {
        "from": "0x97bf134cdf8a620aa0f10e140b89a2adaac2bbbf",
        "to": "0xa18f7bd8be9611fd8499c15e0bc6aa9c4c0ef268",
        "gas": "0x14de0",
        "value": "0x0",
        "input": "0x1c1b8772000000000000000000000000fad8e1b15b224acd16295b3f909f5cc0ed39e2d0",
        "nonce": "0x51",
        "chainId": "0x66eee"
      },
      "additionalContracts": [],
      "isFixedGasLimit": false
    },
    {
      "hash": "0x9f49c20dd11d4d6567c02ff43646295c9ae3c9d48a5eca6d7bc0d6fb30628275",
      "transactionType": "CALL",
      "contractName": "TWAPOracle",
      "contractAddress": "0xa18f7bd8be9611fd8499c15e0bc6aa9c4c0ef268",
      "function": "update(address)",
      "arguments": [
        "0xed31F9e699f23420B3426f1e42bA9eaD4E7CDE57"
      ],
      "transaction": {
        "from": "0x97bf134cdf8a620aa0f10e140b89a2adaac2bbbf",
        "to": "0xa18f7bd8be9611fd8499c15e0bc6aa9c4c0ef268",
        "gas": "0x14de0",
        "value": "0x0",
        "input": "0x1c1b8772000000000000000000000000ed31f9e699f23420b3426f1e42ba9ead4e7cde57",
        "nonce": "0x52",
        "chainId": "0x66eee"
      },
      "additionalContracts": [],
      "isFixedGasLimit": false
    },
    {
      "hash": "0x5600dfb6e74070bf380afcfa261e4d7ec2ba727d7afef6030798b12d0d734dd7",
      "transactionType": "CALL",
      "contractName": "TWAPOracle",
      "contractAddress": "0xa18f7bd8be9611fd8499c15e0bc6aa9c4c0ef268",
      "function": "update(address)",
      "arguments": [
        "0x72576851A0a7955b3361Fe1e59EaaF0EeE931216"
      ],
      "transaction": {
        "from": "0x97bf134cdf8a620aa0f10e140b89a2adaac2bbbf",
        "to": "0xa18f7bd8be9611fd8499c15e0bc6aa9c4c0ef268",
        "gas": "0x14de0",
        "value": "0x0",
        "input": "0x1c1b877200000000000000000000000072576851a0a7955b3361fe1e59eaaf0eee931216",
        "nonce": "0x53",
        "chainId": "0x66eee"
      },
      "additionalContracts": [],
      "isFixedGasLimit": false
    },
    {
      "hash": "0x63513427f8f137fca7d5999f39579e7d72b312e24acb0b862e6b3d23d6cff39b",
      "transactionType": "CALL",
      "contractName": "TWAPOracle",
      "contractAddress": "0xa18f7bd8be9611fd8499c15e0bc6aa9c4c0ef268",
      "function": "update(address)",
      "arguments": [
        "0x94c6014175b464Ab11D1Ad64a3F13C01130A6811"
      ],
      "transaction": {
        "from": "0x97bf134cdf8a620aa0f10e140b89a2adaac2bbbf",
        "to": "0xa18f7bd8be9611fd8499c15e0bc6aa9c4c0ef268",
        "gas": "0x14de0",
        "value": "0x0",
        "input": "0x1c1b877200000000000000000000000094c6014175b464ab11d1ad64a3f13c01130a6811",
        "nonce": "0x54",
        "chainId": "0x66eee"
      },
      "additionalContracts": [],
      "isFixedGasLimit": false
    }
  ],
  "receipts": [
    {
      "status": "0x1",
      "cumulativeGasUsed": "0x109f5",
      "logs": [
        {
          "address": "0x98697d7bc9ea50ce6682ed52cbc95806e7fdee0f",
          "topics": [
            "0xddf252ad1be2c89b69c2b068fc378daa952ba7f163c4a11628f55a4df523b3ef",
            "0x0000000000000000000000000000000000000000000000000000000000000000",
            "0x00000000000000000000000097bf134cdf8a620aa0f10e140b89a2adaac2bbbf"
          ],
          "data": "0x000000000000000000000000000000000000000000000000000001d1a94a2000",
          "blockHash": "0x92a509697691da019dbb39bf6cb72d2e40b5e9e2919ef36170da3b2f0005cc0c",
          "blockNumber": "0xf24486f",
          "blockTimestamp": "0x69c647a8",
          "transactionHash": "0xc21349ccc16836f66857d3b697726e02a288ec7f34391630c8e1388e9f71fdff",
          "transactionIndex": "0x1",
          "logIndex": "0x0",
          "removed": false
        }
      ],
      "logsBloom": "0x00000000000000000000000000000000000000000000000000000000000000000000008000000000000002000000000000000000000000000000000000000000000000000000000000000008000000000004000000000000000000000020000000000000020000000000000000000800000000000000000000000010000000000000000000000000000000000000000000000000000000000000000000008000000000000000000000000000000000000000000000000000000000000000000000000002000010000000000000000000000000000000000000000000000020000000000000000000000000000000000000000000000000000000000000000000",
      "type": "0x2",
      "transactionHash": "0xc21349ccc16836f66857d3b697726e02a288ec7f34391630c8e1388e9f71fdff",
      "transactionIndex": "0x1",
      "blockHash": "0x92a509697691da019dbb39bf6cb72d2e40b5e9e2919ef36170da3b2f0005cc0c",
      "blockNumber": "0xf24486f",
      "gasUsed": "0x109f5",
      "effectiveGasPrice": "0x1312d00",
      "from": "0x97bf134cdf8a620aa0f10e140b89a2adaac2bbbf",
      "to": "0x98697d7bc9ea50ce6682ed52cbc95806e7fdee0f",
      "contractAddress": null,
      "gasUsedForL1": "0x0",
      "l1BlockNumber": "0xa0b32f",
      "timeboosted": false
    },
    {
      "status": "0x1",
      "cumulativeGasUsed": "0x10a0d",
      "logs": [
        {
          "address": "0x11da2d696dda3e569608f7e802f7cfd5bbe89d4b",
          "topics": [
            "0xddf252ad1be2c89b69c2b068fc378daa952ba7f163c4a11628f55a4df523b3ef",
            "0x0000000000000000000000000000000000000000000000000000000000000000",
            "0x00000000000000000000000097bf134cdf8a620aa0f10e140b89a2adaac2bbbf"
          ],
          "data": "0x00000000000000000000000000000000000000000000003635c9adc5dea00000",
          "blockHash": "0xed2afa1cb86902393eaaaa2bb403d64a288cf8e23bda9b6d9d597c0b34c405c6",
          "blockNumber": "0xf244877",
          "blockTimestamp": "0x69c647aa",
          "transactionHash": "0xbe3428086d3e96a744b446c81d1db96d6534a7d4d16be81f0314abb86bf7f758",
          "transactionIndex": "0x1",
          "logIndex": "0x0",
          "removed": false
        }
      ],
      "logsBloom": "0x00200000000000000000000000000000000000000000000001000000000000000000000000000000000000000000000000000000000000000000000000000000000000000000000020000008000000000004000000000000000000000000000000000000020000000000000000000800000000000000000000000010000000000000000000000000000000000000000000000000000000000000000000008000000000000000000000000000000000000000000000000000000000000000000000000002000010000000000000000000000000000000000000000000000020000000000000000000000000000000000000000000000000000000000000000000",
      "type": "0x2",
      "transactionHash": "0xbe3428086d3e96a744b446c81d1db96d6534a7d4d16be81f0314abb86bf7f758",
      "transactionIndex": "0x1",
      "blockHash": "0xed2afa1cb86902393eaaaa2bb403d64a288cf8e23bda9b6d9d597c0b34c405c6",
      "blockNumber": "0xf244877",
      "gasUsed": "0x10a0d",
      "effectiveGasPrice": "0x1315be0",
      "from": "0x97bf134cdf8a620aa0f10e140b89a2adaac2bbbf",
      "to": "0x11da2d696dda3e569608f7e802f7cfd5bbe89d4b",
      "contractAddress": null,
      "gasUsedForL1": "0x0",
      "l1BlockNumber": "0xa0b32f",
      "timeboosted": false
    },
    {
      "status": "0x1",
      "cumulativeGasUsed": "0x109e9",
      "logs": [
        {
          "address": "0xfed51c995304775d37c54a7197a9197150147e3b",
          "topics": [
            "0xddf252ad1be2c89b69c2b068fc378daa952ba7f163c4a11628f55a4df523b3ef",
            "0x0000000000000000000000000000000000000000000000000000000000000000",
            "0x00000000000000000000000097bf134cdf8a620aa0f10e140b89a2adaac2bbbf"
          ],
          "data": "0x000000000000000000000000000000000000000000000000000000012a05f200",
          "blockHash": "0x2f2237c94da8ed893b61fabb6c15c881290295abdfa7d4d1f51181e2282c997f",
          "blockNumber": "0xf24487f",
          "blockTimestamp": "0x69c647ac",
          "transactionHash": "0xaf0cbd763359ddd51e525011066a02254ed6b3f24348d4c79c44e23240bb276f",
          "transactionIndex": "0x1",
          "logIndex": "0x0",
          "removed": false
        }
      ],
      "logsBloom": "0x00000000000000000000000000000000000000000000000000000000000000000000000000800000000000000000000000000000000000000000000000000000000000000000000000000008000000000004000000000000000000000000000000000000020000000000000000000800000000000000000000000010000000000000000000000000000000000000040000000000000000000000000000008000000000000000000000000000000000000000000000000000000000000000000000000102000010000000000000000000000000000000000000000000000020000000000000000000000000000000000000000000000000000000000000000000",
      "type": "0x2",
      "transactionHash": "0xaf0cbd763359ddd51e525011066a02254ed6b3f24348d4c79c44e23240bb276f",
      "transactionIndex": "0x1",
      "blockHash": "0x2f2237c94da8ed893b61fabb6c15c881290295abdfa7d4d1f51181e2282c997f",
      "blockNumber": "0xf24487f",
      "gasUsed": "0x109e9",
      "effectiveGasPrice": "0x1314470",
      "from": "0x97bf134cdf8a620aa0f10e140b89a2adaac2bbbf",
      "to": "0xfed51c995304775d37c54a7197a9197150147e3b",
      "contractAddress": null,
      "gasUsedForL1": "0x0",
      "l1BlockNumber": "0xa0b32f",
      "timeboosted": false
    },
    {
      "status": "0x1",
      "cumulativeGasUsed": "0x7a9a6",
      "logs": [
        {
          "address": "0xc4999f55d2887d003d17dc42625354fa364c29d1",
          "topics": [
            "0xddf252ad1be2c89b69c2b068fc378daa952ba7f163c4a11628f55a4df523b3ef",
            "0x0000000000000000000000000000000000000000000000000000000000000000",
            "0x00000000000000000000000097bf134cdf8a620aa0f10e140b89a2adaac2bbbf"
          ],
          "data": "0x00000000000000000000000000000000000000000000d3c21bcecceda1000000",
          "blockHash": "0xcf9e48e07d4f8ec395a4f0973b30d8733b3d5000d0526ed73228bea04e60adde",
          "blockNumber": "0xf244887",
          "blockTimestamp": "0x69c647ae",
          "transactionHash": "0x3d068a17c8390f9a4fafb6919eedc9e64164d547dc70e5b3fc658afef2b9501c",
          "transactionIndex": "0x2",
          "logIndex": "0x5",
          "removed": false
        }
      ],
      "logsBloom": "0x00000000000000000000000000000001000000000000000000000000000000000000000000000000000000000000000000000000000000000000000000000000000000000000000000000008000000000004000000000000000000000000000000000000020000000400000000000800000000000000000000000010000000000000000000000000000000000000000000000000000000020000000000008000000000000000000000000000000000000000000000000000000000000000000000000002000010000000000000000000000000000000000000000000000020000000000000000000000000000000000000000000000000000000000000000000",
      "type": "0x2",
      "transactionHash": "0x3d068a17c8390f9a4fafb6919eedc9e64164d547dc70e5b3fc658afef2b9501c",
      "transactionIndex": "0x2",
      "blockHash": "0xcf9e48e07d4f8ec395a4f0973b30d8733b3d5000d0526ed73228bea04e60adde",
      "blockNumber": "0xf244887",
      "gasUsed": "0x10a0d",
      "effectiveGasPrice": "0x1331930",
      "from": "0x97bf134cdf8a620aa0f10e140b89a2adaac2bbbf",
      "to": "0xc4999f55d2887d003d17dc42625354fa364c29d1",
      "contractAddress": null,
      "gasUsedForL1": "0x0",
      "l1BlockNumber": "0xa0b32f",
      "timeboosted": false
    },
    {
      "status": "0x1",
      "cumulativeGasUsed": "0x591e1",
      "logs": [
        {
          "address": "0x9e3b254cadc9eaefa80fd85f26eb7bbbe1f59560",
          "topics": [
            "0xddf252ad1be2c89b69c2b068fc378daa952ba7f163c4a11628f55a4df523b3ef",
            "0x0000000000000000000000000000000000000000000000000000000000000000",
            "0x00000000000000000000000097bf134cdf8a620aa0f10e140b89a2adaac2bbbf"
          ],
          "data": "0x00000000000000000000000000000000000000000000d3c21bcecceda1000000",
          "blockHash": "0xe177c68a202a7afa635081ef4b84462a36fddee287dafbf1261405861f8bd008",
          "blockNumber": "0xf244897",
          "blockTimestamp": "0x69c647b2",
          "transactionHash": "0xe76352d509ffc866030ebce98f64305668d2e9541035e6f439a3bead80faa097",
          "transactionIndex": "0x3",
          "logIndex": "0x6",
          "removed": false
        }
      ],
      "logsBloom": "0x00000000000000000000000000000000000000000000000000000000000000000000000000008000000000000000000000000000000000000000000000000000000000000000000000000008000000000004000000000000000000000000000000000000020000100000000000000800000000000000000000000010000000000000000000000000000000000000000000000000000000000000000000008000000000000000000000000000000000000000000000000000000000000000000000000002000010000000000000000000000000000000000000000000004020000000000000000000000000000000000000000000000000000000000000000000",
      "type": "0x2",
      "transactionHash": "0xe76352d509ffc866030ebce98f64305668d2e9541035e6f439a3bead80faa097",
      "transactionIndex": "0x3",
      "blockHash": "0xe177c68a202a7afa635081ef4b84462a36fddee287dafbf1261405861f8bd008",
      "blockNumber": "0xf244897",
      "gasUsed": "0x10a0d",
      "effectiveGasPrice": "0x13163b0",
      "from": "0x97bf134cdf8a620aa0f10e140b89a2adaac2bbbf",
      "to": "0x9e3b254cadc9eaefa80fd85f26eb7bbbe1f59560",
      "contractAddress": null,
      "gasUsedForL1": "0x0",
      "l1BlockNumber": "0xa0b32f",
      "timeboosted": false
    },
    {
      "status": "0x1",
      "cumulativeGasUsed": "0xb4b1",
      "logs": [
        {
          "address": "0x98697d7bc9ea50ce6682ed52cbc95806e7fdee0f",
          "topics": [
            "0x8c5be1e5ebec7d5bd14f71427d1e84f3dd0314c0f7b2291e5b200ac8c7c3b925",
            "0x00000000000000000000000097bf134cdf8a620aa0f10e140b89a2adaac2bbbf",
            "0x0000000000000000000000008f19ef21ede7d881003fca1e50285a113915cb5f"
          ],
          "data": "0xffffffffffffffffffffffffffffffffffffffffffffffffffffffffffffffff",
          "blockHash": "0x65960b516d9a89369c5e8e0543f067e0d7c847f784c2009b8a4b5aa803e7743b",
          "blockNumber": "0xf24489e",
          "blockTimestamp": "0x69c647b4",
          "transactionHash": "0x3783d0e514b51e4b23a020d6e1bf93df2b75f9e13c23c1bc205029ebe347a8f9",
          "transactionIndex": "0x1",
          "logIndex": "0x0",
          "removed": false
        }
      ],
      "logsBloom": "0x00000000000000000000000000000000000000000100000000000000000000000000008000000000000002000000000000000000000000000000000000200000000000000000000000000000000000000004000000000000000000000020000000000000000000000000000000000000000000000000000000000000000000000000000010000000000000000000000000000000000000000000000004008000020000000000000000000000000000000000000000000000000000000000000000000000000010000000000000000000000000000000000000000000000000000010000000000000000000000000000000000000000000000000000000000000",
      "type": "0x2",
      "transactionHash": "0x3783d0e514b51e4b23a020d6e1bf93df2b75f9e13c23c1bc205029ebe347a8f9",
      "transactionIndex": "0x1",
      "blockHash": "0x65960b516d9a89369c5e8e0543f067e0d7c847f784c2009b8a4b5aa803e7743b",
      "blockNumber": "0xf24489e",
      "gasUsed": "0xb4b1",
      "effectiveGasPrice": "0x1315be0",
      "from": "0x97bf134cdf8a620aa0f10e140b89a2adaac2bbbf",
      "to": "0x98697d7bc9ea50ce6682ed52cbc95806e7fdee0f",
      "contractAddress": null,
      "gasUsedForL1": "0x0",
      "l1BlockNumber": "0xa0b32f",
      "timeboosted": false
    },
    {
      "status": "0x1",
      "cumulativeGasUsed": "0x4c877",
      "logs": [
        {
          "address": "0x11da2d696dda3e569608f7e802f7cfd5bbe89d4b",
          "topics": [
            "0x8c5be1e5ebec7d5bd14f71427d1e84f3dd0314c0f7b2291e5b200ac8c7c3b925",
            "0x00000000000000000000000097bf134cdf8a620aa0f10e140b89a2adaac2bbbf",
            "0x0000000000000000000000008f19ef21ede7d881003fca1e50285a113915cb5f"
          ],
          "data": "0xffffffffffffffffffffffffffffffffffffffffffffffffffffffffffffffff",
          "blockHash": "0xaa66caef5a24af911a962c86421bb6c28781a3df25887f5293c32f1115a1ba82",
          "blockNumber": "0xf2448a6",
          "blockTimestamp": "0x69c647b6",
          "transactionHash": "0x46ea6cb6a148877fa78da26a835861f25205533f23b5a38c000279890c15a145",
          "transactionIndex": "0x3",
          "logIndex": "0xd",
          "removed": false
        }
      ],
      "logsBloom": "0x00200000000000000000000000000000000000000100000001000000000000000000000000000000000000000000000000000000000000000000000000200000000000000000000020000000000000000004000000000000000000000000000000000000000000000000000000000000000000000000000000000000000000000000000010000000000000000000000000000000000000000000000004008000020000000000000000000000000000000000000000000000000000000000000000000000000010000000000000000000000000000000000000000000000000000010000000000000000000000000000000000000000000000000000000000000",
      "type": "0x2",
      "transactionHash": "0x46ea6cb6a148877fa78da26a835861f25205533f23b5a38c000279890c15a145",
      "transactionIndex": "0x3",
      "blockHash": "0xaa66caef5a24af911a962c86421bb6c28781a3df25887f5293c32f1115a1ba82",
      "blockNumber": "0xf2448a6",
      "gasUsed": "0xb4b1",
      "effectiveGasPrice": "0x1312d00",
      "from": "0x97bf134cdf8a620aa0f10e140b89a2adaac2bbbf",
      "to": "0x11da2d696dda3e569608f7e802f7cfd5bbe89d4b",
      "contractAddress": null,
      "gasUsedForL1": "0x0",
      "l1BlockNumber": "0xa0b330",
      "timeboosted": false
    },
    {
      "status": "0x1",
      "cumulativeGasUsed": "0x30f1b",
      "logs": [
        {
          "address": "0xfed51c995304775d37c54a7197a9197150147e3b",
          "topics": [
            "0x8c5be1e5ebec7d5bd14f71427d1e84f3dd0314c0f7b2291e5b200ac8c7c3b925",
            "0x00000000000000000000000097bf134cdf8a620aa0f10e140b89a2adaac2bbbf",
            "0x0000000000000000000000008f19ef21ede7d881003fca1e50285a113915cb5f"
          ],
          "data": "0xffffffffffffffffffffffffffffffffffffffffffffffffffffffffffffffff",
          "blockHash": "0x74127364afdc0e2b340c1dfb2533d6dd49072340b9982c8243a6956dc6ad9395",
          "blockNumber": "0xf2448ad",
          "blockTimestamp": "0x69c647b8",
          "transactionHash": "0x3e06bd4eb9821108ad1a992def3684b1ac3d1757a9a1c02a6e25644676491dae",
          "transactionIndex": "0x3",
          "logIndex": "0x4",
          "removed": false
        }
      ],
      "logsBloom": "0x00000000000000000000000000000000000000000100000000000000000000000000000000800000000000000000000000000000000000000000000000200000000000000000000000000000000000000004000000000000000000000000000000000000000000000000000000000000000000000000000000000000000000000000000010000000000000000000040000000000000000000000000004008000020000000000000000000000000000000000000000000000000000000000000000000100000010000000000000000000000000000000000000000000000000000010000000000000000000000000000000000000000000000000000000000000",
      "type": "0x2",
      "transactionHash": "0x3e06bd4eb9821108ad1a992def3684b1ac3d1757a9a1c02a6e25644676491dae",
      "transactionIndex": "0x3",
      "blockHash": "0x74127364afdc0e2b340c1dfb2533d6dd49072340b9982c8243a6956dc6ad9395",
      "blockNumber": "0xf2448ad",
      "gasUsed": "0xb4b1",
      "effectiveGasPrice": "0x1312d00",
      "from": "0x97bf134cdf8a620aa0f10e140b89a2adaac2bbbf",
      "to": "0xfed51c995304775d37c54a7197a9197150147e3b",
      "contractAddress": null,
      "gasUsedForL1": "0x0",
      "l1BlockNumber": "0xa0b330",
      "timeboosted": false
    },
    {
      "status": "0x1",
      "cumulativeGasUsed": "0x996f6",
      "logs": [
        {
          "address": "0xc4999f55d2887d003d17dc42625354fa364c29d1",
          "topics": [
            "0x8c5be1e5ebec7d5bd14f71427d1e84f3dd0314c0f7b2291e5b200ac8c7c3b925",
            "0x00000000000000000000000097bf134cdf8a620aa0f10e140b89a2adaac2bbbf",
            "0x0000000000000000000000008f19ef21ede7d881003fca1e50285a113915cb5f"
          ],
          "data": "0xffffffffffffffffffffffffffffffffffffffffffffffffffffffffffffffff",
          "blockHash": "0x7dead1e4aa5613dce76f9325284b3f10375841510f78b43f6598ee81a513c9a1",
          "blockNumber": "0xf2448bb",
          "blockTimestamp": "0x69c647bc",
          "transactionHash": "0x9938701e58bd354f10844547cccb78121635d11efc8c20ceaa33769c3aa33669",
          "transactionIndex": "0x3",
          "logIndex": "0x8",
          "removed": false
        }
      ],
      "logsBloom": "0x00000000000000000000000000000001000000000100000000000000000000000000000000000000000000000000000000000000000000000000000000200000000000000000000000000000000000000004000000000000000000000000000000000000000000000400000000000000000000000000000000000000000000000000000010000000000000000000000000000000000000020000000004008000020000000000000000000000000000000000000000000000000000000000000000000000000010000000000000000000000000000000000000000000000000000010000000000000000000000000000000000000000000000000000000000000",
      "type": "0x2",
      "transactionHash": "0x9938701e58bd354f10844547cccb78121635d11efc8c20ceaa33769c3aa33669",
      "transactionIndex": "0x3",
      "blockHash": "0x7dead1e4aa5613dce76f9325284b3f10375841510f78b43f6598ee81a513c9a1",
      "blockNumber": "0xf2448bb",
      "gasUsed": "0xb4b1",
      "effectiveGasPrice": "0x1312d00",
      "from": "0x97bf134cdf8a620aa0f10e140b89a2adaac2bbbf",
      "to": "0xc4999f55d2887d003d17dc42625354fa364c29d1",
      "contractAddress": null,
      "gasUsedForL1": "0x0",
      "l1BlockNumber": "0xa0b330",
      "timeboosted": false
    },
    {
      "status": "0x1",
      "cumulativeGasUsed": "0x54be3",
      "logs": [
        {
          "address": "0x9e3b254cadc9eaefa80fd85f26eb7bbbe1f59560",
          "topics": [
            "0x8c5be1e5ebec7d5bd14f71427d1e84f3dd0314c0f7b2291e5b200ac8c7c3b925",
            "0x00000000000000000000000097bf134cdf8a620aa0f10e140b89a2adaac2bbbf",
            "0x0000000000000000000000008f19ef21ede7d881003fca1e50285a113915cb5f"
          ],
          "data": "0xffffffffffffffffffffffffffffffffffffffffffffffffffffffffffffffff",
          "blockHash": "0xe73ee6d22fde639c4d1bb69b142af529843e664d893bef64493eb0ed6522b52a",
          "blockNumber": "0xf2448c8",
          "blockTimestamp": "0x69c647bf",
          "transactionHash": "0xef63354e24d658c13b5027f58520a52b5ab8277bc5121e88a510e946b7ecd850",
          "transactionIndex": "0x4",
          "logIndex": "0x7",
          "removed": false
        }
      ],
      "logsBloom": "0x00000000000000000000000000000000000000000100000000000000000000000000000000008000000000000000000000000000000000000000000000200000000000000000000000000000000000000004000000000000000000000000000000000000000000100000000000000000000000000000000000000000000000000000000010000000000000000000000000000000000000000000000004008000020000000000000000000000000000000000000000000000000000000000000000000000000010000000000000000000000000000000000000000000004000000010000000000000000000000000000000000000000000000000000000000000",
      "type": "0x2",
      "transactionHash": "0xef63354e24d658c13b5027f58520a52b5ab8277bc5121e88a510e946b7ecd850",
      "transactionIndex": "0x4",
      "blockHash": "0xe73ee6d22fde639c4d1bb69b142af529843e664d893bef64493eb0ed6522b52a",
      "blockNumber": "0xf2448c8",
      "gasUsed": "0xb4b1",
      "effectiveGasPrice": "0x13134d0",
      "from": "0x97bf134cdf8a620aa0f10e140b89a2adaac2bbbf",
      "to": "0x9e3b254cadc9eaefa80fd85f26eb7bbbe1f59560",
      "contractAddress": null,
      "gasUsedForL1": "0x0",
      "l1BlockNumber": "0xa0b330",
      "timeboosted": false
    },
    {
      "status": "0x1",
      "cumulativeGasUsed": "0x1f9483",
      "logs": [
        {
          "address": "0x23942d68c74f80ce259a4da31a59856ffde5425e",
          "topics": [
            "0xe35cde51b2f5340cab37b1f8a7e7a0f4bf29dfa06dd3d18ecbdb8c5bc10f3b53",
            "0x00000000000000000000000011da2d696dda3e569608f7e802f7cfd5bbe89d4b",
            "0x00000000000000000000000098697d7bc9ea50ce6682ed52cbc95806e7fdee0f"
          ],
          "data": "0x000000000000000000000000817caf2f184d7faf6f68963dbb028106339665460000000000000000000000000000000000000000000000000000000000000001",
          "blockHash": "0xd4889a9f30f5f64476b7a9a24f2a3540a8fa2775cb921058429f350ff1cc6ade",
          "blockNumber": "0xf2448d7",
          "blockTimestamp": "0x69c647c3",
          "transactionHash": "0xcc7021f59933ad7c5288f9d5532d82b0d532d1ff31ac8932aee458c05c3742b4",
          "transactionIndex": "0x1",
          "logIndex": "0x0",
          "removed": false
        },
        {
          "address": "0x11da2d696dda3e569608f7e802f7cfd5bbe89d4b",
          "topics": [
            "0xddf252ad1be2c89b69c2b068fc378daa952ba7f163c4a11628f55a4df523b3ef",
            "0x00000000000000000000000097bf134cdf8a620aa0f10e140b89a2adaac2bbbf",
            "0x000000000000000000000000817caf2f184d7faf6f68963dbb02810633966546"
          ],
          "data": "0x0000000000000000000000000000000000000000000000056bc75e2d63100000",
          "blockHash": "0xd4889a9f30f5f64476b7a9a24f2a3540a8fa2775cb921058429f350ff1cc6ade",
          "blockNumber": "0xf2448d7",
          "blockTimestamp": "0x69c647c3",
          "transactionHash": "0xcc7021f59933ad7c5288f9d5532d82b0d532d1ff31ac8932aee458c05c3742b4",
          "transactionIndex": "0x1",
          "logIndex": "0x1",
          "removed": false
        },
        {
          "address": "0x98697d7bc9ea50ce6682ed52cbc95806e7fdee0f",
          "topics": [
            "0xddf252ad1be2c89b69c2b068fc378daa952ba7f163c4a11628f55a4df523b3ef",
            "0x00000000000000000000000097bf134cdf8a620aa0f10e140b89a2adaac2bbbf",
            "0x000000000000000000000000817caf2f184d7faf6f68963dbb02810633966546"
          ],
          "data": "0x0000000000000000000000000000000000000000000000000000002e90edd000",
          "blockHash": "0xd4889a9f30f5f64476b7a9a24f2a3540a8fa2775cb921058429f350ff1cc6ade",
          "blockNumber": "0xf2448d7",
          "blockTimestamp": "0x69c647c3",
          "transactionHash": "0xcc7021f59933ad7c5288f9d5532d82b0d532d1ff31ac8932aee458c05c3742b4",
          "transactionIndex": "0x1",
          "logIndex": "0x2",
          "removed": false
        },
        {
          "address": "0x817caf2f184d7faf6f68963dbb02810633966546",
          "topics": [
            "0xddf252ad1be2c89b69c2b068fc378daa952ba7f163c4a11628f55a4df523b3ef",
            "0x0000000000000000000000000000000000000000000000000000000000000000",
            "0x0000000000000000000000000000000000000000000000000000000000000001"
          ],
          "data": "0x00000000000000000000000000000000000000000000000000000000000003e8",
          "blockHash": "0xd4889a9f30f5f64476b7a9a24f2a3540a8fa2775cb921058429f350ff1cc6ade",
          "blockNumber": "0xf2448d7",
          "blockTimestamp": "0x69c647c3",
          "transactionHash": "0xcc7021f59933ad7c5288f9d5532d82b0d532d1ff31ac8932aee458c05c3742b4",
          "transactionIndex": "0x1",
          "logIndex": "0x3",
          "removed": false
        },
        {
          "address": "0x817caf2f184d7faf6f68963dbb02810633966546",
          "topics": [
            "0xddf252ad1be2c89b69c2b068fc378daa952ba7f163c4a11628f55a4df523b3ef",
            "0x0000000000000000000000000000000000000000000000000000000000000000",
            "0x00000000000000000000000097bf134cdf8a620aa0f10e140b89a2adaac2bbbf"
          ],
          "data": "0x000000000000000000000000000000000000000000000000000fe3624afc2533",
          "blockHash": "0xd4889a9f30f5f64476b7a9a24f2a3540a8fa2775cb921058429f350ff1cc6ade",
          "blockNumber": "0xf2448d7",
          "blockTimestamp": "0x69c647c3",
          "transactionHash": "0xcc7021f59933ad7c5288f9d5532d82b0d532d1ff31ac8932aee458c05c3742b4",
          "transactionIndex": "0x1",
          "logIndex": "0x4",
          "removed": false
        },
        {
          "address": "0x817caf2f184d7faf6f68963dbb02810633966546",
          "topics": [
            "0x4c209b5fc8ad50758f13e2e1088ba56a560dff690a1c6fef26394f4c03821c4f",
            "0x0000000000000000000000008f19ef21ede7d881003fca1e50285a113915cb5f"
          ],
          "data": "0x0000000000000000000000000000000000000000000000056bc75e2d631000000000000000000000000000000000000000000000000000000000002e90edd000",
          "blockHash": "0xd4889a9f30f5f64476b7a9a24f2a3540a8fa2775cb921058429f350ff1cc6ade",
          "blockNumber": "0xf2448d7",
          "blockTimestamp": "0x69c647c3",
          "transactionHash": "0xcc7021f59933ad7c5288f9d5532d82b0d532d1ff31ac8932aee458c05c3742b4",
          "transactionIndex": "0x1",
          "logIndex": "0x5",
          "removed": false
        },
        {
          "address": "0x817caf2f184d7faf6f68963dbb02810633966546",
          "topics": [
            "0x1c411e9a96e071241c2f21f7726b17ae89e3cab4c78be50e062b03a9fffbbad1"
          ],
          "data": "0x0000000000000000000000000000000000000000000000056bc75e2d631000000000000000000000000000000000000000000000000000000000002e90edd000",
          "blockHash": "0xd4889a9f30f5f64476b7a9a24f2a3540a8fa2775cb921058429f350ff1cc6ade",
          "blockNumber": "0xf2448d7",
          "blockTimestamp": "0x69c647c3",
          "transactionHash": "0xcc7021f59933ad7c5288f9d5532d82b0d532d1ff31ac8932aee458c05c3742b4",
          "transactionIndex": "0x1",
          "logIndex": "0x6",
          "removed": false
        },
        {
          "address": "0xcaa5239e6266f4aec2a78e10429ab48b0e77f72b",
          "topics": [
            "0xf6670687de371098e4dc222b501e0cf6b7e8e003a349d61b5e157ba0a27808da",
            "0x000000000000000000000000817caf2f184d7faf6f68963dbb02810633966546",
            "0x00000000000000000000000097bf134cdf8a620aa0f10e140b89a2adaac2bbbf"
          ],
          "data": "0x000000000000000000000000000000000000000000000000000fe3624afc25330000000000000000000000000000000000000000000000000000005d21dba000",
          "blockHash": "0xd4889a9f30f5f64476b7a9a24f2a3540a8fa2775cb921058429f350ff1cc6ade",
          "blockNumber": "0xf2448d7",
          "blockTimestamp": "0x69c647c3",
          "transactionHash": "0xcc7021f59933ad7c5288f9d5532d82b0d532d1ff31ac8932aee458c05c3742b4",
          "transactionIndex": "0x1",
          "logIndex": "0x7",
          "removed": false
        },
        {
          "address": "0x3e0a64d381fbc6cac7683bbf6f1480742b6ff265",
          "topics": [
            "0x33eda3544d01bf10cb62b6c03a327c1b92088e86551c3da3b17f93f28b8f4806",
            "0x000000000000000000000000817caf2f184d7faf6f68963dbb02810633966546"
          ],
          "data": "0x0000000000000000000000000000000000000000000000000000005d21dba000",
          "blockHash": "0xd4889a9f30f5f64476b7a9a24f2a3540a8fa2775cb921058429f350ff1cc6ade",
          "blockNumber": "0xf2448d7",
          "blockTimestamp": "0x69c647c3",
          "transactionHash": "0xcc7021f59933ad7c5288f9d5532d82b0d532d1ff31ac8932aee458c05c3742b4",
          "transactionIndex": "0x1",
          "logIndex": "0x8",
          "removed": false
        },
        {
          "address": "0x8f19ef21ede7d881003fca1e50285a113915cb5f",
          "topics": [
            "0x9d278c56ba6dc86a12eefe6b43112bd6e06648eb4ec0b950ee2d783d40e2acb4",
            "0x000000000000000000000000817caf2f184d7faf6f68963dbb02810633966546",
            "0x00000000000000000000000097bf134cdf8a620aa0f10e140b89a2adaac2bbbf"
          ],
          "data": "0x000000000000000000000000000000000000000000000000000fe3624afc2533",
          "blockHash": "0xd4889a9f30f5f64476b7a9a24f2a3540a8fa2775cb921058429f350ff1cc6ade",
          "blockNumber": "0xf2448d7",
          "blockTimestamp": "0x69c647c3",
          "transactionHash": "0xcc7021f59933ad7c5288f9d5532d82b0d532d1ff31ac8932aee458c05c3742b4",
          "transactionIndex": "0x1",
          "logIndex": "0x9",
          "removed": false
        }
      ],
      "logsBloom": "0x002000000000000000000000c0004000000000008100002001000000000001000002008000000000000002000000000000020000002000000000000000040000000008000000000020000008000000000004000000040000000000000020000000000000020000000000000000000800000000000208004100000010000000000000000010000000000000002100000800000200000000080000000004008000000000040000000000000000000000008010000080000040000000000000000000000002000810000000000000020000000400000240001000001000000060000024000400000000000000200200002000010100000000000000001000000030",
      "type": "0x2",
      "transactionHash": "0xcc7021f59933ad7c5288f9d5532d82b0d532d1ff31ac8932aee458c05c3742b4",
      "transactionIndex": "0x1",
      "blockHash": "0xd4889a9f30f5f64476b7a9a24f2a3540a8fa2775cb921058429f350ff1cc6ade",
      "blockNumber": "0xf2448d7",
      "gasUsed": "0x1f9483",
      "effectiveGasPrice": "0x13182f0",
      "from": "0x97bf134cdf8a620aa0f10e140b89a2adaac2bbbf",
      "to": "0x8f19ef21ede7d881003fca1e50285a113915cb5f",
      "contractAddress": null,
      "gasUsedForL1": "0x0",
      "l1BlockNumber": "0xa0b330",
      "timeboosted": false
    },
    {
      "status": "0x1",
      "cumulativeGasUsed": "0x1f5152",
      "logs": [
        {
          "address": "0x23942d68c74f80ce259a4da31a59856ffde5425e",
          "topics": [
            "0xe35cde51b2f5340cab37b1f8a7e7a0f4bf29dfa06dd3d18ecbdb8c5bc10f3b53",
            "0x00000000000000000000000098697d7bc9ea50ce6682ed52cbc95806e7fdee0f",
            "0x000000000000000000000000fed51c995304775d37c54a7197a9197150147e3b"
          ],
          "data": "0x000000000000000000000000fad8e1b15b224acd16295b3f909f5cc0ed39e2d00000000000000000000000000000000000000000000000000000000000000001",
          "blockHash": "0x91e34658f591286a4fb005ee385ac9fc1eef1efc348e746f2e7282afcf835444",
          "blockNumber": "0xf2448df",
          "blockTimestamp": "0x69c647c5",
          "transactionHash": "0x1a3b7e1a124435d4fd32f13656f31951fa33fa086750e695a6ad4f8aa242ad72",
          "transactionIndex": "0x1",
          "logIndex": "0x0",
          "removed": false
        },
        {
          "address": "0xfed51c995304775d37c54a7197a9197150147e3b",
          "topics": [
            "0xddf252ad1be2c89b69c2b068fc378daa952ba7f163c4a11628f55a4df523b3ef",
            "0x00000000000000000000000097bf134cdf8a620aa0f10e140b89a2adaac2bbbf",
            "0x000000000000000000000000fad8e1b15b224acd16295b3f909f5cc0ed39e2d0"
          ],
          "data": "0x000000000000000000000000000000000000000000000000000000003b9aca00",
          "blockHash": "0x91e34658f591286a4fb005ee385ac9fc1eef1efc348e746f2e7282afcf835444",
          "blockNumber": "0xf2448df",
          "blockTimestamp": "0x69c647c5",
          "transactionHash": "0x1a3b7e1a124435d4fd32f13656f31951fa33fa086750e695a6ad4f8aa242ad72",
          "transactionIndex": "0x1",
          "logIndex": "0x1",
          "removed": false
        },
        {
          "address": "0x98697d7bc9ea50ce6682ed52cbc95806e7fdee0f",
          "topics": [
            "0xddf252ad1be2c89b69c2b068fc378daa952ba7f163c4a11628f55a4df523b3ef",
            "0x00000000000000000000000097bf134cdf8a620aa0f10e140b89a2adaac2bbbf",
            "0x000000000000000000000000fad8e1b15b224acd16295b3f909f5cc0ed39e2d0"
          ],
          "data": "0x0000000000000000000000000000000000000000000000000000008bb2c97000",
          "blockHash": "0x91e34658f591286a4fb005ee385ac9fc1eef1efc348e746f2e7282afcf835444",
          "blockNumber": "0xf2448df",
          "blockTimestamp": "0x69c647c5",
          "transactionHash": "0x1a3b7e1a124435d4fd32f13656f31951fa33fa086750e695a6ad4f8aa242ad72",
          "transactionIndex": "0x1",
          "logIndex": "0x2",
          "removed": false
        },
        {
          "address": "0xfad8e1b15b224acd16295b3f909f5cc0ed39e2d0",
          "topics": [
            "0xddf252ad1be2c89b69c2b068fc378daa952ba7f163c4a11628f55a4df523b3ef",
            "0x0000000000000000000000000000000000000000000000000000000000000000",
            "0x0000000000000000000000000000000000000000000000000000000000000001"
          ],
          "data": "0x00000000000000000000000000000000000000000000000000000000000003e8",
          "blockHash": "0x91e34658f591286a4fb005ee385ac9fc1eef1efc348e746f2e7282afcf835444",
          "blockNumber": "0xf2448df",
          "blockTimestamp": "0x69c647c5",
          "transactionHash": "0x1a3b7e1a124435d4fd32f13656f31951fa33fa086750e695a6ad4f8aa242ad72",
          "transactionIndex": "0x1",
          "logIndex": "0x3",
          "removed": false
        },
        {
          "address": "0xfad8e1b15b224acd16295b3f909f5cc0ed39e2d0",
          "topics": [
            "0xddf252ad1be2c89b69c2b068fc378daa952ba7f163c4a11628f55a4df523b3ef",
            "0x0000000000000000000000000000000000000000000000000000000000000000",
            "0x00000000000000000000000097bf134cdf8a620aa0f10e140b89a2adaac2bbbf"
          ],
          "data": "0x00000000000000000000000000000000000000000000000000000005b402752b",
          "blockHash": "0x91e34658f591286a4fb005ee385ac9fc1eef1efc348e746f2e7282afcf835444",
          "blockNumber": "0xf2448df",
          "blockTimestamp": "0x69c647c5",
          "transactionHash": "0x1a3b7e1a124435d4fd32f13656f31951fa33fa086750e695a6ad4f8aa242ad72",
          "transactionIndex": "0x1",
          "logIndex": "0x4",
          "removed": false
        },
        {
          "address": "0xfad8e1b15b224acd16295b3f909f5cc0ed39e2d0",
          "topics": [
            "0x4c209b5fc8ad50758f13e2e1088ba56a560dff690a1c6fef26394f4c03821c4f",
            "0x0000000000000000000000008f19ef21ede7d881003fca1e50285a113915cb5f"
          ],
          "data": "0x0000000000000000000000000000000000000000000000000000008bb2c97000000000000000000000000000000000000000000000000000000000003b9aca00",
          "blockHash": "0x91e34658f591286a4fb005ee385ac9fc1eef1efc348e746f2e7282afcf835444",
          "blockNumber": "0xf2448df",
          "blockTimestamp": "0x69c647c5",
          "transactionHash": "0x1a3b7e1a124435d4fd32f13656f31951fa33fa086750e695a6ad4f8aa242ad72",
          "transactionIndex": "0x1",
          "logIndex": "0x5",
          "removed": false
        },
        {
          "address": "0xfad8e1b15b224acd16295b3f909f5cc0ed39e2d0",
          "topics": [
            "0x1c411e9a96e071241c2f21f7726b17ae89e3cab4c78be50e062b03a9fffbbad1"
          ],
          "data": "0x0000000000000000000000000000000000000000000000000000008bb2c97000000000000000000000000000000000000000000000000000000000003b9aca00",
          "blockHash": "0x91e34658f591286a4fb005ee385ac9fc1eef1efc348e746f2e7282afcf835444",
          "blockNumber": "0xf2448df",
          "blockTimestamp": "0x69c647c5",
          "transactionHash": "0x1a3b7e1a124435d4fd32f13656f31951fa33fa086750e695a6ad4f8aa242ad72",
          "transactionIndex": "0x1",
          "logIndex": "0x6",
          "removed": false
        },
        {
          "address": "0xcaa5239e6266f4aec2a78e10429ab48b0e77f72b",
          "topics": [
            "0xf6670687de371098e4dc222b501e0cf6b7e8e003a349d61b5e157ba0a27808da",
            "0x000000000000000000000000fad8e1b15b224acd16295b3f909f5cc0ed39e2d0",
            "0x00000000000000000000000097bf134cdf8a620aa0f10e140b89a2adaac2bbbf"
          ],
          "data": "0x00000000000000000000000000000000000000000000000000000005b402752b000000000000000000000000000000000000000000000000000001176592e000",
          "blockHash": "0x91e34658f591286a4fb005ee385ac9fc1eef1efc348e746f2e7282afcf835444",
          "blockNumber": "0xf2448df",
          "blockTimestamp": "0x69c647c5",
          "transactionHash": "0x1a3b7e1a124435d4fd32f13656f31951fa33fa086750e695a6ad4f8aa242ad72",
          "transactionIndex": "0x1",
          "logIndex": "0x7",
          "removed": false
        },
        {
          "address": "0x3e0a64d381fbc6cac7683bbf6f1480742b6ff265",
          "topics": [
            "0x33eda3544d01bf10cb62b6c03a327c1b92088e86551c3da3b17f93f28b8f4806",
            "0x000000000000000000000000fad8e1b15b224acd16295b3f909f5cc0ed39e2d0"
          ],
          "data": "0x000000000000000000000000000000000000000000000000000001176592e000",
          "blockHash": "0x91e34658f591286a4fb005ee385ac9fc1eef1efc348e746f2e7282afcf835444",
          "blockNumber": "0xf2448df",
          "blockTimestamp": "0x69c647c5",
          "transactionHash": "0x1a3b7e1a124435d4fd32f13656f31951fa33fa086750e695a6ad4f8aa242ad72",
          "transactionIndex": "0x1",
          "logIndex": "0x8",
          "removed": false
        },
        {
          "address": "0x8f19ef21ede7d881003fca1e50285a113915cb5f",
          "topics": [
            "0x9d278c56ba6dc86a12eefe6b43112bd6e06648eb4ec0b950ee2d783d40e2acb4",
            "0x000000000000000000000000fad8e1b15b224acd16295b3f909f5cc0ed39e2d0",
            "0x00000000000000000000000097bf134cdf8a620aa0f10e140b89a2adaac2bbbf"
          ],
          "data": "0x00000000000000000000000000000000000000000000000000000005b402752b",
          "blockHash": "0x91e34658f591286a4fb005ee385ac9fc1eef1efc348e746f2e7282afcf835444",
          "blockNumber": "0xf2448df",
          "blockTimestamp": "0x69c647c5",
          "transactionHash": "0x1a3b7e1a124435d4fd32f13656f31951fa33fa086750e695a6ad4f8aa242ad72",
          "transactionIndex": "0x1",
          "logIndex": "0x9",
          "removed": false
        }
      ],
      "logsBloom": "0x00000010000000000000000080000000000000008100002000000000000009000002008000800000000102000000000000000000002000000200000000040000000000000000000000000008000000000004000000040000000000000020000000000000020000000000000020000800000000000208004100000010008000000002000010000000000000002100040800000000000000080004000004008000000000044000000000000000000000008010000000000040000000000000000000000102000810000000000000020000000400000040001000001000000060000004000400000000000000000200002000010100000000000000001000000030",
      "type": "0x2",
      "transactionHash": "0x1a3b7e1a124435d4fd32f13656f31951fa33fa086750e695a6ad4f8aa242ad72",
      "transactionIndex": "0x1",
      "blockHash": "0x91e34658f591286a4fb005ee385ac9fc1eef1efc348e746f2e7282afcf835444",
      "blockNumber": "0xf2448df",
      "gasUsed": "0x1f5152",
      "effectiveGasPrice": "0x131c940",
      "from": "0x97bf134cdf8a620aa0f10e140b89a2adaac2bbbf",
      "to": "0x8f19ef21ede7d881003fca1e50285a113915cb5f",
      "contractAddress": null,
      "gasUsedForL1": "0x0",
      "l1BlockNumber": "0xa0b331",
      "timeboosted": false
    },
    {
      "status": "0x1",
      "cumulativeGasUsed": "0x1f51be",
      "logs": [
        {
          "address": "0x23942d68c74f80ce259a4da31a59856ffde5425e",
          "topics": [
            "0xe35cde51b2f5340cab37b1f8a7e7a0f4bf29dfa06dd3d18ecbdb8c5bc10f3b53",
            "0x00000000000000000000000098697d7bc9ea50ce6682ed52cbc95806e7fdee0f",
            "0x000000000000000000000000c4999f55d2887d003d17dc42625354fa364c29d1"
          ],
          "data": "0x000000000000000000000000ed31f9e699f23420b3426f1e42ba9ead4e7cde570000000000000000000000000000000000000000000000000000000000000001",
          "blockHash": "0x2e8003fed02c22997854317c41e39e1ff759ba3123b8fa0ce9f5d1f65b4ec618",
          "blockNumber": "0xf2448e6",
          "blockTimestamp": "0x69c647c7",
          "transactionHash": "0x6ebccbc80203afb3c0b4fa9a187febab6331f96c7832b51db52c5f83fb6e29b4",
          "transactionIndex": "0x1",
          "logIndex": "0x0",
          "removed": false
        },
        {
          "address": "0xc4999f55d2887d003d17dc42625354fa364c29d1",
          "topics": [
            "0xddf252ad1be2c89b69c2b068fc378daa952ba7f163c4a11628f55a4df523b3ef",
            "0x00000000000000000000000097bf134cdf8a620aa0f10e140b89a2adaac2bbbf",
            "0x000000000000000000000000ed31f9e699f23420b3426f1e42ba9ead4e7cde57"
          ],
          "data": "0x0000000000000000000000000000000000000000000069e10de76676d0800000",
          "blockHash": "0x2e8003fed02c22997854317c41e39e1ff759ba3123b8fa0ce9f5d1f65b4ec618",
          "blockNumber": "0xf2448e6",
          "blockTimestamp": "0x69c647c7",
          "transactionHash": "0x6ebccbc80203afb3c0b4fa9a187febab6331f96c7832b51db52c5f83fb6e29b4",
          "transactionIndex": "0x1",
          "logIndex": "0x1",
          "removed": false
        },
        {
          "address": "0x98697d7bc9ea50ce6682ed52cbc95806e7fdee0f",
          "topics": [
            "0xddf252ad1be2c89b69c2b068fc378daa952ba7f163c4a11628f55a4df523b3ef",
            "0x00000000000000000000000097bf134cdf8a620aa0f10e140b89a2adaac2bbbf",
            "0x000000000000000000000000ed31f9e699f23420b3426f1e42ba9ead4e7cde57"
          ],
          "data": "0x000000000000000000000000000000000000000000000000000000746a528800",
          "blockHash": "0x2e8003fed02c22997854317c41e39e1ff759ba3123b8fa0ce9f5d1f65b4ec618",
          "blockNumber": "0xf2448e6",
          "blockTimestamp": "0x69c647c7",
          "transactionHash": "0x6ebccbc80203afb3c0b4fa9a187febab6331f96c7832b51db52c5f83fb6e29b4",
          "transactionIndex": "0x1",
          "logIndex": "0x2",
          "removed": false
        },
        {
          "address": "0xed31f9e699f23420b3426f1e42ba9ead4e7cde57",
          "topics": [
            "0xddf252ad1be2c89b69c2b068fc378daa952ba7f163c4a11628f55a4df523b3ef",
            "0x0000000000000000000000000000000000000000000000000000000000000000",
            "0x0000000000000000000000000000000000000000000000000000000000000001"
          ],
          "data": "0x00000000000000000000000000000000000000000000000000000000000003e8",
          "blockHash": "0x2e8003fed02c22997854317c41e39e1ff759ba3123b8fa0ce9f5d1f65b4ec618",
          "blockNumber": "0xf2448e6",
          "blockTimestamp": "0x69c647c7",
          "transactionHash": "0x6ebccbc80203afb3c0b4fa9a187febab6331f96c7832b51db52c5f83fb6e29b4",
          "transactionIndex": "0x1",
          "logIndex": "0x3",
          "removed": false
        },
        {
          "address": "0xed31f9e699f23420b3426f1e42ba9ead4e7cde57",
          "topics": [
            "0xddf252ad1be2c89b69c2b068fc378daa952ba7f163c4a11628f55a4df523b3ef",
            "0x0000000000000000000000000000000000000000000000000000000000000000",
            "0x00000000000000000000000097bf134cdf8a620aa0f10e140b89a2adaac2bbbf"
          ],
          "data": "0x00000000000000000000000000000000000000000000000006f05b59d3b1fc18",
          "blockHash": "0x2e8003fed02c22997854317c41e39e1ff759ba3123b8fa0ce9f5d1f65b4ec618",
          "blockNumber": "0xf2448e6",
          "blockTimestamp": "0x69c647c7",
          "transactionHash": "0x6ebccbc80203afb3c0b4fa9a187febab6331f96c7832b51db52c5f83fb6e29b4",
          "transactionIndex": "0x1",
          "logIndex": "0x4",
          "removed": false
        },
        {
          "address": "0xed31f9e699f23420b3426f1e42ba9ead4e7cde57",
          "topics": [
            "0x4c209b5fc8ad50758f13e2e1088ba56a560dff690a1c6fef26394f4c03821c4f",
            "0x0000000000000000000000008f19ef21ede7d881003fca1e50285a113915cb5f"
          ],
          "data": "0x000000000000000000000000000000000000000000000000000000746a5288000000000000000000000000000000000000000000000069e10de76676d0800000",
          "blockHash": "0x2e8003fed02c22997854317c41e39e1ff759ba3123b8fa0ce9f5d1f65b4ec618",
          "blockNumber": "0xf2448e6",
          "blockTimestamp": "0x69c647c7",
          "transactionHash": "0x6ebccbc80203afb3c0b4fa9a187febab6331f96c7832b51db52c5f83fb6e29b4",
          "transactionIndex": "0x1",
          "logIndex": "0x5",
          "removed": false
        },
        {
          "address": "0xed31f9e699f23420b3426f1e42ba9ead4e7cde57",
          "topics": [
            "0x1c411e9a96e071241c2f21f7726b17ae89e3cab4c78be50e062b03a9fffbbad1"
          ],
          "data": "0x000000000000000000000000000000000000000000000000000000746a5288000000000000000000000000000000000000000000000069e10de76676d0800000",
          "blockHash": "0x2e8003fed02c22997854317c41e39e1ff759ba3123b8fa0ce9f5d1f65b4ec618",
          "blockNumber": "0xf2448e6",
          "blockTimestamp": "0x69c647c7",
          "transactionHash": "0x6ebccbc80203afb3c0b4fa9a187febab6331f96c7832b51db52c5f83fb6e29b4",
          "transactionIndex": "0x1",
          "logIndex": "0x6",
          "removed": false
        },
        {
          "address": "0xcaa5239e6266f4aec2a78e10429ab48b0e77f72b",
          "topics": [
            "0xf6670687de371098e4dc222b501e0cf6b7e8e003a349d61b5e157ba0a27808da",
            "0x000000000000000000000000ed31f9e699f23420b3426f1e42ba9ead4e7cde57",
            "0x00000000000000000000000097bf134cdf8a620aa0f10e140b89a2adaac2bbbf"
          ],
          "data": "0x00000000000000000000000000000000000000000000000006f05b59d3b1fc18000000000000000000000000000000000000000000000000000000e8d4a51000",
          "blockHash": "0x2e8003fed02c22997854317c41e39e1ff759ba3123b8fa0ce9f5d1f65b4ec618",
          "blockNumber": "0xf2448e6",
          "blockTimestamp": "0x69c647c7",
          "transactionHash": "0x6ebccbc80203afb3c0b4fa9a187febab6331f96c7832b51db52c5f83fb6e29b4",
          "transactionIndex": "0x1",
          "logIndex": "0x7",
          "removed": false
        },
        {
          "address": "0x3e0a64d381fbc6cac7683bbf6f1480742b6ff265",
          "topics": [
            "0x33eda3544d01bf10cb62b6c03a327c1b92088e86551c3da3b17f93f28b8f4806",
            "0x000000000000000000000000ed31f9e699f23420b3426f1e42ba9ead4e7cde57"
          ],
          "data": "0x000000000000000000000000000000000000000000000000000000e8d4a51000",
          "blockHash": "0x2e8003fed02c22997854317c41e39e1ff759ba3123b8fa0ce9f5d1f65b4ec618",
          "blockNumber": "0xf2448e6",
          "blockTimestamp": "0x69c647c7",
          "transactionHash": "0x6ebccbc80203afb3c0b4fa9a187febab6331f96c7832b51db52c5f83fb6e29b4",
          "transactionIndex": "0x1",
          "logIndex": "0x8",
          "removed": false
        },
        {
          "address": "0x8f19ef21ede7d881003fca1e50285a113915cb5f",
          "topics": [
            "0x9d278c56ba6dc86a12eefe6b43112bd6e06648eb4ec0b950ee2d783d40e2acb4",
            "0x000000000000000000000000ed31f9e699f23420b3426f1e42ba9ead4e7cde57",
            "0x00000000000000000000000097bf134cdf8a620aa0f10e140b89a2adaac2bbbf"
          ],
          "data": "0x00000000000000000000000000000000000000000000000006f05b59d3b1fc18",
          "blockHash": "0x2e8003fed02c22997854317c41e39e1ff759ba3123b8fa0ce9f5d1f65b4ec618",
          "blockNumber": "0xf2448e6",
          "blockTimestamp": "0x69c647c7",
          "transactionHash": "0x6ebccbc80203afb3c0b4fa9a187febab6331f96c7832b51db52c5f83fb6e29b4",
          "transactionIndex": "0x1",
          "logIndex": "0x9",
          "removed": false
        }
      ],
      "logsBloom": "0x000000000000000000000000800000010000000081000020000000000000010000020080000000000002020000000000000000000020000000000000000400000000000000400000000000080000000000040000000400000200000000200000000000000200000004000000000008000000000002080041000004100401000000000000100000000000000021000008000000000000000a0000000004008000000000040004000000000000000000008010000000000040000000000000000000000002000810000000000000020000000400000040001000001000000060000004000400000000000000000200002000010100000000004000001400000030",
      "type": "0x2",
      "transactionHash": "0x6ebccbc80203afb3c0b4fa9a187febab6331f96c7832b51db52c5f83fb6e29b4",
      "transactionIndex": "0x1",
      "blockHash": "0x2e8003fed02c22997854317c41e39e1ff759ba3123b8fa0ce9f5d1f65b4ec618",
      "blockNumber": "0xf2448e6",
      "gasUsed": "0x1f51be",
      "effectiveGasPrice": "0x134a7a0",
      "from": "0x97bf134cdf8a620aa0f10e140b89a2adaac2bbbf",
      "to": "0x8f19ef21ede7d881003fca1e50285a113915cb5f",
      "contractAddress": null,
      "gasUsedForL1": "0x0",
      "l1BlockNumber": "0xa0b331",
      "timeboosted": false
    },
    {
      "status": "0x1",
      "cumulativeGasUsed": "0x1f5160",
      "logs": [
        {
          "address": "0x23942d68c74f80ce259a4da31a59856ffde5425e",
          "topics": [
            "0xe35cde51b2f5340cab37b1f8a7e7a0f4bf29dfa06dd3d18ecbdb8c5bc10f3b53",
            "0x00000000000000000000000098697d7bc9ea50ce6682ed52cbc95806e7fdee0f",
            "0x0000000000000000000000009e3b254cadc9eaefa80fd85f26eb7bbbe1f59560"
          ],
          "data": "0x00000000000000000000000072576851a0a7955b3361fe1e59eaaf0eee9312160000000000000000000000000000000000000000000000000000000000000002",
          "blockHash": "0x1836114168e3bfb35f45c8d5a03c654c56b0dc5407bf818e1727fd0b7b3e5130",
          "blockNumber": "0xf2448ee",
          "blockTimestamp": "0x69c647c9",
          "transactionHash": "0xfc96295016510044363f0966c0c79c80a2938e79f589b483add257747af2e08a",
          "transactionIndex": "0x1",
          "logIndex": "0x0",
          "removed": false
        },
        {
          "address": "0x9e3b254cadc9eaefa80fd85f26eb7bbbe1f59560",
          "topics": [
            "0xddf252ad1be2c89b69c2b068fc378daa952ba7f163c4a11628f55a4df523b3ef",
            "0x00000000000000000000000097bf134cdf8a620aa0f10e140b89a2adaac2bbbf",
            "0x00000000000000000000000072576851a0a7955b3361fe1e59eaaf0eee931216"
          ],
          "data": "0x00000000000000000000000000000000000000000000152d02c7e14af6800000",
          "blockHash": "0x1836114168e3bfb35f45c8d5a03c654c56b0dc5407bf818e1727fd0b7b3e5130",
          "blockNumber": "0xf2448ee",
          "blockTimestamp": "0x69c647c9",
          "transactionHash": "0xfc96295016510044363f0966c0c79c80a2938e79f589b483add257747af2e08a",
          "transactionIndex": "0x1",
          "logIndex": "0x1",
          "removed": false
        },
        {
          "address": "0x98697d7bc9ea50ce6682ed52cbc95806e7fdee0f",
          "topics": [
            "0xddf252ad1be2c89b69c2b068fc378daa952ba7f163c4a11628f55a4df523b3ef",
            "0x00000000000000000000000097bf134cdf8a620aa0f10e140b89a2adaac2bbbf",
            "0x00000000000000000000000072576851a0a7955b3361fe1e59eaaf0eee931216"
          ],
          "data": "0x000000000000000000000000000000000000000000000000000000174876e800",
          "blockHash": "0x1836114168e3bfb35f45c8d5a03c654c56b0dc5407bf818e1727fd0b7b3e5130",
          "blockNumber": "0xf2448ee",
          "blockTimestamp": "0x69c647c9",
          "transactionHash": "0xfc96295016510044363f0966c0c79c80a2938e79f589b483add257747af2e08a",
          "transactionIndex": "0x1",
          "logIndex": "0x2",
          "removed": false
        },
        {
          "address": "0x72576851a0a7955b3361fe1e59eaaf0eee931216",
          "topics": [
            "0xddf252ad1be2c89b69c2b068fc378daa952ba7f163c4a11628f55a4df523b3ef",
            "0x0000000000000000000000000000000000000000000000000000000000000000",
            "0x0000000000000000000000000000000000000000000000000000000000000001"
          ],
          "data": "0x00000000000000000000000000000000000000000000000000000000000003e8",
          "blockHash": "0x1836114168e3bfb35f45c8d5a03c654c56b0dc5407bf818e1727fd0b7b3e5130",
          "blockNumber": "0xf2448ee",
          "blockTimestamp": "0x69c647c9",
          "transactionHash": "0xfc96295016510044363f0966c0c79c80a2938e79f589b483add257747af2e08a",
          "transactionIndex": "0x1",
          "logIndex": "0x3",
          "removed": false
        },
        {
          "address": "0x72576851a0a7955b3361fe1e59eaaf0eee931216",
          "topics": [
            "0xddf252ad1be2c89b69c2b068fc378daa952ba7f163c4a11628f55a4df523b3ef",
            "0x0000000000000000000000000000000000000000000000000000000000000000",
            "0x00000000000000000000000097bf134cdf8a620aa0f10e140b89a2adaac2bbbf"
          ],
          "data": "0x000000000000000000000000000000000000000000000000016345785d89fc18",
          "blockHash": "0x1836114168e3bfb35f45c8d5a03c654c56b0dc5407bf818e1727fd0b7b3e5130",
          "blockNumber": "0xf2448ee",
          "blockTimestamp": "0x69c647c9",
          "transactionHash": "0xfc96295016510044363f0966c0c79c80a2938e79f589b483add257747af2e08a",
          "transactionIndex": "0x1",
          "logIndex": "0x4",
          "removed": false
        },
        {
          "address": "0x72576851a0a7955b3361fe1e59eaaf0eee931216",
          "topics": [
            "0x4c209b5fc8ad50758f13e2e1088ba56a560dff690a1c6fef26394f4c03821c4f",
            "0x0000000000000000000000008f19ef21ede7d881003fca1e50285a113915cb5f"
          ],
          "data": "0x000000000000000000000000000000000000000000000000000000174876e80000000000000000000000000000000000000000000000152d02c7e14af6800000",
          "blockHash": "0x1836114168e3bfb35f45c8d5a03c654c56b0dc5407bf818e1727fd0b7b3e5130",
          "blockNumber": "0xf2448ee",
          "blockTimestamp": "0x69c647c9",
          "transactionHash": "0xfc96295016510044363f0966c0c79c80a2938e79f589b483add257747af2e08a",
          "transactionIndex": "0x1",
          "logIndex": "0x5",
          "removed": false
        },
        {
          "address": "0x72576851a0a7955b3361fe1e59eaaf0eee931216",
          "topics": [
            "0x1c411e9a96e071241c2f21f7726b17ae89e3cab4c78be50e062b03a9fffbbad1"
          ],
          "data": "0x000000000000000000000000000000000000000000000000000000174876e80000000000000000000000000000000000000000000000152d02c7e14af6800000",
          "blockHash": "0x1836114168e3bfb35f45c8d5a03c654c56b0dc5407bf818e1727fd0b7b3e5130",
          "blockNumber": "0xf2448ee",
          "blockTimestamp": "0x69c647c9",
          "transactionHash": "0xfc96295016510044363f0966c0c79c80a2938e79f589b483add257747af2e08a",
          "transactionIndex": "0x1",
          "logIndex": "0x6",
          "removed": false
        },
        {
          "address": "0xcaa5239e6266f4aec2a78e10429ab48b0e77f72b",
          "topics": [
            "0xf6670687de371098e4dc222b501e0cf6b7e8e003a349d61b5e157ba0a27808da",
            "0x00000000000000000000000072576851a0a7955b3361fe1e59eaaf0eee931216",
            "0x00000000000000000000000097bf134cdf8a620aa0f10e140b89a2adaac2bbbf"
          ],
          "data": "0x000000000000000000000000000000000000000000000000016345785d89fc180000000000000000000000000000000000000000000000000000002e90edd000",
          "blockHash": "0x1836114168e3bfb35f45c8d5a03c654c56b0dc5407bf818e1727fd0b7b3e5130",
          "blockNumber": "0xf2448ee",
          "blockTimestamp": "0x69c647c9",
          "transactionHash": "0xfc96295016510044363f0966c0c79c80a2938e79f589b483add257747af2e08a",
          "transactionIndex": "0x1",
          "logIndex": "0x7",
          "removed": false
        },
        {
          "address": "0x3e0a64d381fbc6cac7683bbf6f1480742b6ff265",
          "topics": [
            "0x33eda3544d01bf10cb62b6c03a327c1b92088e86551c3da3b17f93f28b8f4806",
            "0x00000000000000000000000072576851a0a7955b3361fe1e59eaaf0eee931216"
          ],
          "data": "0x0000000000000000000000000000000000000000000000000000002e90edd000",
          "blockHash": "0x1836114168e3bfb35f45c8d5a03c654c56b0dc5407bf818e1727fd0b7b3e5130",
          "blockNumber": "0xf2448ee",
          "blockTimestamp": "0x69c647c9",
          "transactionHash": "0xfc96295016510044363f0966c0c79c80a2938e79f589b483add257747af2e08a",
          "transactionIndex": "0x1",
          "logIndex": "0x8",
          "removed": false
        },
        {
          "address": "0x8f19ef21ede7d881003fca1e50285a113915cb5f",
          "topics": [
            "0x9d278c56ba6dc86a12eefe6b43112bd6e06648eb4ec0b950ee2d783d40e2acb4",
            "0x00000000000000000000000072576851a0a7955b3361fe1e59eaaf0eee931216",
            "0x00000000000000000000000097bf134cdf8a620aa0f10e140b89a2adaac2bbbf"
          ],
          "data": "0x000000000000000000000000000000000000000000000000016345785d89fc18",
          "blockHash": "0x1836114168e3bfb35f45c8d5a03c654c56b0dc5407bf818e1727fd0b7b3e5130",
          "blockNumber": "0xf2448ee",
          "blockTimestamp": "0x69c647c9",
          "transactionHash": "0xfc96295016510044363f0966c0c79c80a2938e79f589b483add257747af2e08a",
          "transactionIndex": "0x1",
          "logIndex": "0x9",
          "removed": false
        }
      ],
      "logsBloom": "0x00000000000000000000000080000000000008008100002000000000000001000002008000008000000002000000000000000000002000000000000000040000000000000000000000000008000000000004000000040000000000000020000000000000020000100000000000000800004000040208004100000010000000000000000010000000000000002100400800000000000000080041000204008000000000040000000000080000000000008010000000000040000000000000000400000002000810000000000000020000000400000040001000001000004060000004000400000000000000000200002000010100000000000000001000000030",
      "type": "0x2",
      "transactionHash": "0xfc96295016510044363f0966c0c79c80a2938e79f589b483add257747af2e08a",
      "transactionIndex": "0x1",
      "blockHash": "0x1836114168e3bfb35f45c8d5a03c654c56b0dc5407bf818e1727fd0b7b3e5130",
      "blockNumber": "0xf2448ee",
      "gasUsed": "0x1f5160",
      "effectiveGasPrice": "0x1314470",
      "from": "0x97bf134cdf8a620aa0f10e140b89a2adaac2bbbf",
      "to": "0x8f19ef21ede7d881003fca1e50285a113915cb5f",
      "contractAddress": null,
      "gasUsedForL1": "0x0",
      "l1BlockNumber": "0xa0b331",
      "timeboosted": false
    },
    {
      "status": "0x1",
      "cumulativeGasUsed": "0x218ec0",
      "logs": [
        {
          "address": "0x23942d68c74f80ce259a4da31a59856ffde5425e",
          "topics": [
            "0xe35cde51b2f5340cab37b1f8a7e7a0f4bf29dfa06dd3d18ecbdb8c5bc10f3b53",
            "0x00000000000000000000000011da2d696dda3e569608f7e802f7cfd5bbe89d4b",
            "0x0000000000000000000000009e3b254cadc9eaefa80fd85f26eb7bbbe1f59560"
          ],
          "data": "0x00000000000000000000000094c6014175b464ab11d1ad64a3f13c01130a68110000000000000000000000000000000000000000000000000000000000000001",
          "blockHash": "0xcb095c6c0ad99086ef9e3fc7e37860a23b9cf50e94cdc04af3a93ab0a90e905d",
          "blockNumber": "0xf2448fc",
          "blockTimestamp": "0x69c647cd",
          "transactionHash": "0xb9c81e5bdb68b5445aaa060071b7e51546d516a09bec43bdb65dc11e0bcf99da",
          "transactionIndex": "0x3",
          "logIndex": "0x2",
          "removed": false
        },
        {
          "address": "0x11da2d696dda3e569608f7e802f7cfd5bbe89d4b",
          "topics": [
            "0xddf252ad1be2c89b69c2b068fc378daa952ba7f163c4a11628f55a4df523b3ef",
            "0x00000000000000000000000097bf134cdf8a620aa0f10e140b89a2adaac2bbbf",
            "0x00000000000000000000000094c6014175b464ab11d1ad64a3f13c01130a6811"
          ],
          "data": "0x0000000000000000000000000000000000000000000000056bc75e2d63100000",
          "blockHash": "0xcb095c6c0ad99086ef9e3fc7e37860a23b9cf50e94cdc04af3a93ab0a90e905d",
          "blockNumber": "0xf2448fc",
          "blockTimestamp": "0x69c647cd",
          "transactionHash": "0xb9c81e5bdb68b5445aaa060071b7e51546d516a09bec43bdb65dc11e0bcf99da",
          "transactionIndex": "0x3",
          "logIndex": "0x3",
          "removed": false
        },
        {
          "address": "0x9e3b254cadc9eaefa80fd85f26eb7bbbe1f59560",
          "topics": [
            "0xddf252ad1be2c89b69c2b068fc378daa952ba7f163c4a11628f55a4df523b3ef",
            "0x00000000000000000000000097bf134cdf8a620aa0f10e140b89a2adaac2bbbf",
            "0x00000000000000000000000094c6014175b464ab11d1ad64a3f13c01130a6811"
          ],
          "data": "0x000000000000000000000000000000000000000000002a5a058fc295ed000000",
          "blockHash": "0xcb095c6c0ad99086ef9e3fc7e37860a23b9cf50e94cdc04af3a93ab0a90e905d",
          "blockNumber": "0xf2448fc",
          "blockTimestamp": "0x69c647cd",
          "transactionHash": "0xb9c81e5bdb68b5445aaa060071b7e51546d516a09bec43bdb65dc11e0bcf99da",
          "transactionIndex": "0x3",
          "logIndex": "0x4",
          "removed": false
        },
        {
          "address": "0x94c6014175b464ab11d1ad64a3f13c01130a6811",
          "topics": [
            "0xddf252ad1be2c89b69c2b068fc378daa952ba7f163c4a11628f55a4df523b3ef",
            "0x0000000000000000000000000000000000000000000000000000000000000000",
            "0x0000000000000000000000000000000000000000000000000000000000000001"
          ],
          "data": "0x00000000000000000000000000000000000000000000000000000000000003e8",
          "blockHash": "0xcb095c6c0ad99086ef9e3fc7e37860a23b9cf50e94cdc04af3a93ab0a90e905d",
          "blockNumber": "0xf2448fc",
          "blockTimestamp": "0x69c647cd",
          "transactionHash": "0xb9c81e5bdb68b5445aaa060071b7e51546d516a09bec43bdb65dc11e0bcf99da",
          "transactionIndex": "0x3",
          "logIndex": "0x5",
          "removed": false
        },
        {
          "address": "0x94c6014175b464ab11d1ad64a3f13c01130a6811",
          "topics": [
            "0xddf252ad1be2c89b69c2b068fc378daa952ba7f163c4a11628f55a4df523b3ef",
            "0x0000000000000000000000000000000000000000000000000000000000000000",
            "0x00000000000000000000000097bf134cdf8a620aa0f10e140b89a2adaac2bbbf"
          ],
          "data": "0x0000000000000000000000000000000000000000000000f26f5a94ae2a3e374a",
          "blockHash": "0xcb095c6c0ad99086ef9e3fc7e37860a23b9cf50e94cdc04af3a93ab0a90e905d",
          "blockNumber": "0xf2448fc",
          "blockTimestamp": "0x69c647cd",
          "transactionHash": "0xb9c81e5bdb68b5445aaa060071b7e51546d516a09bec43bdb65dc11e0bcf99da",
          "transactionIndex": "0x3",
          "logIndex": "0x6",
          "removed": false
        },
        {
          "address": "0x94c6014175b464ab11d1ad64a3f13c01130a6811",
          "topics": [
            "0x4c209b5fc8ad50758f13e2e1088ba56a560dff690a1c6fef26394f4c03821c4f",
            "0x0000000000000000000000008f19ef21ede7d881003fca1e50285a113915cb5f"
          ],
          "data": "0x0000000000000000000000000000000000000000000000056bc75e2d63100000000000000000000000000000000000000000000000002a5a058fc295ed000000",
          "blockHash": "0xcb095c6c0ad99086ef9e3fc7e37860a23b9cf50e94cdc04af3a93ab0a90e905d",
          "blockNumber": "0xf2448fc",
          "blockTimestamp": "0x69c647cd",
          "transactionHash": "0xb9c81e5bdb68b5445aaa060071b7e51546d516a09bec43bdb65dc11e0bcf99da",
          "transactionIndex": "0x3",
          "logIndex": "0x7",
          "removed": false
        },
        {
          "address": "0x94c6014175b464ab11d1ad64a3f13c01130a6811",
          "topics": [
            "0x1c411e9a96e071241c2f21f7726b17ae89e3cab4c78be50e062b03a9fffbbad1"
          ],
          "data": "0x0000000000000000000000000000000000000000000000056bc75e2d63100000000000000000000000000000000000000000000000002a5a058fc295ed000000",
          "blockHash": "0xcb095c6c0ad99086ef9e3fc7e37860a23b9cf50e94cdc04af3a93ab0a90e905d",
          "blockNumber": "0xf2448fc",
          "blockTimestamp": "0x69c647cd",
          "transactionHash": "0xb9c81e5bdb68b5445aaa060071b7e51546d516a09bec43bdb65dc11e0bcf99da",
          "transactionIndex": "0x3",
          "logIndex": "0x8",
          "removed": false
        },
        {
          "address": "0xcaa5239e6266f4aec2a78e10429ab48b0e77f72b",
          "topics": [
            "0xf6670687de371098e4dc222b501e0cf6b7e8e003a349d61b5e157ba0a27808da",
            "0x00000000000000000000000094c6014175b464ab11d1ad64a3f13c01130a6811",
            "0x00000000000000000000000097bf134cdf8a620aa0f10e140b89a2adaac2bbbf"
          ],
          "data": "0x0000000000000000000000000000000000000000000000f26f5a94ae2a3e374a0000000000000000000000000000000000000000000054b40b1f852bda000000",
          "blockHash": "0xcb095c6c0ad99086ef9e3fc7e37860a23b9cf50e94cdc04af3a93ab0a90e905d",
          "blockNumber": "0xf2448fc",
          "blockTimestamp": "0x69c647cd",
          "transactionHash": "0xb9c81e5bdb68b5445aaa060071b7e51546d516a09bec43bdb65dc11e0bcf99da",
          "transactionIndex": "0x3",
          "logIndex": "0x9",
          "removed": false
        },
        {
          "address": "0x3e0a64d381fbc6cac7683bbf6f1480742b6ff265",
          "topics": [
            "0x33eda3544d01bf10cb62b6c03a327c1b92088e86551c3da3b17f93f28b8f4806",
            "0x00000000000000000000000094c6014175b464ab11d1ad64a3f13c01130a6811"
          ],
          "data": "0x0000000000000000000000000000000000000000000054b40b1f852bda000000",
          "blockHash": "0xcb095c6c0ad99086ef9e3fc7e37860a23b9cf50e94cdc04af3a93ab0a90e905d",
          "blockNumber": "0xf2448fc",
          "blockTimestamp": "0x69c647cd",
          "transactionHash": "0xb9c81e5bdb68b5445aaa060071b7e51546d516a09bec43bdb65dc11e0bcf99da",
          "transactionIndex": "0x3",
          "logIndex": "0xa",
          "removed": false
        },
        {
          "address": "0x8f19ef21ede7d881003fca1e50285a113915cb5f",
          "topics": [
            "0x9d278c56ba6dc86a12eefe6b43112bd6e06648eb4ec0b950ee2d783d40e2acb4",
            "0x00000000000000000000000094c6014175b464ab11d1ad64a3f13c01130a6811",
            "0x00000000000000000000000097bf134cdf8a620aa0f10e140b89a2adaac2bbbf"
          ],
          "data": "0x0000000000000000000000000000000000000000000000f26f5a94ae2a3e374a",
          "blockHash": "0xcb095c6c0ad99086ef9e3fc7e37860a23b9cf50e94cdc04af3a93ab0a90e905d",
          "blockNumber": "0xf2448fc",
          "blockTimestamp": "0x69c647cd",
          "transactionHash": "0xb9c81e5bdb68b5445aaa060071b7e51546d516a09bec43bdb65dc11e0bcf99da",
          "transactionIndex": "0x3",
          "logIndex": "0xb",
          "removed": false
        }
      ],
      "logsBloom": "0x00200400000000000000000080004000000008008100002001000000000001000002000000008000000000000000000000000000002008000000000000040000000000000000000020000008000000000004000000040000000000000000000000000000020000100000000000000800000000000208004100000010000000000000000010000000000002000100000800000000000000080041000004008000000000040000000000000000000000008010000080000000000000000000000000000002010810000000000000020002000400000240001000000000004060000004000400000000000000000200002000010100000000000100001000000030",
      "type": "0x2",
      "transactionHash": "0xb9c81e5bdb68b5445aaa060071b7e51546d516a09bec43bdb65dc11e0bcf99da",
      "transactionIndex": "0x3",
      "blockHash": "0xcb095c6c0ad99086ef9e3fc7e37860a23b9cf50e94cdc04af3a93ab0a90e905d",
      "blockNumber": "0xf2448fc",
      "gasUsed": "0x1f51e2",
      "effectiveGasPrice": "0x1312d00",
      "from": "0x97bf134cdf8a620aa0f10e140b89a2adaac2bbbf",
      "to": "0x8f19ef21ede7d881003fca1e50285a113915cb5f",
      "contractAddress": null,
      "gasUsedForL1": "0x0",
      "l1BlockNumber": "0xa0b331",
      "timeboosted": false
    },
    {
      "status": "0x1",
      "cumulativeGasUsed": "0xe44b",
      "logs": [
        {
          "address": "0xa18f7bd8be9611fd8499c15e0bc6aa9c4c0ef268",
          "topics": [
            "0x84c7969632fd1575d3bbe1bef77c68cc56cd9b903a72576f5cc0004e28769328",
            "0x000000000000000000000000817caf2f184d7faf6f68963dbb02810633966546",
            "0x00000000000000000000000097bf134cdf8a620aa0f10e140b89a2adaac2bbbf"
          ],
          "data": "0x0000000000000000000000000000000000000000000000000000000069c647cf",
          "blockHash": "0xa309ce845c2b42624cdd273bd7811514e8f858609b0b4f0b7af8075d39956501",
          "blockNumber": "0xf244904",
          "blockTimestamp": "0x69c647cf",
          "transactionHash": "0x28e1c6f3b88c4eac51081eebe9088811128b2cd554af5a13c6425e3e3706b309",
          "transactionIndex": "0x1",
          "logIndex": "0x0",
          "removed": false
        }
      ],
      "logsBloom": "0x00000000000000000000000040000000000000008000000000000000000000000000000000000000000000000000000000120001000000000000000000000000200000000000000000000000000000000004000000000000000000000000000000000000000000000000000000000000000000000000000000000000000000000000000000000000000000000000000000000200008000000000000000008000000000000000000000000000000000000000000000000000000000000000000000000000000010000000000000000000000000000000000000000000000000000000000000000000000000000000000000000000000000004000000000000000",
      "type": "0x2",
      "transactionHash": "0x28e1c6f3b88c4eac51081eebe9088811128b2cd554af5a13c6425e3e3706b309",
      "transactionIndex": "0x1",
      "blockHash": "0xa309ce845c2b42624cdd273bd7811514e8f858609b0b4f0b7af8075d39956501",
      "blockNumber": "0xf244904",
      "gasUsed": "0xe44b",
      "effectiveGasPrice": "0x1312d00",
      "from": "0x97bf134cdf8a620aa0f10e140b89a2adaac2bbbf",
      "to": "0xa18f7bd8be9611fd8499c15e0bc6aa9c4c0ef268",
      "contractAddress": null,
      "gasUsedForL1": "0x0",
      "l1BlockNumber": "0xa0b331",
      "timeboosted": false
    },
    {
      "status": "0x1",
      "cumulativeGasUsed": "0xe44b",
      "logs": [
        {
          "address": "0xa18f7bd8be9611fd8499c15e0bc6aa9c4c0ef268",
          "topics": [
            "0x84c7969632fd1575d3bbe1bef77c68cc56cd9b903a72576f5cc0004e28769328",
            "0x000000000000000000000000fad8e1b15b224acd16295b3f909f5cc0ed39e2d0",
            "0x00000000000000000000000097bf134cdf8a620aa0f10e140b89a2adaac2bbbf"
          ],
          "data": "0x0000000000000000000000000000000000000000000000000000000069c647d1",
          "blockHash": "0x853b46a67ff739ea119b78b5507ca32255450d3bfe8a5716132f728d69310f53",
          "blockNumber": "0xf24490c",
          "blockTimestamp": "0x69c647d1",
          "transactionHash": "0x482dc853b08683b5bdb405d8aa67588bbde3f266e44055b98260c4ba0eb4d429",
          "transactionIndex": "0x1",
          "logIndex": "0x0",
          "removed": false
        }
      ],
      "logsBloom": "0x00000000000000000000000000000000000000008000000000000000000000000000000000000000000100000000000000100001000000000200000000000000200000000000000000000000000000000004000000000000000000000000000000000000000000000000000020000000000000000000000000000000000000000000000000000000000000000000000000000000008000000000000000008000000000000000000000000000000000000000000000000000000000000000000000000000000010000000000000000000000000000000000000000000000000000000000000000000000000000000000000000000000000004000000000000000",
      "type": "0x2",
      "transactionHash": "0x482dc853b08683b5bdb405d8aa67588bbde3f266e44055b98260c4ba0eb4d429",
      "transactionIndex": "0x1",
      "blockHash": "0x853b46a67ff739ea119b78b5507ca32255450d3bfe8a5716132f728d69310f53",
      "blockNumber": "0xf24490c",
      "gasUsed": "0xe44b",
      "effectiveGasPrice": "0x1312d00",
      "from": "0x97bf134cdf8a620aa0f10e140b89a2adaac2bbbf",
      "to": "0xa18f7bd8be9611fd8499c15e0bc6aa9c4c0ef268",
      "contractAddress": null,
      "gasUsedForL1": "0x0",
      "l1BlockNumber": "0xa0b331",
      "timeboosted": false
    },
    {
      "status": "0x1",
      "cumulativeGasUsed": "0xe44b",
      "logs": [
        {
          "address": "0xa18f7bd8be9611fd8499c15e0bc6aa9c4c0ef268",
          "topics": [
            "0x84c7969632fd1575d3bbe1bef77c68cc56cd9b903a72576f5cc0004e28769328",
            "0x000000000000000000000000ed31f9e699f23420b3426f1e42ba9ead4e7cde57",
            "0x00000000000000000000000097bf134cdf8a620aa0f10e140b89a2adaac2bbbf"
          ],
          "data": "0x0000000000000000000000000000000000000000000000000000000069c647d3",
          "blockHash": "0x0e6c406c93022fff005f3fc566133836017a81d322edc4b49bf1f4dba93e3845",
          "blockNumber": "0xf244914",
          "blockTimestamp": "0x69c647d3",
          "transactionHash": "0x9f49c20dd11d4d6567c02ff43646295c9ae3c9d48a5eca6d7bc0d6fb30628275",
          "transactionIndex": "0x1",
          "logIndex": "0x0",
          "removed": false
        }
      ],
      "logsBloom": "0x00000000000000000000000000000000000000008000000000000000000000000000000000000000000000000000000000100001000000000000000000000000200000000040000000000000000000000004000000000000020000000000000000000000000000000000000000000000000000000000000000000400000000000000000000000000000000000000000000000000008000000000000000008000000000000000000000000000000000000000000000000000000000000000000000000000000010000000000000000000000000000000000000000000000000000000000000000000000000000000000000000000000000004000000000000000",
      "type": "0x2",
      "transactionHash": "0x9f49c20dd11d4d6567c02ff43646295c9ae3c9d48a5eca6d7bc0d6fb30628275",
      "transactionIndex": "0x1",
      "blockHash": "0x0e6c406c93022fff005f3fc566133836017a81d322edc4b49bf1f4dba93e3845",
      "blockNumber": "0xf244914",
      "gasUsed": "0xe44b",
      "effectiveGasPrice": "0x1312d00",
      "from": "0x97bf134cdf8a620aa0f10e140b89a2adaac2bbbf",
      "to": "0xa18f7bd8be9611fd8499c15e0bc6aa9c4c0ef268",
      "contractAddress": null,
      "gasUsedForL1": "0x0",
      "l1BlockNumber": "0xa0b333",
      "timeboosted": false
    },
    {
      "status": "0x1",
      "cumulativeGasUsed": "0xe44b",
      "logs": [
        {
          "address": "0xa18f7bd8be9611fd8499c15e0bc6aa9c4c0ef268",
          "topics": [
            "0x84c7969632fd1575d3bbe1bef77c68cc56cd9b903a72576f5cc0004e28769328",
            "0x00000000000000000000000072576851a0a7955b3361fe1e59eaaf0eee931216",
            "0x00000000000000000000000097bf134cdf8a620aa0f10e140b89a2adaac2bbbf"
          ],
          "data": "0x0000000000000000000000000000000000000000000000000000000069c647d5",
          "blockHash": "0x3b783cff90043c5d477595ceeca17a0da2a27ebc060e4fdeefdf8aa0994faa29",
          "blockNumber": "0xf24491c",
          "blockTimestamp": "0x69c647d5",
          "transactionHash": "0x5600dfb6e74070bf380afcfa261e4d7ec2ba727d7afef6030798b12d0d734dd7",
          "transactionIndex": "0x1",
          "logIndex": "0x0",
          "removed": false
        }
      ],
      "logsBloom": "0x00000000000000000000000000000000000000008000000000000000000000000000000000000000000000000000000000100001000000000000000000000000200000000000000000000000000000000004000000000000000000000000000000000000000000000000000000000000004000000000000000000000000000000000000000000000000000000000400000000000008000000000000200008000000000000000000000000000000000000000000000000000000000000000000000000000000010000000000000000000000000000000000000000000000000000000000000000000000000000000000000000000000000004000000000000000",
      "type": "0x2",
      "transactionHash": "0x5600dfb6e74070bf380afcfa261e4d7ec2ba727d7afef6030798b12d0d734dd7",
      "transactionIndex": "0x1",
      "blockHash": "0x3b783cff90043c5d477595ceeca17a0da2a27ebc060e4fdeefdf8aa0994faa29",
      "blockNumber": "0xf24491c",
      "gasUsed": "0xe44b",
      "effectiveGasPrice": "0x1312d00",
      "from": "0x97bf134cdf8a620aa0f10e140b89a2adaac2bbbf",
      "to": "0xa18f7bd8be9611fd8499c15e0bc6aa9c4c0ef268",
      "contractAddress": null,
      "gasUsedForL1": "0x0",
      "l1BlockNumber": "0xa0b333",
      "timeboosted": false
    },
    {
      "status": "0x1",
      "cumulativeGasUsed": "0x3ca2d",
      "logs": [
        {
          "address": "0xa18f7bd8be9611fd8499c15e0bc6aa9c4c0ef268",
          "topics": [
            "0x84c7969632fd1575d3bbe1bef77c68cc56cd9b903a72576f5cc0004e28769328",
            "0x00000000000000000000000094c6014175b464ab11d1ad64a3f13c01130a6811",
            "0x00000000000000000000000097bf134cdf8a620aa0f10e140b89a2adaac2bbbf"
          ],
          "data": "0x0000000000000000000000000000000000000000000000000000000069c647d7",
          "blockHash": "0xb0bbe95571932916125242f5ed0c38bad7a3a9a6b20b6d381592ebd8a17dd3be",
          "blockNumber": "0xf244924",
          "blockTimestamp": "0x69c647d7",
          "transactionHash": "0x63513427f8f137fca7d5999f39579e7d72b312e24acb0b862e6b3d23d6cff39b",
          "transactionIndex": "0x2",
          "logIndex": "0x1",
          "removed": false
        }
      ],
      "logsBloom": "0x00000400000000000000000000000000000000008000000000000000000000000000000000000000000000000000000000100001000008000000000000000000200000000000000000000000000000000004000000000000000000000000000000000000000000000000000000000000000000000000000000000000000000000000000000000000000000000000000000000000008000000000000000008000000000000000000000000000000000000000000000000000000000000000000000000000000010000000000000000000000000000000000000000000000000000000000000000000000000000000000000000000000000004100000000000000",
      "type": "0x2",
      "transactionHash": "0x63513427f8f137fca7d5999f39579e7d72b312e24acb0b862e6b3d23d6cff39b",
      "transactionIndex": "0x2",
      "blockHash": "0xb0bbe95571932916125242f5ed0c38bad7a3a9a6b20b6d381592ebd8a17dd3be",
      "blockNumber": "0xf244924",
      "gasUsed": "0xe44b",
      "effectiveGasPrice": "0x1312d00",
      "from": "0x97bf134cdf8a620aa0f10e140b89a2adaac2bbbf",
      "to": "0xa18f7bd8be9611fd8499c15e0bc6aa9c4c0ef268",
      "contractAddress": null,
      "gasUsedForL1": "0x0",
      "l1BlockNumber": "0xa0b333",
      "timeboosted": false
    }
  ],
  "libraries": [],
  "pending": [],
  "returns": {},
  "timestamp": 1774602196978,
  "chain": 421614,
  "commit": "5e8965c"
}